:400000000080002011000000FD010000FD01000008B5044B1A6803F53F5302331A6000F007F900BFFA46004010B5054C237833B9044B13B10448AFF300800123237010BD7B
:400040008881FF1F000000008C1B0000084B10B51BB108480849AFF300800848036803B910BD074B002BFBD0BDE81040184700BF000000008C1B00008C81FF1F0881FF1FF3
:4000800000000000F8B500F0CDFC044600F050FC074600F0D3FB064600F06EFD054614F0400F09D000F0C4FC044600F0CDFC201A80B2314B988003E000F0BAFC2E4B98805E
:4000C00017F0400F09D000F039FC044600F042FC201A80B2284BD88003E000F02FFC264BD88016F0400F09D000F0AEFB044600F0B7FB201A80B2204B188003E000F0A4FBA2
:400100001D4B188015F0400F09D000F03BFD044600F044FD201A80B2174B588003E000F031FD154B58800C2000F0E8FC012000F0D9FC0C2000F0FAFC012000F0EBFC0C20F4
:4001400000F056FB012000F047FB0C2000F080FD012000F071FD0A2000F000FB022000F0CDFC022000F0E2FC022000F041FB022000F06EFDF8BD00BFB481FF1F00B583B079
:40018000134800F01BFB62B600F09AFA00F09CFC00F020FC00F0A4FB00F040FD00F054FA0C4800F017FE012000F0E2FA0A48018842888388C08880B20090084889B292B2E5
:4001C0009BB200F091FD4FF4FA7000F0B1FAEDE785000000901B0000B481FF1F981B000070B51646002405E04D1C087800F076FA01342946B442F7DB304670BDFEE700BF5C
:4002000008B5094B1A681044084BC31AB3F5007F02DC054B186005E000F026FD0C2303604FF0FF32104608BD0C81FF1FC081FF1F08B5104E104D16E029686B68AC680022B3
:4002400004E051F8040B43F8040B0432A242F8D1E868002203E0002143F8041B04328242F9D11035013E002EE6D100F003FDFFF785FFFEE701000000C41C000008B5124ACF
:40028000124B1A60124A136843F40073136000230AE0032B03D80F4A52F8231000E00E490E4A42F8231001332F2BF2D90C4B1A780C4B1A70094A0C4B1A6000F0BBF800227F
:4002C0000A4B1A6008BD00BF0004FA050CED00E014ED00E000000000FD0100000080FF1FBC7600400481FF1F08ED00E00081FF1FFEE700BFF0B40022174611E050F8276042
:40030000F3B226F0FF0608E001EB420511F812406D78A5550132013BDBB2002BF4D10137232FEBD9F0BC7047064B1B78DBB203F00701054A11701B09013213704422034B41
:400340001A707047CF0100496E5800407658004008B50A46002100F0BEFC08BD38B50E22284B1A801823284A13704D210232118002321370EF21023211800232137002227E
:40038000224B1A7008224FF040231A70032103F5007319701E4B1B78DBB21E490B701E4B1A8041F25122023B1A80002419250CE01A4B1B7803F0010343EA440404F0030440
:4003C0004FF4F07000F0A4F9013D0DB1032CEFD115B90320FFF78CFF114B4FF480721A8007221A7000220F490A704820023108701A700222033B1A700B4A137843F00703F8
:40040000137038BD80400040824000400043004008010049A146004022420040254200400440004006400040A243004008B500F047FC08BD38B572B63A4A137843F00403B9
:40044000137000240CE0384963001A1952000A4423445B00C8589188FFF77AFF0134E4B2072CF0D900240BE02F49A3001A1952000A44106B516B0622FFF7D8FF0134E4B20D
:40048000002CF1D04FF090402849FFF733FF284A137843F0020313701032137843F002031370244C237843F040032370A2F58632513A137843F0100313701F481F4908222C
:4004C000FFF7B4FF1E481F490A22FFF7AFFF1E481E490822FFF7AAFF1D481E490A22FFF7A5FF1D481D490822FFF7A0FF1C481D490822FFF79BFF1C4A137843F008031370CD
:400500001A4D61232B70FFF729FF81232B700122174B1A70FFF708FF164821460E22FFF785FF38BDE8460040C81B00009000004803500140A043004002510040C00A0048E3
:40054000C0510040C80A0048F2510040D40A004810510040DC0A004822510040E80A004832510040F00A0048224300400048004004000840B0430040024A137843F080036D
:40058000137070477A650040014B1870704700BF09650040014B1870704700BF49650040014B1870704700BF29650040014B1870704700BF39650040014B1870704700BF28
:4005C0008A650040014B1878704700BF6A650040014B1878704700BF5965004008B501E0FFF7F6FFFFF7EEFF10F0100FF8D108BD08B5134A137803F0C00343F009031370E5
:400600001F32137843F001031370FF20FFF7BCFFFF20FFF7BFFF2820FFF7C2FF2820FFF7C5FF0020FFF7C8FF00F07AF8054A137843F01003137000F077F8FFF7CFFF08BDB6
:400640007A6500409A65004008B5054B1B7823B9FFF7CEFF0122024B1A70FFF78DFF08BDA481FF1F7222074B1A70202201331A7006225B3B1A70472210331A7000224F33C7
:400680001A7070478964004010B500F049F804460A4A137843F0200313700132137843F0100313700432137843F01003137000F021F8204600F038F810BD00BF996400406B
:4006C00008B5054B1B7823B9FFF7CCFF0122024B1A70FFF7D9FF08BDA581FF1F034B1B7813F0040FFAD1024B187070476E6400404E640040054A137843F0020313701032C3
:40070000137843F002031370704700BFA24300400230800803D000BF01380046FCD17047EFF3108072B6704780F31088704700BF10B5044605E0084B1868FFF7E9FFA4F579
:400740000044B4F5004FF6D8034B586800FB04F0FFF7DEFF10BD00BF1081FF1F08B5034B1B7A03FB00F0FFF7D3FF08BD1081FF1F044A137803F0F703C00000F008001843C1
:400780001070704720510040014B1B685864704708ED00E04001C0B2014B1870704700BF01E400E00222014B1A60704700E100E00222014B1A60704780E100E010B5044625
:4007C000FFF7F6FF2046FFF7DFFF0720FFF7E2FFFFF7E8FF10BD00BF044A137803F0F703C00000F0080018431070704730510040044A137803F0F10300F00E001843107003
:40080000704700BF1B500040084A137843F0010313701032137843F00103137002F64D32137843F001031370704700BFA3430040014B1870704700BF034F0040014B187869
:40084000704700BF034F0040014B188880B27047044F0040014B1880704700BF044F0040014B188880B27047084F0040014B1880704700BF064F004008B5164A137803F025
:40088000010313700232137803F0FC031370124B1A7802F0CF021A701A7842F030021A701A7802F0F0021A701A7842F00F021A700A4A137843F00103137045F6BF50FFF789
:4008C000C9FF45F6BF50FFF7D1FF0820FFF7B0FF08BD00BF004F00400B4F0040014F004008B5054B1B7823B9FFF7C6FF0122024B1A70FFF789FF08BDA781FF1F084A13787F
:4009000043F0080313701032137843F00803137002F67132137843F001031370704700BFA3430040014B1870704700BF274F0040014B1878704700BF274F0040014B1888F8
:4009400080B27047284F0040014B1880704700BF284F0040014B188880B270472C4F0040014B1880704700BF2A4F004008B5164A137803F0010313700232137803F0FC0350
:400980001370124B1A7802F0CF021A701A7842F030021A701A7802F0F0021A701A7842F00F021A700A4A137843F00103137045F6BF50FFF7C9FF45F6BF50FFF7D1FF0820C0
:4009C000FFF7B0FF08BD00BF244F00402F4F0040254F004008B5054B1B7823B9FFF7C6FF0122024B1A70FFF789FF08BDA881FF1F084A137843F0040313701032137843F054
:400A00000403137002F66532137843F001031370704700BFA3430040014B1870704700BF1B4F0040014B1878704700BF1B4F0040014B188880B270471C4F0040014B188068
:400A4000704700BF1C4F0040014B188880B27047204F0040014B1880704700BF1E4F004008B5164A137803F0010313700232137803F0FC031370124B1A7802F0CF021A7038
:400A80001A7842F030021A701A7802F0F0021A701A7842F00F021A700A4A137843F00103137045F6BF50FFF7C9FF45F6BF50FFF7D1FF0820FFF7B0FF08BD00BF184F0040AE
:400AC000234F0040194F004008B5054B1B7823B9FFF7C6FF0122024B1A70FFF789FF08BDA981FF1F044A137803F07F03C001C0B203431370704700BF20510040044A137896
:400B000003F0F10300F00E0018431070704700BF17500040044A137803F0EF03000100F0100018431070704730510040044A137803F0F10300F00E0018431070704700BFB7
:400B40001C500040084A137843F0020313701032137843F00203137002F65932137843F001031370704700BFA3430040014B1870704700BF0F4F0040014B1878704700BF0B
:400B80000F4F0040014B188880B27047104F0040014B1880704700BF104F0040014B188880B27047144F0040014B1880704700BF124F004008B5164A137803F00103137095
:400BC0000232137803F0FC031370124B1A7802F0CF021A701A7842F030021A701A7802F0F0021A701A7842F00F021A700A4A137843F00103137045F6BF50FFF7C9FF45F6CA
:400C0000BF50FFF7D1FF0820FFF7B0FF08BD00BF0C4F0040174F00400D4F004008B5054B1B7823B9FFF7C6FF0122024B1A70FFF789FF08BDAA81FF1F044A137803F0FD0328
:400C4000400000F00200184310707047F0510040044A137803F0F10300F00E0018431070704700BF79500040014B1868704700BF8081FF1F0E4B70B51E460E4C0025E41A57
:400C8000A410A54204D056F8253098470135F8E701F006F8084B094C1E46E41AA4100025A54204D056F8253098470135F8E770BDAC1C0000AC1C0000AC1C0000B41C0000B5
:400CC00010B5431E0A44914204D011F8014B03F8014FF8E710BD03460244934202D003F8011BFAE7704700000FB40A4B13B51C6824B1A36913B9204600F022FA05AB20460F
:400D0000A168049A019300F0B1FB02B0BDE8104004B070478081FF1F70B50E46054618B183690BB900F00CFAAC68A389190701D5236983B92846214600F0A8F858B14FF0CD
:400D4000FF3070BD002B0EDB236816F8012C1A70236801332360A36816F8012B013BA360002AEFD116E0A269934209DB236816F8012C1A70236819780A29EAD1284602E09F
:400D8000284616F8011C224600F02CF8421C50425041D3E7002B15DAA269934208DB23680A221A702368197891420FD1284601E028460A21224600F015F8431C5842584117
:400DC00030B1BCE723680A221A702368013323600A2070BD024B01461868FFF79DBF00BF8081FF1F70B50D461446064618B183690BB900F0A5F9224B9C4201D1746808E04B
:400E0000204B9C4201D1B46803E01F4B9C4208BFF468A369A360A3891A0709D523693BB123682069EDB2181A636998420FDB08E03046214600F02AF80028F1D04FF0FF30D8
:400E400070BD3046214600F011F90028F6D1A3680130013BA36023685A1C22601D706369984204D0A389DB0707D50A2D05D13046214600F0FBF80028E0D1284670BD00BF90
:400E80000C1C00002C1C00004C1C0000314B70B51D6806460C4625B1AB6913B9284600F04FF92D4B9C4201D16C6808E02B4B9C4201D1AC6803E02A4B9C4208BFEC68A3899F
:400EC0009AB211071DD4D50602D40922326038E0500712D5616B41B104F14403994202D0304600F001FA00236363A38923F02403A3810023636023692360A38943F00803FF
:400F0000A38123694BB9A38903F42073B3F5007F03D03046214600F09BF9A38913F0010205D00022A26062695242A26103E0990758BF6269A26022694AB903F0800080B2C5
:400F400030B143F04003A3814FF0FF3070BD002070BD00BF8081FF1F0C1C00002C1C00004C1C00008A892DE9F041054610070C4657D44B68002B02DC0B6C002B18DDE66A7C
:400F8000B6B102F48052002392B22F682B600AB1626D10E0216A28460123B047411C024609D12B683BB11D2B01D0162B46D12F600020BDE8F081A3895B0705D56368D21A98
:400FC000636B0BB1236CD21AE66A00232846216AB047461CA38905D12A681AB11D2A01D0162A19D1002262602269D904226004D5421C01D12B6803B96065616B2F60002917
:40100000D6D004F14403994202D0284600F06CF900206063BDE8F08143F04003A381BDE8F0810F69002FC3D093070E680CBF4B690023C7EB06080F608B6012E0A3894FF052
:40104000FF3043F04003A381BDE8F0812846216A3A464346A66AB0470028EFDD0744C0EB0808B8F1000FF1DCA2E7000038B50B6905460C46DBB118B183690BB900F060F835
:401080000C4B9C4201D16C6808E00B4B9C4201D1AC6803E0094B9C4208BFEC68B4F90C302BB128462146BDE83840FFF75BBF002038BD00BF0C1C00002C1C00004C1C0000B0
:4010C000014900F0A7B800BF6D10000010B50446002303604360836081814366C28103614361836119465C300822FFF7F4FD054B24626362044BA362044BE362044B2363D2
:4011000010BD00BFC9190000EB190000231A0000471A000070B568234D1E5D430E4605F1740100F025F9044640B1002180E842000C30A06005F16802FFF7CDFD204670BD22
:40114000836910B5044633BB8364C3640365124B124A1B688262984204BF0123836100F01FF86060204600F01BF8A060204600F017F80421E06000226068FFF7A7FFA068C3
:4011800009210122FFF7A2FFE06812210222FFF79DFF0123A36110BD081C0000C1100000F8B51B4B07461E68B36913B93046FFF7C7FF4836B4687368013B04D4B4F90C509E
:4011C00075B16834F8E733682BB938460421FFF7A1FF306008B13668ECE70C233B60F8BD4FF6FF73E3810123A38165662560A560656025616561A56104F15C0029460822A4
:40120000FFF769FD6563A563A564E5642046F8BD081C00002DE9F8438046894600F14804002694B1A5686768013F0CD4AB89012B07D9B5F90E30013303D040462946C84730
:4012400006436835F0E72468EBE73046BDE8F883F0B58B8991B09D0706460C4625D4B1F90E10002908DAA389002513F0800F14BF40274FF480670DE001AA00F00BFC0028B7
:40128000F1DB029D4FF4806705F47045A5F500514D424D413046394600F06AF860B9A3899A051DD443F00203A38104F14703236023610123636113E00A4BB362A389206034
:4012C00043F08003A381206167614DB13046B4F90E1000F0F1FB18B1A38943F00103A38111B0F0BDC110000030B500293CD051F8042C0B1F1D49002AB8BF9B180A680C46E6
:4013000012B95A600B6030BD93420DD219685818904201BF5A5852181A60426823605A6030BD994203D80A4651680029F9D1146815199D420AD11B682344D018884213600A
:4013400012D10868034413604B680CE002D90C23036030BD1C681819884201BF08684968001918605960536030BD00BFB081FF1F70B5CC1C24F0030408340C2C38BF0C244C
:40138000002C064603DA0C233360002070BD8C42F9D3204A136810461946A1B10A68121B0ED40B2A03D90A608B188C501FE08B420BBF5A684A6802605A6018BF0B4616E084
:4013C0000B464968E9E7144D2B681BB9304600F0EBFA28603046214600F0E6FA421C0346D1D0C51C25F0030585420AD11C6003F10B001A1D20F00700821A0AD05142995030
:4014000070BD3046E91A00F0CFFA0130BBD02B46ECE770BDB081FF1FAC81FF1F936810B5013B002B936009DA9469A34202DBCBB20A2B03D1BDE81040FFF7D4BC1368581CDA
:4014400010601970C8B210BDF8B506460F461446D518AC4208D0304614F8011B3A46FFF7DDFF431CF5D100E00020F8BD2DE9F0439DB00D4690460393064618B183690BB9ED
:40148000FFF75EFE754B9D4201D1756808E0744B9D4201D1B56803E0724B9D4208BFF568AB891C070AD52B6943B10023099320238DF8293030238DF82A3041E0304629469E
:4014C000FFF7E4FC0028F0D04FF0FF30C2E0039A0134111D12680391002ABBBF524243F0020307920792B8BF049323782E2B7BD0DFF8808121784046032200F0FFFA38B133
:40150000049AC8EB00004023834013430493013421785548062204F101088DF8281000F0EDFA002800F08580504B002B78D1039B073323F0070308330393099B3B44099371
:4015400043461C4613F8012B1AB9B4EB08090ED002E0252AF5D1F8E73046294642464B46FFF772FF013070D0099B4B4409932378002B6AD000234FF0FF3204930793059212
:4015800006938DF853301A9304F101084446DFF8E89021784846052200F0B0FA08F10108049B30B1C9EB00000122824013430493ECE7D80644BF20228DF85320190744BF05
:4015C0002B228DF8532022782A2A80D0234607991C4622780133303A092A03D80A2000FB0121F5E7079180E763782A2B0AD1039B02341A1D1B680392002BB8BF4FF0FF3354
:40160000059375E7611C00220C4623780131303B092B03D80A2000FB0232F5E7059267E703AB0093304604A92A46114BAFF3008007E003AB0093304604A92A460C4B00F010
:4016400093F8421C07467FF478AFAB895B063FF53BAF09981DB0BDE8F08300BF0C1C00002C1C00004C1C0000761C00000000000049140000721C00006C1C00002DE9F84374
:4016800091461F468A680B6906469342B8BF1346C9F8003091F843200C46DDF8208012B10133C9F800302368990642BFD9F800300233C9F80030256815F006051CD094F8A4
:4016C00043302268003318BF012392061FD5E118302081F843005A1C94F845102244023382F8431013E03046394604F119020123C047013007D00135E368D9F800209B1A1D
:401700009D42F0DBDBE74FF0FF30BDE8F8833046394604F14302C0470130F4D02268D9F80050E36802F00602042A08BF5D1B2269A3680CBF25EAE57500259342C4BF9B1A2B
:40174000ED184FF00009A9450ADA3046394604F11A020123C0470130D5D009F10109F2E70020BDE8F88300002DE9FF410C461746227E98466E2A06460A9B01F1430100F0F4
:40178000B08012D8632A23D00AD8002A00F0BD80582A40F0CC8084F84520DFF804E257E0642A1ED0692A1CD0C1E0732A00F0B18009D86F2A2ED0702A40F0B980226842F0F2
:4017C000200222603FE0752A24D0782A3BD0AEE01A6804F14205111D1960136884F84230A9E020681A6810F0800F02D0101D186008E010F0400F02F10400186002D0B2F9CE
:40180000003000E01368002B3EDA2D225B4284F8432039E020681A6810F0800F02D0101D186007E010F0400F02F10400186001D0138800E01368227EDFF864E16F2A0CBF5A
:4018400008220A221CE07822DFF858E184F845202268186812F0800F00F104051D6003D1550601D5038800E00368D00744BF42F0200222601BB9226822F0200222601022A8
:40188000002084F8430002E0DFF814E10A226568002DA8BF2068A560A4BF20F00400206003B965B10D46B3FBF2F002FB10331EF8033005F8013D03460028F4D100E00D46A8
:4018C000082A0BD12368DA0708D5236962689A42DEBF302305F8013C05F1FF35491B21612EE025681A6815F0800F606903D0151D1D60136808E015F0400F02F104051D60F9
:40190000136801D0188000E01860002323610D4616E01A68111D1960156800212846626800F0ECF808B1401B6060636804E004F1420584F8422001232361002384F8433051
:40194000CDF800803046214603AA3B46FFF796FE013002D14FF0FF301FE0304639462A462369C0470130F5D023689B0705D4E068039B9842B8BF18460FE00025E368039A97
:401980009B1A9D42F3DA3046394604F119020123C0470130DED00135F0E704B0BDE8F0817D1C00008E1C000038B5064C0023054608462360FEF724FC431C02D1236803B199
:4019C0002B6038BDBC81FF1F10B50C46B1F90E1000F0A2F80028ABBF636DA3891B1823F48053ACBF6365A38110BD2DE9F0411D468B890746DB050C46164605D5B1F90E1099
:401A00000022022300F068F8A389384623F48053A381B4F90E1032462B46BDE8F04100F017B810B50C46B1F90E1000F055F8431CA38915BF606523F4805343F48053A381B6
:401A400018BFA38110BDB1F90E1000F013B8000038B5074C054600202060084611461A46FEF7BEFB431C02D1236803B12B6038BDBC81FF1F38B5064C002305460846236073
:401A800000F05CF8431C02D1236803B12B6038BDBC81FF1F38B5074C0023054608461146236000F053F8431C02D1236803B12B6038BD00BFBC81FF1F38B5064C00230546CD
:401AC0000846236000F04AF8431C02D1236803B12B6038BDBC81FF1F38B5074C054600202060084611461A4600F040F8431C02D1236803B12B6038BDBC81FF1F10B5C9B2B3
:401B000002449042034605D01C7801308C42F8D1184610BD002010BD38B5074C054600202060084611461A4600F028F8431C02D1236803B12B6038BDBC81FF1F024B5822A8
:401B40001A604FF0FF307047BC81FF1F024B58221A604FF0FF307047BC81FF1F024B58221A600020704700BFBC81FF1F024B58221A604FF0FF307047BC81FF1F024B5822F0
:401B80001A604FF0FF307047BC81FF1F0000000053746172740D000025642025642025642025640A00000000253364202533642C2025642C2025642C20253464202534645A
:401BC000202534640D0A0000C84900401900004F0040300040510040300000000140001000140140000800400140000A004C0140000200500140200060520040B80A004852
:401C000006000000430000002081FF1F000000000000000000000000000000000000000000000000000000000000000000000000000000000000000000000000000000009C
:401C40000000000000000000000000000000000000000000000000000000000000000000000000000000000000000000232D302B2000686C4C0065666745464700303132E2
:401C80003334353637383941424344454600303132333435363738396162636465660000F8B500BFF8BC08BC9E4670474D0000007D020000F8B500BFF8BC08BC9E467047E9
:401CC00029000000D81C00000881FF1F80000000380000000000000000000000C081FF1F0000E02EC05D00001800000000366E01000000000C1C00002C1C00004C1C000049
:401D000000000000000000000000000000000000041C0000000000000000000000000000000000000000000000000000000000000000000000000000000000000000000083
:401D4000000000000000000000000000000000002081FF1F0000000000000000000000000000000000000000000000000000000000000000000000000000000000000000A4
:401D80000000000000000000000000000000000000000000000000000000000000000000000000000000000000000000000000000000000000000000000000000000000023
:401DC00000000000000000000000000000000000000000000000000000000000000000000000000000000000000000000000000000000000000000000000000000000000E3
:401E000000000000000000000000000000000000000000000000000000000000000000000000000000000000000000000000000000000000000000000000000000000000A2
:401E40000000000000000000000000000000000000000000000000000000000000000000000000000000000000000000000000000000000000000000000000000000000062
:020000040003F7
:0200000480007A
:40000000084F00400552004003640040046500400402014001030140060501400E07014041080140510901404C0A0140420B0140510C0140390D01406D0E0140330F014066
:400040000D1501405B1601404A17014064180140581901404B1A01405A1B01400340014002410140134201400A4301400545014002460140014701401248014020490140F0
:40008000134C0140124D0140065001400251014001800A4E0D80164E1980229325802E4E082009200C601860192089728A388E0F270F280437088A0F39023F0159045F0162
:4000C00027808220838085019B80E208EA208B8091019920A002A102A220A580A802A902AD20B580E420EA05EE0200070A020E0212041407180219011E012A082B032C022E
:4001000030043208330135023603580459045C205F0181088210850C86018809898F8A068B308DFF8E10900F910395F3970C98069A099B739C049D8C9F53A380A402A502EF
:40014000A806A981AC07AD04AE08B007B1ECB30FB410B51CB608B880BB2ABE10D602D711D804D904DB04DC11DD10DF010080020803A005020602070409010B850C100D809D
:400180000E800F10100813481404154018041B821D811E9020402110220C234426102710282029802A212F083285332035043614380839203B81448046405920680269141B
:4001C000700C73097C087D0889808B088D018F10900293089424955496049732981099069A0E9B069C899D19A320A492A502A602A706AB14AE20AF40B420B520B60AC0DF20
:40020000C2FBC4C7CA2FCC2FCE0FD604E81001180306052207180A020B400D010E020F1E1101152A1710191C1B221D22213F240125322708280129042C012D063002311F5D
:400240003401356039023E015418580459045B045C015D105F01801182888308841086E0870888358A408B408C018E0E8F12910F938094019602973498249A519B119C64C3
:400280009E119F0FA475A50FA710AB0FAC75AF20B2F0B30FB570B60FB780BA88BB20BF04D804D904DF0100200302054607060E050F1010021114141015401B211D44222176
:4002C00026802714282029022A802B042D202F11308032213304345636A2370438503A013B043D403E173F045801600463027A207B1086018A018D028F01905292119308BE
:4003000094209540960497629A859CCE9D19A480A502A620A710B201C0F3C2E0C4A7CA7FCCFFCEFFD601D80CEA2001CC02080313040105A5074A0801091A0B600D020E025E
:40034000100D11FF143D16C21702180419041AE01C921E601F0120E2230426FF27B52840294D2A1D2B922C5D2DA92EA22F5432FF37FF3E043F40580459045F0181FF840E7E
:4003800085228630870589018D058F78910392019480950896569707982A99019A549C469D039EA9A0FFA110A307A501A840A9C0AA13AB07AC33AD3AAE0CAF04B180B37FC6
:4003C000B6FFB902BF04D804D904DF01022005190682074009020A050B200D020E050F2010041140124114041546165017011A011B401E1020502402280129082A102B40AA
:400400002C852D442E022F10300431123340348035183701382439023B423C043E853F2045204604920293089C4A9E40A120B484B701C0F4C2FFC4FBCAFFCCFFCEFF050C99
:40044000071109100C0A0D140E5410531120120C15091608171018801A151B031D1C1F0220202110230C2453260428032A14300F32C033203410351F362038083A023E5038
:400480003F044056410245E0460B470C481649FF4AFF4BFF4EF04F44500C5401580459045A045B045C115D115F0166C06A406B028001820487238B1C900191619206931692
:4004C0009561970E9A139C129D5C9E019F03A21BA801AA32AB08AE13B007B210B360B408B51AB620B70FB908BA02BBA0BE04BF04C002C640C9FFCA07CBFFCC40CD20CEF024
:40050000CF05D008D804D904DA04DC10DD01DF01E040E1A8E240E320030106400A900B040E4510081329144A180819061A921E451F042120220424042680271929022E20A9
:400540003125328035023681370838843A103C083E103F0440044710480449014A014F0450485630588059015A085B20C011C2DEC4DECA21CCDFCE6ED024D20CD60FAB9098
:40058000AF30B020B140B205B302B440E01CE2A0E632EA09EC01EE8400400208062008400A040E801250143C18011B011E601F012010222024FC270128022B013002330104
:4005C000340136FC38803E113F04580459045F01800181108403884F89148B088C408D148E148F08904891039202941F951098019B109C909E0BA040A103A20BA442A5209E
:40060000A609A901AA01AC03AD10AE20B01FB101B2E0B302B440B50EB730B828B9AABE14BF54C035C525C803C9FFCAFFCBFFCC42CDA0CE70D008D110D804D904DA04DF0100
:40064000E148E240E348E480E548E680E748004001340380052206100701080109020A2A0C100D020E200F01118112181301142015221620186019021B101D801F122002D1
:40068000212522012720280129052A202C082F2030223108330136203780384039114104480149014A1081048208841085288610872089108C388E10910599209B80A00212
:4006C000A102A220A580AD04C0FFC2FFC47FCA6FCC37CE0DD002D208E008E206E430E601EE020280040805020610070408030A100B010C0B0E101040122B1401160618305C
:400700001A031C791D021E041F0C2028225328022A012C082E2331083207330134F835063A0840654402450B47D0482149FF4A7F4BFF4C424DA04E70500C52F65804590409
:400740005A045B045F0161096240630964306509853E8601893E9102930C952896019712A501A914AB22B10EB201B530B701BA20BE04BF40C020C106C5D0C621C705C81EF3
:40078000C9FFCAFFCBFFCDA0CF04D018D804D904DA04DC11DD02DF01E040E2C0E440E540E6C0E8C0EAC0ECC0EEC00008022004020602072408080A210B020C100D010E2112
:4007C00014041540170119041B101E242140220123082408250426022A2431083201348039143D203E184008442045184708480449024C024E084F1852A0530855026C182E
:4008000074807518764080148402860C870188048D408E088F019042913492189308942095409606973298109A0E9B169C259D389E61A180A204A322A4D0A506A602A71C58
:40084000AE40B440B680C0F4C2F4C4D0CA06CC13CE66D024D234E240E442060C080C09010E0C11041501160C19011C0C1E011F062308240825012602280C2C042E12300C9B
:400880003102321033013508360337043E403F04406241034204440145EC480349FF4AFF4BFF4C624DA04EF04F41500C52805407580459045A045B045C215D215F016640EC
:4008C000670269106A306B106D106E106F12870394019C029F02AB01B001B402B501B702BE10D420D604D804D904DB04DC20DF010040021408080A020C8810021208130848
:4009000018211B011E041F012252231425102640282129012A042B112F083110328E368039203A103F04402943224580478048504A084D204F1059065A805B105E285F820E
:4009400064026748710180C08110874088028A648C108D108E0190409120920A930896209702980299069B1A9C019D209E21A008A180A294A33AA450A802A910B10BB33038
:40098000B480B540C007C2A5C407CA23CC1FCE44D00FD204D6FFD8B0E018E2A0E630E860EA89EE2030103780CC309C109F8018011A801E243E105F016341660482448321E7
:4009C00093409C109F80B340C6F0CE20D6C0D8C0E280E4806B208A049001920496109B209C109F80A210DA400C20A420B420C201EE088B10E004932006106740680272044A
:400A0000861087028A108C01900196109C109F80A210C020D880DA40DC20E45007020A4011021640668875087B0282408410864089088A0C8D018E8096049C109F02A3022B
:400A4000AA10AFC2B002C080C210C430D680D880DC80DE20E030E640EAD0EE4009800C02132814405A0267207B087F40860188028C089320C206C40ED602D801DE03E408B2
:400A8000E60110807408874088C08F0897809840A008A708AB20AF08B580C408DE04E008E201E601EA0800070C070E0310071A011C07000F03C000008280000043000000B7
:400AC00000010100000000008300408083008300000000000022220000000000600000006000600000000000008888000000000000787800600000000000000000000000E7
:400B000000000000000000000000000000000000000000000000000000000000000000000000000000000000000000000000000000000000000000000000000000000000B5
:400B40000000000000000000000000000000000000000000000000000000000000000000000000000000000000000000000000000000000000000000000000000000000075
:400B80000000000000000000000000000000000000000000000000000000000000000000000000000000000000000000000000000000000000000000000000000000000035
:400BC00000000000000000000000000000000000000000000000000000000000000000000000000000000000000000000000000000000000000000000000000000000000F5
:0200000490006A
:0400000000004005B7
:0200000490105A
:04000000BC90ACAF55
:0200000490303A
:02000000A3B6A5
:0200000490402A
:4000000000000000000000000000000000000000000000000000000000000000000000000000000000000000000000000000000000000000000000000000000000000000C0
:400040000000000000000000000000000000000000000000000000000000000000000000000000000000000000000000000000000000000000000000000000000000000080
:400080000000000000000000000000000000000000000000000000000000000000000000000000000000000000000000000000000000000000000000000000000000000040
:4000C0000000000000000000000000000000000000000000000000000000000000000000000000000000000000000000000000000000000000000000000000000000000000
:0200000490501A
:0C00000000012E16106900012E23B41F11
:00000001FF