:4000000000800020110000005D0100005D01000008B5044B1A6803F53F5302331A6000F0B7F800BFFA46004010B5054C237833B9044B13B10448AFF300800123237010BD0C
:400040008881FF1F00000000601B0000084B10B51BB108480849AFF300800848036803B910BD074B002BFBD0BDE81040184700BF00000000601B00008C81FF1F0881FF1F4B
:400080000000000008B50C4800F046FB62B600F061FA00F05FF8094800F086FE642000F093FA012000F0B0FA0A2000F0A3FA002000F0AAFAF2E700BFDD000000641B000074
:4000C00070B51646002405E04D1C087800F050FA01342946B442F7DB304670BD38B500F0A7FA00F0ADFA00F09BFA00BB00F0C0FA0546124C208000F0D3FB114900F0DCFC1C
:400100006060104900F01AFB0F4900F021FC0F4900F0D2FCA06000F06BFD02460C48294600F0CCFD4FF6FF7000F09CFA03E04FF6FF7000F097FA00F0C9FA38BDA481FF1FCD
:4001400000006842000030410000A040000040406C1B000008B500F0B9FA08BDFEE700BF08B5094B1A681044084BC31AB3F5007F02DC054B186005E000F060FD0C2303600C
:400180004FF0FF32104608BD0C81FF1FC081FF1F08B5104E104D16E029686B68AC68002204E051F8040B43F8040B0432A242F8D1E868002203E0002143F8041B043282426F
:4001C000F9D11035013E002EE6D100F03DFDFFF759FFFEE701000000B01C000008B5124A124B1A60124A136843F40073136000230AE0032B03D80F4A52F8231000E00E499B
:400200000E4A42F8231001332F2BF2D90C4B1A780C4B1A70094A0C4B1A6000F0C1F800220A4B1A6008BD00BF0004FA050CED00E014ED00E0000000005D0100000080FF1FDB
:40024000BC7600400481FF1F08ED00E00081FF1FFEE700BFF0B40022174611E050F82760F3B226F0FF0608E001EB420511F812406D78A5550132013BDBB2002BF4D1013735
:40028000242FEBD9F0BC7047064B1B78DBB203F00701054A11701B09013213704422034B1A707047CF0100496E5800407658004008B50A46002100F0F8FC08BD38B50E2298
:4002C0002B4B1A8018232B4A1370242102321180023213704D210232118002321370EF2102321180023213700222234B1A7008224FF040231A70032103F5007319701F4B90
:400300001B78DBB21E490B701E4B1A8041F25122023B1A80002419250CE01B4B1B7803F0010343EA440404F003044FF4F07000F03BF9013D0DB1032CEFD115B90320FFF7F4
:4003400087FF124B4FF480721A8007221A7000220F490A704820023108701A700222033B1A700C4A137843F00F03137038BD00BF8040004082400040004300400801004967
:40038000A146004022420040254200400440004006400040A243004008B500F07BFC08BD38B572B63D4A137843F00403137000240CE03B4963001A1952000A4423445B0043
:4003C000C8589188FFF774FF0134E4B2082CF0D9002410E03249A3001A1952000A4452F8380F23445B000B445168B3F84020FFF7D3FF0134E4B2022CECD94FF09040294921
:40040000FFF728FF284A137843F0020313701032137843F002031370244C237843F040032370A2F58632513A137843F0100313701F4820490822FFF7AFFF1F481F490A2284
:40044000FFF7AAFF1E481F490822FFF7A5FF1E481E490A22FFF7A0FF1D481E490822FFF79BFF1D481D490822FFF796FF1C4A137843F0080313701B4D61232B70FFF71EFF6B
:4004800081232B700122184B1A70FFF7FDFE174821460E22FFF780FF38BD00BFE8460040981B00009400004803500140A043004002510040580B0048C0510040600B0048E7
:4004C000F25100406C0B004810510040740B004822510040800B004832510040880B0048224300400048004004000840B04300407222084B1A70202203F203131A70062212
:40050000673B1A70472210331A700022AB3B1A70704700BF8864004010B500F04DF804460B4A137843F02003137002F20312137843F010031370A2F58172137843F0100370
:40054000137000F021F8204600F03AF810BD00BF9864004008B5054B1B7823B9FFF7C8FF0122024B1A70FFF7D7FF08BDB081FF1F034B1B7813F0040FFAD1024B187070473E
:400580006964004049640040054A137843F0040313701032137843F004031370704700BFA2430040000000000230800803D000BF01380046FCD17047EFF3108072B67047E5
:4005C00080F31088704700BF10B5044605E0084B1868FFF7E9FFA4F50044B4F5004FF6D8034B586800FB04F0FFF7DEFF10BD00BF1081FF1F08B5034B1B7A03FB00F0FFF7A3
:40060000D3FF08BD1081FF1F044A137803F07F03C001C0B203431370704700BF00510040024B187800F00100704700BF21510040704700BF014B1870704700BF8E6400403B
:40064000014B1878704700BF6E640040014B1880704700BF58680040014B188880B2704798680040014B1880704700BF18680040024B1B78024B188880B270470C64004027
:400680009868004008B501E0FFF7E6FFFFF7D8FF10F0080FF8D108BD08B545F61730FFF7D5FF45F61730FFF7DDFFFFF785FF064A137843F010031370FFF782FFFFF7E2FF46
:4006C0000220FFF7B7FF08BD9E64004008B5044B1B7823B9FFF7E0FF0122014B1A7008BDB281FF1F014B1B685864704708ED00E04001C0B2014B1870704700BF01E400E0ED
:400700000222014B1A60704700E100E00222014B1A60704780E100E010B50446FFF7F6FF2046FFF7DFFF0720FFF7E2FFFFF7E8FF10BD00BF80F0004002E000BF81F00041D7
:4007400042001FBF5FEA410392EA030F7FEA226C7FEA236C6AD04FEA1262D2EB1363C1BFD218414048404140B8BF5B42192B88BF704710F0004F40F4000020F07F4018BFC2
:40078000404211F0004F41F4000121F07F4118BF494292EA030F3FD0A2F1010241FA03FC10EB0C00C3F1200301FA03F100F0004302D5494260EB4000B0F5000F13D3B0F169
:4007C000807F06D340084FEA310102F10102FE2A51D2B1F1004F40EBC25008BF20F0010040EA03007047490040EB000010F4000FA2F10102EDD1B0FA80FCACF1080CB2EBF4
:400800000C0200FA0CF0AABF00EBC25052421843BCBFD0401843704792F0000F81F4000106BF80F400000132013BB5E74FEA41037FEA226C18BF7FEA236C21D092EA030FB5
:4008400004D092F0000F08BF0846704790EA010F1CBF0020704712F07F4F04D1400028BF40F00040704712F100723CBF00F50000704700F0004343F0FE4040F4000070476D
:400880007FEA226216BF08467FEA23630146420206BF5FEA412390EA010F40F4800070474FF0000304E000BF10F0004348BF40425FEA000C08BF704743F0964301464FF031
:4008C00000001CE050EA010208BF70474FF000030AE000BF50EA010208BF704711F0004302D5404261EB41015FEA010C02BF84460146002043F0B64308BFA3F18053A3F536
:400900000003BCFA8CF2083AA3EBC25310DB01FA02FC634400FA02FCC2F12002BCF1004F20FA02F243EB020008BF20F00100704702F1200201FA02FCC2F1200250EA4C0011
:4009400021FA02F243EB020008BF20EADC7070474FF0FF0C1CEAD0521EBF1CEAD15392EA0C0F93EA0C0F6FD01A4480EA010C400218BF5FEA41211ED04FF0006343EA5010C7
:4009800043EA5111A0FB01310CF00040B1F5000F3EBF490041EAD3715B0040EA010062F17F02FD2A1DD8B3F1004F40EBC25008BF20F00100704790F0000F0CF0004C08BF62
:4009C00049024CEA502040EA51207F3AC2BFD2F1FF0340EAC250704740F400004FF00003013A5DDC12F1190FDCBF00F000407047C2F10002410021FA02F1C2F1200200FA0F
:400A000002FC5FEA310040F1000053EA4C0308BF20EADC70704792F0000F00F0004C02BF400010F4000F013AF9D040EA0C0093F0000F01F0004C02BF490011F4000F013B69
:400A4000F9D041EA0C018FE70CEAD15392EA0C0F18BF93EA0C0F0AD030F0004C18BF31F0004CD8D180EA010000F00040704790F0000F17BF90F0004F084691F0000F91F0C7
:400A8000004F14D092EA0C0F01D142020FD193EA0C0F03D14B0218BF084608D180EA010000F0004040F0FE4040F40000704740F0FE4040F4400070474FF0FF0C1CEAD052C0
:400AC0001EBF1CEAD15392EA0C0F93EA0C0F69D0A2EB030280EA010C49024FEA402037D04FF0805343EA111143EA10130CF000408B4238BF5B0042F17D024FF4000C8B42B9
:400B000024BF5B1A40EA0C00B3EB510F24BFA3EB510340EA5C00B3EB910F24BFA3EB910340EA9C00B3EBD10F24BFA3EBD10340EADC001B0118BF5FEA1C1CE0D1FD2A3FF68B
:400B400050AF8B4240EBC25008BF20F0010070470CF0004C4CEA50207F32C2BFD2F1FF0340EAC250704740F400004FF00003013A37E792F0000F00F0004C02BF400010F464
:400B8000000F013AF9D040EA0C0093F0000F01F0004C02BF490011F4000F013BF9D041EA0C0195E70CEAD15392EA0C0F08D142027FF47DAF93EA0C0F7FF470AF084676E704
:400BC00093EA0C0F04D14B023FF44CAF08466EE730F0004C18BF31F0004CCAD130F000427FF45CAF31F000437FF43CAF5FE700BF4FEA4002B2F1FE4F0FD34FF09E03B3EBAD
:400C000012620DD94FEA002343F0004310F0004F23FA02F018BF404270474FF00000704712F1610F01D1420205D110F0004008BF6FF0004070474FF000007047014B1868A6
:400C4000704700BF8081FF1F0E4B70B51E460E4C0025E41AA410A54204D056F8253098470135F8E701F012F8084B094C1E46E41AA4100025A54204D056F825309847013529
:400C8000F8E770BD981C0000981C0000981C0000A01C000010B5431E0A44914204D011F8014B03F8014FF8E710BD03460244934202D003F8011BFAE7704700000FB40A4BEC
:400CC00013B51C6824B1A36913B9204600F022FA05AB2046A168049A019300F0B1FB02B0BDE8104004B070478081FF1F70B50E46054618B183690BB900F00CFAAC68A389F8
:400D0000190701D5236983B92846214600F0A8F858B14FF0FF3070BD002B0EDB236816F8012C1A70236801332360A36816F8012B013BA360002AEFD116E0A269934209DB1E
:400D4000236816F8012C1A70236819780A29EAD1284602E0284616F8011C224600F02CF8421C50425041D3E7002B15DAA269934208DB23680A221A702368197891420FD18C
:400D8000284601E028460A21224600F015F8431C5842584130B1BCE723680A221A702368013323600A2070BD024B01461868FFF79DBF00BF8081FF1F70B50D461446064694
:400DC00018B183690BB900F0A5F9224B9C4201D1746808E0204B9C4201D1B46803E01F4B9C4208BFF468A369A360A3891A0709D523693BB123682069EDB2181A6369984249
:400E00000FDB08E03046214600F02AF80028F1D04FF0FF3070BD3046214600F011F90028F6D1A3680130013BA36023685A1C22601D706369984204D0A389DB0707D50A2D81
:400E400005D13046214600F0FBF80028E0D1284670BD00BFF81B0000181C0000381C0000314B70B51D6806460C4625B1AB6913B9284600F04FF92D4B9C4201D16C6808E00A
:400E80002B4B9C4201D1AC6803E02A4B9C4208BFEC68A3899AB211071DD4D50602D40922326038E0500712D5616B41B104F14403994202D0304600F001FA00236363A38945
:400EC00023F02403A3810023636023692360A38943F00803A38123694BB9A38903F42073B3F5007F03D03046214600F09BF9A38913F0010205D00022A26062695242A261E3
:400F000003E0990758BF6269A26022694AB903F0800080B230B143F04003A3814FF0FF3070BD002070BD00BF8081FF1FF81B0000181C0000381C00008A892DE9F041054696
:400F400010070C4657D44B68002B02DC0B6C002B18DDE66AB6B102F48052002392B22F682B600AB1626D10E0216A28460123B047411C024609D12B683BB11D2B01D0162B9C
:400F800046D12F600020BDE8F081A3895B0705D56368D21A636B0BB1236CD21AE66A00232846216AB047461CA38905D12A681AB11D2A01D0162A19D1002262602269D9047F
:400FC000226004D5421C01D12B6803B96065616B2F600029D6D004F14403994202D0284600F06CF900206063BDE8F08143F04003A381BDE8F0810F69002FC3D093070E6889
:401000000CBF4B690023C7EB06080F608B6012E0A3894FF0FF3043F04003A381BDE8F0812846216A3A464346A66AB0470028EFDD0744C0EB0808B8F1000FF1DCA2E70000A7
:4010400038B50B6905460C46DBB118B183690BB900F060F80C4B9C4201D16C6808E00B4B9C4201D1AC6803E0094B9C4208BFEC68B4F90C302BB128462146BDE83840FFF76B
:401080005BBF002038BD00BFF81B0000181C0000381C0000014900F0A7B800BF4110000010B50446002303604360836081814366C28103614361836119465C300822FFF7FE
:4010C000F4FD054B24626362044BA362044BE362044B236310BD00BF9D190000BF190000F71900001B1A000070B568234D1E5D430E4605F1740100F025F9044640B1002164
:4011000080E842000C30A06005F16802FFF7CDFD204670BD836910B5044633BB8364C3640365124B124A1B688262984204BF0123836100F01FF86060204600F01BF8A060C2
:40114000204600F017F80421E06000226068FFF7A7FFA06809210122FFF7A2FFE06812210222FFF79DFF0123A36110BDF41B000095100000F8B51B4B07461E68B36913B98B
:401180003046FFF7C7FF4836B4687368013B04D4B4F90C5075B16834F8E733682BB938460421FFF7A1FF306008B13668ECE70C233B60F8BD4FF6FF73E3810123A3816566AB
:4011C0002560A560656025616561A56104F15C0029460822FFF769FD6563A563A564E5642046F8BDF41B00002DE9F8438046894600F14804002694B1A5686768013F0CD432
:40120000AB89012B07D9B5F90E30013303D040462946C84706436835F0E72468EBE73046BDE8F883F0B58B8991B09D0706460C4625D4B1F90E10002908DAA389002513F06A
:40124000800F14BF40274FF480670DE001AA00F00BFC0028F1DB029D4FF4806705F47045A5F500514D424D413046394600F06AF860B9A3899A051DD443F00203A38104F10C
:401280004703236023610123636113E00A4BB362A389206043F08003A381206167614DB13046B4F90E1000F0F1FB18B1A38943F00103A38111B0F0BD9510000030B500293D
:4012C0003CD051F8042C0B1F1D49002AB8BF9B180A680C4612B95A600B6030BD93420DD219685818904201BF5A5852181A60426823605A6030BD994203D80A46516800295B
:40130000F9D1146815199D420AD11B682344D0188842136012D10868034413604B680CE002D90C23036030BD1C681819884201BF08684968001918605960536030BD00BF61
:40134000B881FF1F70B5CC1C24F0030408340C2C38BF0C24002C064603DA0C233360002070BD8C42F9D3204A136810461946A1B10A68121B0ED40B2A03D90A608B188C50EE
:401380001FE08B420BBF5A684A6802605A6018BF0B4616E00B464968E9E7144D2B681BB9304600F0EBFA28603046214600F0E6FA421C0346D1D0C51C25F0030585420AD1E7
:4013C0001C6003F10B001A1D20F00700821A0AD05142995070BD3046E91A00F0CFFA0130BBD02B46ECE770BDB881FF1FB481FF1F936810B5013B002B936009DA9469A3421D
:4014000002DBCBB20A2B03D1BDE81040FFF7D4BC1368581C10601970C8B210BDF8B506460F461446D518AC4208D0304614F8011B3A46FFF7DDFF431CF5D100E00020F8BD7A
:401440002DE9F0439DB00D4690460393064618B183690BB9FFF75EFE754B9D4201D1756808E0744B9D4201D1B56803E0724B9D4208BFF568AB891C070AD52B6943B10023B9
:40148000099320238DF8293030238DF82A3041E030462946FFF7E4FC0028F0D04FF0FF30C2E0039A0134111D12680391002ABBBF524243F0020307920792B8BF0493237810
:4014C0002E2B7BD0DFF8808121784046032200F0FFFA38B1049AC8EB00004023834013430493013421785548062204F101088DF8281000F0EDFA002800F08580504B002BEE
:4015000078D1039B073323F0070308330393099B3B44099343461C4613F8012B1AB9B4EB08090ED002E0252AF5D1F8E73046294642464B46FFF772FF013070D0099B4B447B
:4015400009932378002B6AD000234FF0FF3204930793059206938DF853301A9304F101084446DFF8E89021784846052200F0B0FA08F10108049B30B1C9EB0000012282404C
:4015800013430493ECE7D80644BF20228DF85320190744BF2B228DF8532022782A2A80D0234607991C4622780133303A092A03D80A2000FB0121F5E7079180E763782A2BA7
:4015C0000AD1039B02341A1D1B680392002BB8BF4FF0FF33059375E7611C00220C4623780131303B092B03D80A2000FB0232F5E7059267E703AB0093304604A92A46114B64
:40160000AFF3008007E003AB0093304604A92A460C4B00F093F8421C07467FF478AFAB895B063FF53BAF09981DB0BDE8F08300BFF81B0000181C0000381C0000621C0000A5
:40164000000000001D1400005E1C0000581C00002DE9F84391461F468A680B6906469342B8BF1346C9F8003091F843200C46DDF8208012B10133C9F800302368990642BFB0
:40168000D9F800300233C9F80030256815F006051CD094F843302268003318BF012392061FD5E118302081F843005A1C94F845102244023382F8431013E03046394604F196
:4016C00019020123C047013007D00135E368D9F800209B1A9D42F0DBDBE74FF0FF30BDE8F8833046394604F14302C0470130F4D02268D9F80050E36802F00602042A08BF6B
:401700005D1B2269A3680CBF25EAE57500259342C4BF9B1AED184FF00009A9450ADA3046394604F11A020123C0470130D5D009F10109F2E70020BDE8F88300002DE9FF419C
:401740000C461746227E98466E2A06460A9B01F1430100F0B08012D8632A23D00AD8002A00F0BD80582A40F0CC8084F84520DFF804E257E0642A1ED0692A1CD0C1E0732AAE
:4017800000F0B18009D86F2A2ED0702A40F0B980226842F0200222603FE0752A24D0782A3BD0AEE01A6804F14205111D1960136884F84230A9E020681A6810F0800F02D07E
:4017C000101D186008E010F0400F02F10400186002D0B2F9003000E01368002B3EDA2D225B4284F8432039E020681A6810F0800F02D0101D186007E010F0400F02F1040032
:40180000186001D0138800E01368227EDFF864E16F2A0CBF08220A221CE07822DFF858E184F845202268186812F0800F00F104051D6003D1550601D5038800E00368D007A8
:4018400044BF42F0200222601BB9226822F0200222601022002084F8430002E0DFF814E10A226568002DA8BF2068A560A4BF20F00400206003B965B10D46B3FBF2F002FBF9
:4018800010331EF8033005F8013D03460028F4D100E00D46082A0BD12368DA0708D5236962689A42DEBF302305F8013C05F1FF35491B21612EE025681A6815F0800F6069BB
:4018C00003D0151D1D60136808E015F0400F02F104051D60136801D0188000E01860002323610D4616E01A68111D1960156800212846626800F0ECF808B1401B6060636898
:4019000004E004F1420584F8422001232361002384F84330CDF800803046214603AA3B46FFF796FE013002D14FF0FF301FE0304639462A462369C0470130F5D023689B0789
:4019400005D4E068039B9842B8BF18460FE00025E368039A9B1A9D42F3DA3046394604F119020123C0470130DED00135F0E704B0BDE8F081691C00007A1C000038B5064C5C
:401980000023054608462360FEF7EAFB431C02D1236803B12B6038BDBC81FF1F10B50C46B1F90E1000F0A2F80028ABBF636DA3891B1823F48053ACBF6365A38110BD2DE974
:4019C000F0411D468B890746DB050C46164605D5B1F90E100022022300F068F8A389384623F48053A381B4F90E1032462B46BDE8F04100F017B810B50C46B1F90E1000F05B
:401A000055F8431CA38915BF606523F4805343F48053A38118BFA38110BDB1F90E1000F013B8000038B5074C054600202060084611461A46FEF744FB431C02D1236803B1FD
:401A40002B6038BDBC81FF1F38B5064C002305460846236000F05CF8431C02D1236803B12B6038BDBC81FF1F38B5074C0023054608461146236000F053F8431C02D12368AF
:401A800003B12B6038BD00BFBC81FF1F38B5064C002305460846236000F04AF8431C02D1236803B12B6038BDBC81FF1F38B5074C054600202060084611461A4600F040F884
:401AC000431C02D1236803B12B6038BDBC81FF1F10B5C9B202449042034605D01C7801308C42F8D1184610BD002010BD38B5074C054600202060084611461A4600F028F870
:401B0000431C02D1236803B12B6038BDBC81FF1F024B58221A604FF0FF307047BC81FF1F024B58221A604FF0FF307047BC81FF1F024B58221A600020704700BFBC81FF1FA5
:401B4000024B58221A604FF0FF307047BC81FF1F024B58221A604FF0FF307047BC81FF1F0000000053746172740D000069203D202536642C2064697374616E6365203D200F
:401B8000253464202020202020202020202020202020200D0A000000C84900401900405100403000000001400004800401408007800C014080030014014000080040014027
:401BC000000A004C01400002005001402000000060520040500A0048060000040140580A00488000000C0140D80A004880000000430000002081FF1F000000000000000099
:401C000000000000000000000000000000000000000000000000000000000000000000000000000000000000000000000000000000000000000000000000000000000000A4
:401C4000000000000000000000000000000000000000000000000000232D302B2000686C4C00656667454647003031323334353637383941424344454600303132333435A4
:401C8000363738396162636465660000F8B500BFF8BC08BC9E4670474D000000DD010000F8B500BFF8BC08BC9E46704729000000C01C00000881FF1F800000003800000064
:401CC00000000000C081FF1F0000E02EC05D00001800000000366E0100000000F81B0000181C0000381C000000000000000000000000000000000000F01B000000000000F7
:401D000000000000000000000000000000000000000000000000000000000000000000000000000000000000000000000000000000000000000000002081FF1F00000000E4
:401D40000000000000000000000000000000000000000000000000000000000000000000000000000000000000000000000000000000000000000000000000000000000063
:401D80000000000000000000000000000000000000000000000000000000000000000000000000000000000000000000000000000000000000000000000000000000000023
:401DC00000000000000000000000000000000000000000000000000000000000000000000000000000000000000000000000000000000000000000000000000000000000E3
:401E000000000000000000000000000000000000000000000000000000000000000000000000000000000000000000000000000000000000000000000000000000000000A2
:020000040003F7
:0200000480007A
:4000000005520040066400400265004001010140050301400D04014042050140140701404B080140510901404F0A01404B0B01402E0C0140410D01404E0E0140350F01408A
:400040005C140140451501400C17014048180140431901405B1A0140521B014005400140014101400542014001430140024401400545014001460140014701400548014067
:4000800015490140114C0140114D01400750014002510140084009600C6018601920240F2F0434088872890F8E0F850F8B38E6019880A101A901AC80EE03850189019D012C
:4000C000A702A901AD01B502B701B980BF40D904DC30DF01000801020201030809510B2010A013601920201821202580270429822A082B082D802F283128328036403890EF
:4001000039043C083D204101420249045208588259085A20604461806810691070B0736080408104854886088A488B108C508D108E02910498809902A101A902AD04C00F6B
:40014000C20FC40FCA7FCC1ECE6ED009D60FD80DE008E202E401EE069404962099029B04A720A9A0AA01AC10AD09AF20B080B110B308B412B520B680E80AEA04EC01EE0A5E
:400180000407052007040B400C010D080E020F101120130217281B011C021E011F3027102807297E2C042D1E340435013603377E398056025711580459045B045C025D20EB
:4001C0005F0189018A038C308E0C90109409961098149C1C9E22A620A82CAA11AE20B020B21FB301BE01BF04C045C106C5ECC6E0C70BC81BC9FFCAFFCBFFCEF0CF44D00C51
:40020000D401D804D904DA04DB04DC02DD22DF01E6C0EA40EB02004002040308040806020AA20B080E0110121228154017101A401B081C081E012204251027012C202D80B2
:400240002E103442352838203C203D043F40404046014740480249014A2850105304581059015A485E206C046D506E086F10760977208884910492109340940497109846A1
:4002800099889D209F01A030A602A944AA10AB10AC80AE05AF04B020B101B201B411B708C0A3C28FC4C7CA70CCF0CE74D001D20CD62FE880EA60ECC00201041D0B020C02D3
:4002C0000D080F05101D1404150F1620180419011A381B041C191D011E041F0221012302240D2610271029062C092D052E142F0A311F343C360338803A203E4058045904C1
:400300005F0182088302840F8501889089E28E0F8FFF900F91019540960F971D98209A419B089C809D929F60A10DA208A53DA604A7C2A820A95DAA42ABA2AC90AD04AFE0D8
:40034000B080B20FB410B670B7FFB8A2BE54BF40D804D904DF0101040202039004040688078108420A180C100D400E480F58138814441512160217181A0A1CA01E621F209C
:4003800023802402284029042A802B042C102D102E802F803398344135093620370838203B403D013E513F0479407A01820884408580861288128C208D018FA091029210E3
:4003C00095C1964097049B109C319D209F08A224A388A4A0A801AA10AE40C0FDC2FFC4F5CAFFCCFECEFCE260E440E610814683A98D808F56914093139533970C9802992AC0
:400400009B549F01A50EA730A801A9FFB1FFB202B401BE10C026C205C5ECC620C80BC9FFCAFFCBFFCD83CE03CF01D018D804D904DA04DD01DF01E040E240E440E540E680DA
:40044000E880EA80EC80EE800442051808200CC10E200F14100815021602171818081A301B281D4221012648271128102B082C222D082E022F8830223208338034513510FF
:400480003608384039023B013C403E403F154320452049854B204C044D8051205310880A8B0895C19610970199809D6D9F19A234A380A408A522AA20AF40C0F0C2F2C4F2FC
:4004C000CAF6CCFFCEF9D024D23C09030A040E0D0F0115011A081B02280D29012A0230023208340C3501360137023A283E403F4054035604580459045B045C115D105F01CF
:400500008001830284228618881C8A228B048E408F0190019107921E94069702980499029C329E08A022A42AA502A610A818A907AA06AC3FB460B504B61FB703B880C045EC
:40054000C406C6BDC80CC9FFCA7FCBFFCC42CDA0CE70D00CD804D904DA04DF01E109E240E309E430E50900400308040105580A080C200D020E200F01100811101581171843
:40058000184019801A081B081C011D101E081F102250255026302B082E102F10312032043719384039103DA03F4147014D605420578059055AA0608080808C01C0F3C2F218
:4005C000C4F2CA64CCE6CEBCD080D230D60FD801000102040A030B020E030F011001120616101B021C021E012302240126222A0B2B022D022E103007310132083302341063
:4006000036203A023E103F044001450449FF4A074BFF4C404D204EF04F0550085280580459045A045B045C305D325F01604061A862406320800183029204930196029E054B
:40064000A402A701B001B102B202B404B701C050C103C5D0C650C712C83AC9FFCAFFCBFFCDA0CF04D018D407D804D904DA04DB04DC33DD33DF01E040E2C0E440E540E6C0C6
:40068000E8C0EAC0ECC0EEC0010202010308074009040A410D010F22102011101202170419401A451B081EA01F10210522022540274029402A012B082F2030203602380467
:4006C00039183A203B403F024002450449044D014E025040550457315D015EA4734080408710880289408D04940499029A219B04A020A720AA01AE20C01BC2BDC427CA4D75
:40070000CC84CE8CD048D210D6F0E001E630E810EA0D85028E109404962099029B04A020A720A820E201E409EA010008034004330508060C080C0A330B040C010F23100F53
:4007400012301340153C1702183F19181C021D10200321042404253F280C29272B182D1C2E232F21302C3138320F331F3540361038803A2A3B083F10580459045C225F01CA
:400780008002820C840687018C048E12910292069304960698029A08A006A502A606A70CA801AE06B00EB106B201B301B410B508BA02BE04D804D904DF010080010A042021
:4007C00005040622074408060B080D020E0510601204134015441640172019221B041D061E061F212004220223102420251528202E222F2133013601376438043C203D449A
:400800003E483F024080424087058D02911092019340944496A2971098C699089A0C9B619D209E02A020A224A402A61AA910C0FDC2DEC4FFCAF2CCF1CEF2E002E241E401F0
:4008400007080C730D010E0C0F16111C130315011608170E1B1C1C2A1E442403260428732A042C802E152F03300F310F32C0331A343038283A023B0A3E10580459045C225F
:400880005F0180C1820E830284C085018AC08EC08F0294C0950198079C849E11A2C0A501A807AC42AD01AE31B007B220B4C0B501B618B702BE40BF50C025C106C204C40187
:4008C000C5E0C60CC806C9FFCAFFCBFFCC62CDA0CEF0CF41D00CD418D804D904DA04DB04DC02DD22DF01E640E702E910EA30EB10ED10EE10EF120040058506480A220E0980
:400900000F201003122A148015101602184019201A201C201D9122092610270128012D802F2132193404350438483D0A3E083F8042804301440445814F6257405C805D02E5
:400940005F40668067087B307D207F048112820289208A028C048E408F04911092019302944096A2988099049E42A115A224A324A412A618A701A804AF10B060C0F1C2E5DF
:40098000C4D7CA58CC47CEDAD0B0D230D680D830E010E220E610E810EA01338035208120CC30E680A7803E108380A780CE20E62096108D02E40802108A10A102C008E60454
:4009C000A102A102800881019610E280E48011021480641066807008772084108A808F209C80A008A501AA10B480C430D680D880DC80DE20E640EA8008400C011020132042
:400A00001704610266107B087C10802083088610A102C206C40ED803DE0310407C4088408C408F049B04AB20B041B410C408DE04E002E201E608E808EA01EE04000F0A0957
:400A40000C050E03100D1A0D1C05000F03C000008280000043000000FF0000004D019202CC01130EA9045401020000001A006010A5054A300000B54000010428040500101C
:400A800000040201000501100000000FFF7000000000002800001000140000000002000511FFFFFF42A070000810F600200004000404040400000001004840488048804845
:400AC000000000000000000000000000000000000000000000000000FF40000B2201050005037800C090070B0101000003400014014F000001000001100307200842070963
:400B00003A1F0400034800028000001F00007FE00280000000004040620005000000000000FFFFFF0000000118000000000000000404040000010001400040004040800000
:400B400080008000800080000000000000000000000000000000000000818100000000008300408083008300000000000020200000000000600000006000600000000000CA
:400B80000100000000000000006060006000000000000000000000000000000000000000000000000000000000000000000000000000000000000000000000000000000014
:400BC00000000000000000000000000000000000000000000000000000000000000000000000000000000000000000000000000000000000000000000000000000000000F5
:400C000000000000000000000000000000000000000000000000000000000000000000000000000000000000000000000000000000000000000000000000000000000000B4
:400C40000000000000000000000000000000000000000000000000000000000000000000000000000000000000000000000000000000000000000000000000000000000074
:400C80000000000000000000000000000000000000000000000000000000000000000000000000000000000000000000000000000000000000000000000000000000000034
:0200000490006A
:0400000000004005B7
:0200000490105A
:04000000BC90ACAF55
:0200000490303A
:02000000FCC240
:0200000490402A
:4000000000000000000000000000000000000000000000000000000000000000000000000000000000000000000000000000000000000000000000000000000000000000C0
:400040000000000000000000000000000000000000000000000000000000000000000000000000000000000000000000000000000000000000000000000000000000000080
:400080000000000000000000000000000000000000000000000000000000000000000000000000000000000000000000000000000000000000000000000000000000000040
:4000C0000000000000000000000000000000000000000000000000000000000000000000000000000000000000000000000000000000000000000000000000000000000000
:0200000490501A
:0C00000000012E16106900012E240D2BAB
:00000001FF