:400000000080002011000000BD030000BD03000008B5044B1A6803F53F5302331A6000F0E7F900BFFA46004010B5054C237833B9044B13B10448AFF300800123237010BD17
:400040008881FF1F0000000028230000084B10B51BB108480849AFF300800848036803B910BD074B002BFBD0BDE81040184700BF00000000282300008C81FF1F0881FF1FAB
:400080000000000010B562B600F0C6FE3D4801F06FFA3D4800F060FF00F086F900F086F800F088F800F0A4F800F0DEF8044600F0E1F802463548214601F0E4F900F0D4F894
:4000C00081280EDC00F0D0F87D280ADD00F0D2F87C2806DC00F0CEF8782802DD00F0D4F8E0E700F0C1F88B2815DC00F0BDF8812811DD00F0BFF87B280DDD00F0C1F800F0DB
:40010000B9F87B3800EBD070C0F347004FF4FA6100F0BEF8C6E700F0A7F87F2816DC00F0A9F87B2812DD00F0ABF800F0A3F87B3800EBD070441000F097F8C0F18001E0B267
:40014000C9B24FF4FA6200F0ABF8ABE700F08CF88028A7DD00F08EF87B28A3DD00F090F800F082F8044600F085F87B3800EBD071A4F18000C0B2C1F347014FF4FA6200F07D
:400180008FF88FE72C230000B10200003423000070B51646002405E04D1C087800F04AFE01342946B442F7DB304670BD08B500F08DFB08BD10B582B040238DF804300024FE
:4001C0008DF8054000F0E6FD642000F05FFE522001A90222234600F0F3FC00F0BFFD10F0020FFAD0642000F051FE02B010BD00BF30B583B0002502AC04F8085D00F0CAFD7E
:400200005220214601222B4600F0DAFC00F0A6FD10F0020FFAD0322000F038FE00F0BAFD522069460622002300F030FD00F096FD10F0010FFAD0002209E002AB991811F8A6
:40024000083C83F01703173301F8083C0132052AF3DD9DF80020034B1A609DF801205A6003B030BDBC81FF1F014B1868704700BFBC81FF1F014B5868704700BFBC81FF1F92
:4002800008B500F0CFFA08BD08B500F063FA08BD10B5044600F072FA204600F075FA10BD10B50C4600F06AFA204600F06DFA10BDF8B500F085FF044600F008FF074600F0A3
:4002C0008BFE064601F026F8054614F0400F09D000F07CFF044600F085FF201A80B2314B988003E000F072FF2E4B988017F0400F09D000F0F1FE044600F0FAFE201A80B2F9
:40030000284BD88003E000F0E7FE264BD88016F0400F09D000F066FE044600F06FFE201A80B2204B188003E000F05CFE1D4B188015F0400F09D000F0F3FF044600F0FCFF68
:40034000201A80B2174B588003E000F0E9FF154B58800C2000F0A0FF012000F091FF0C2000F0B2FF012000F0A3FF0C2000F00EFE012000F0FFFD0C2001F038F8012001F074
:4003800029F80A2000F098FD022000F085FF022000F09AFF022000F0F9FD022001F026F8F8BD00BFC481FF1F08B500F05BFF00F0DFFE00F063FE00F0FFFF08BDFEE700BFA0
:4003C00008B5094B1A681044084BC31AB3F5007F02DC054B186005E001F014F80C2303604FF0FF32104608BD0C81FF1FE881FF1F08B5104E104D16E029686B68AC680022E0
:4004000004E051F8040B43F8040B0432A242F8D1E868002203E0002143F8041B04328242F9D11035013E002EE6D100F0F1FFFFF729FEFEE7010000004024000008B5124AF6
:40044000124B1A60124A136843F40073136000230AE0032B03D80F4A52F8231000E00E490E4A42F8231001332F2BF2D90C4B1A780C4B1A70094A0C4B1A6000F0C1F80022B7
:400480000A4B1A6008BD00BF0004FA050CED00E014ED00E000000000BD0300000080FF1FBC7600400481FF1F08ED00E00081FF1FFEE700BFF0B40022174611E050F82760BE
:4004C000F3B226F0FF0608E001EB420511F812406D78A5550132013BDBB2002BF4D10137252FEBD9F0BC7047064B1B78DBB203F00701054A11701B09013213704422034B7E
:400500001A707047CF0100496E5800407658004008B50A46002100F0ACFF08BD38B50E222B4B1A8018232B4A1370242102321180023213704D210232118002321370EF21A4
:4005400002321180023213700222234B1A7008224FF040231A70032103F5007319701F4B1B78DBB21E490B701E4B1A8041F25122023B1A80002419250CE01B4B1B7803F04F
:40058000010343EA440404F003044FF4F07000F06BFC013D0DB1032CEFD115B90320FFF787FF124B4FF480721A8007221A7000220F490A704820023108701A700222033BA3
:4005C0001A700C4A137843F00F03137038BD00BF80400040824000400043004008010049A146004022420040254200400440004006400040A243004008B500F02FFF08BDFC
:4006000038B572B63A4A137843F00403137000240CE0384963001A1952000A4423445B00C8589188FFF774FF0134E4B2082CF0D900240BE02F49A3001A1952000A44906BEE
:40064000D16B8022FFF7D8FF0134E4B2002CF1D04FF090402849FFF72DFF284A137843F0020313701032137843F002031370244C237843F040032370A2F58632513A1378BC
:4006800043F0100313701F481F490822FFF7B4FF1E481F490A22FFF7AFFF1E481E490822FFF7AAFF1D481E490A22FFF7A5FF1D481D490822FFF7A0FF1C481D490822FFF795
:4006C0009BFF1C4A137843F0080313701A4D61232B70FFF723FF81232B700122174B1A70FFF702FF164821460E22FFF785FF38BDE84600403C230000980000480350014026
:40070000A043004002510040140C0048C05100401C0C0048F2510040280C004810510040300C0048225100403C0C004832510040440C00482243004000480040040008409F
:40074000B0430040024A137843F08003137070477B640040024A137803F07F03137070477B640040014B1870704700BF05650040014B1870704700BF45650040014B1870BF
:40078000704700BF25650040014B1870704700BF35650040014B1870704700BF85650040014B1878704700BF65650040014B1878704700BF5565004008B501E0FFF7F6FF30
:4007C000FFF7EEFF10F0100FF8D108BD10B5134A137803F0C00343F009031370104C237843F001032370FF20FFF7BCFFFF20FFF7BFFF2820FFF7C2FF2820FFF7C5FF0020BF
:40080000FFF7C8FF00F038FB237843F01003237000F036FBFFF7D0FF10BD00BF7B6400409565004008B5054B1B7823B9FFF7CEFF0122024B1A70FFF785FF08BDA481FF1FDE
:4008400038B50222114B1A7081220E3B1A70082202331A700F2511331D70002401331C704FF400420A4B1A602846072100F042FB2846084900F02AFB1022074B1A70074BEE
:400880001C70074B1C70074B1C7038BDD649004080E100E0F5080000CC81FF1FD281FF1FDA81FF1FD081FF1F08B500F0E5FA064A137843F0040313701032137843F004036F
:4008C000137000F0DDFA08BDA543004008B5074B1B7823B9FFF7B4FF0122044B1A70FFF7E3FF4FF40042024B1A6008BDA581FF1F00E100E038B5A44B1C78E4B2A34B1B7829
:4009000013F0400F00F0378114F0010F00F01B819E4B1B78453B052B00F21281DFE813F006008200100110010600DE0004F0DF0504F00A04082C42D1944B1B78DBB2452B84
:4009400035D1934B1B7813F0FF0F10D0914B1B681B78DBB2904A137004228B4B1A7001228E4B1A704622894B1A702C46EBE08C4B1B7813F0020F0DD08A4A137843F00A032A
:4009800013706022814B1A704FF40042864B1A602C46D8E0854A137843F0100313701022834B1A700422023B1A702C46CBE00022754B1A704A22754B1A702C46C3E00A2CBE
:4009C0002BD1784A137843F0A0031370744B1B7813F0020F14D06D4B1B7813F0080F01D0092300E00A236F4A11780B4313706022664B1A704FF400426B4B1A602C46A2E023
:400A00006A4A137843F0100313701022684B1A700422023B1A702C4695E0002000F034FA2C4690E014F0020F35D15C4B1B78584A1278DBB2934210D2584A1378DBB255492E
:400A40000968CB5CDBB254490B7004214E4B197013780133DBB2137075E0514B1B7813F0020F0CD04F4A137843F00A0313706022464B1A704FF400424B4B1A6063E04B4ABE
:400A8000137843F0100313701022494B1A700422023B1A7057E0424B1B7813F0020F0CD0404A137843F09A0313706022374B1A704FF400423C4B1A6045E03C4A137843F079
:400AC0001003137010223A4B1A700422023B1A70344A137843F09003137034E0354A1378DBB2354908682C490978C9B2C15413780133DBB213701378304A1278DBB2934201
:400B000003D21022204B1A701DE0254B1B7813F0020F0CD0234A137843F00903137060221A4B1A704FF400421F4B1A600BE01F4A137843F0100313700022134B1A7002E0A1
:400B4000002000F0A1F914F0200F1CD00F4B1B7813F0080F01D0012300E00223114A11780B431370114A137803F0EF0313701022064B1A7038BD054B1B7813F0100F02D1CE
:400B80001022024B1A7038BDD7490040CC81FF1FD181FF1FDC81FF1FD8490040D081FF1FD881FF1FD281FF1F80E100E0D6490040D9490040DA81FF1FD481FF1FD981FF1F63
:400BC000002948D070B40C4626490978C9B2102906D12549097811F0080F11D1002112E020490978C9B260290CD14FF400451F490D601F4D297801F0F7012970002102E00D
:400C0000012100E0022149BB4526164D2E700026184D2E70184D2A70184A1460184A1370134C227802F0FD0222704200D2B21548027013F0010F06D012220B4B1A70042208
:400C4000023B1A7002E00122074B1A704FF400420D4B1A6002E0022108467047084670BC704700BFCC81FF1FD949004080E200E0D281FF1FD081FF1FD181FF1FDC81FF1FA1
:400C8000D881FF1FD849004000E100E000294AD070B40C4627490978C9B2102906D12649097811F0080F11D1002112E021490978C9B260290CD14FF4004520490D60204DD2
:400CC000297801F0F7012970002102E0012100E0022159BB4926174D2E700026194D2E70194D2A70194A1460194A1370144C227802F0FE0222704200D2B242F00102154867
:400D0000027013F0010F06D012220B4B1A700422023B1A7002E00122074B1A704FF400420D4B1A6002E0022108467047084670BC704700BFCC81FF1FD949004080E200E016
:400D4000D281FF1FDA81FF1FD981FF1FD481FF1FD881FF1FD849004000E100E04FF40042084B1A60084B1878C0B2084B1B7813F0400F01D040F004004FF40042044B1A60D3
:400D8000704700BF80E100E0D281FF1FCC81FF1F00E100E04FF40043044A1360044A107800211170034A1360704700BF80E100E0D281FF1F00E100E07222084B1A702022C4
:400DC00003F580731A700622A3F25B131A70472210331A70002251331A7070478964004010B500F049F804460A4A137843F02003137002F58072137843F010031370FA3A16
:400E0000137843F01003137000F020F8204600F037F810BD9964004008B5054B1B7823B9FFF7CAFF0122024B1A70FFF7D9FF08BDA681FF1F034B1B7813F0040FFAD1024BAB
:400E4000187070476F6400404F640040054A137843F0040313701032137843F004031370704700BFA24300400230800803D000BF01380046FCD17047EFF3108072B67047D1
:400E800080F31088704700BF01BE704710B5044605E0084B1868FFF7E7FFA4F50044B4F5004FF6D8034B586800FB04F0FFF7DCFF10BD00BF1081FF1F08B5034B1B7A03FB4E
:400EC00000F0FFF7D1FF08BD1081FF1F70B504460E46074B1D681F2802D90020FFF7D4FF04F01F04103455F8240045F8246070BD08ED00E038B504460D46072902D90020DF
:400F0000FFF7C2FF1F2C02D90020FFF7BDFF04F01F0000F1604000F564406D01EDB2057038BD00BF014B1B685864704708ED00E04001C0B2014B1870704700BF01E400E0B6
:400F40000222014B1A60704700E100E00222014B1A60704780E100E010B50446FFF7F6FF2046FFF7DFFF0720FFF7E2FFFFF7E8FF10BD00BF044A137803F0DF03400100F0B3
:400F80002000184310707047F0510040044A137803F0F10300F00E0018431070704700BF7D500040084A137843F0010313701032137843F00103137002F64D32137843F08F
:400FC00001031370704700BFA3430040014B1870704700BF034F0040014B1878704700BF034F0040014B188880B27047044F0040014B1880704700BF044F0040014B1888CD
:4010000080B27047084F0040014B1880704700BF064F004008B5164A137803F0010313700232137803F0FC031370124B1A7802F0CF021A701A7842F030021A701A7802F0AB
:40104000F0021A701A7842F00F021A700A4A137843F00103137045F6BF50FFF7C9FF45F6BF50FFF7D1FF0820FFF7B0FF08BD00BF004F00400B4F0040014F004008B5054BCD
:401080001B7823B9FFF7C6FF0122024B1A70FFF789FF08BDA881FF1F084A137843F0080313701032137843F00803137002F67132137843F001031370704700BFA3430040DA
:4010C000014B1870704700BF274F0040014B1878704700BF274F0040014B188880B27047284F0040014B1880704700BF284F0040014B188880B270472C4F0040014B1880D7
:40110000704700BF2A4F004008B5164A137803F0010313700232137803F0FC031370124B1A7802F0CF021A701A7842F030021A701A7802F0F0021A701A7842F00F021A700F
:401140000A4A137843F00103137045F6BF50FFF7C9FF45F6BF50FFF7D1FF0820FFF7B0FF08BD00BF244F00402F4F0040254F004008B5054B1B7823B9FFF7C6FF0122024BA1
:401180001A70FFF789FF08BDA981FF1F084A137843F0040313701032137843F00403137002F66532137843F001031370704700BFA3430040014B1870704700BF1B4F004092
:4011C000014B1878704700BF1B4F0040014B188880B270471C4F0040014B1880704700BF1C4F0040014B188880B27047204F0040014B1880704700BF1E4F004008B5164AC6
:40120000137803F0010313700232137803F0FC031370124B1A7802F0CF021A701A7842F030021A701A7802F0F0021A701A7842F00F021A700A4A137843F00103137045F686
:40124000BF50FFF7C9FF45F6BF50FFF7D1FF0820FFF7B0FF08BD00BF184F0040234F0040194F004008B5054B1B7823B9FFF7C6FF0122024B1A70FFF789FF08BDAA81FF1F82
:40128000044A137803F0EF03000100F01000184310707047C0510040044A137803F0F10300F00E0018431070704700BF64500040044A137803F0EF03000100F0100018436F
:4012C00010707047F0510040044A137803F0F10300F00E0018431070704700BF7C500040084A137843F0020313701032137843F00203137002F65932137843F00103137033
:40130000704700BFA3430040014B1870704700BF0F4F0040014B1878704700BF0F4F0040014B188880B27047104F0040014B1880704700BF104F0040014B188880B27047F7
:40134000144F0040014B1880704700BF124F004008B5164A137803F0010313700232137803F0FC031370124B1A7802F0CF021A701A7842F030021A701A7802F0F0021A70BD
:401380001A7842F00F021A700A4A137843F00103137045F6BF50FFF7C9FF45F6BF50FFF7D1FF0820FFF7B0FF08BD00BF0C4F0040174F00400D4F004008B5054B1B7823B973
:4013C000FFF7C6FF0122024B1A70FFF789FF08BDAB81FF1F044A137803F0EF03000100F0100018431070704730510040044A137803F0F10300F00E0018431070704700BF8A
:401400001C500040014B1868704700BF8081FF1F0E4B70B51E460E4C0025E41AA410A54204D056F8253098470135F8E700F0F6FF084B094C1E46E41AA4100025A54204D0B7
:4014400056F8253098470135F8E770BD2824000028240000282400003024000010B5431E0A44914204D011F8014B03F8014FF8E710BD03460244934202D003F8011BFAE7DB
:40148000704700000FB40A4B13B51C6824B1A36913B9204600F022FA05AB2046A168049A019300F0B1FB02B0BDE8104004B070478081FF1F70B50E46054618B183690BB997
:4014C00000F00CFAAC68A389190701D5236983B92846214600F0A8F858B14FF0FF3070BD002B0EDB236816F8012C1A70236801332360A36816F8012B013BA360002AEFD1DB
:4015000016E0A269934209DB236816F8012C1A70236819780A29EAD1284602E0284616F8011C224600F02CF8421C50425041D3E7002B15DAA269934208DB23680A221A70D9
:401540002368197891420FD1284601E028460A21224600F015F8431C5842584130B1BCE723680A221A702368013323600A2070BD024B01461868FFF79DBF00BF8081FF1F1B
:4015800070B50D461446064618B183690BB900F0A5F9224B9C4201D1746808E0204B9C4201D1B46803E01F4B9C4208BFF468A369A360A3891A0709D523693BB123682069DA
:4015C000EDB2181A636998420FDB08E03046214600F02AF80028F1D04FF0FF3070BD3046214600F011F90028F6D1A3680130013BA36023685A1C22601D706369984204D064
:40160000A389DB0707D50A2D05D13046214600F0FBF80028E0D1284670BD00BF88230000A8230000C8230000314B70B51D6806460C4625B1AB6913B9284600F04FF92D4BC7
:401640009C4201D16C6808E02B4B9C4201D1AC6803E02A4B9C4208BFEC68A3899AB211071DD4D50602D40922326038E0500712D5616B41B104F14403994202D0304600F021
:4016800001FA00236363A38923F02403A3810023636023692360A38943F00803A38123694BB9A38903F42073B3F5007F03D03046214600F09BF9A38913F0010205D000226F
:4016C000A26062695242A26103E0990758BF6269A26022694AB903F0800080B230B143F04003A3814FF0FF3070BD002070BD00BF8081FF1F88230000A8230000C82300004A
:401700008A892DE9F041054610070C4657D44B68002B02DC0B6C002B18DDE66AB6B102F48052002392B22F682B600AB1626D10E0216A28460123B047411C024609D12B6875
:401740003BB11D2B01D0162B46D12F600020BDE8F081A3895B0705D56368D21A636B0BB1236CD21AE66A00232846216AB047461CA38905D12A681AB11D2A01D0162A19D1BD
:40178000002262602269D904226004D5421C01D12B6803B96065616B2F600029D6D004F14403994202D0284600F06CF900206063BDE8F08143F04003A381BDE8F0810F6947
:4017C000002FC3D093070E680CBF4B690023C7EB06080F608B6012E0A3894FF0FF3043F04003A381BDE8F0812846216A3A464346A66AB0470028EFDD0744C0EB0808B8F173
:40180000000FF1DCA2E7000038B50B6905460C46DBB118B183690BB900F060F80C4B9C4201D16C6808E00B4B9C4201D1AC6803E0094B9C4208BFEC68B4F90C302BB12846B8
:401840002146BDE83840FFF75BBF002038BD00BF88230000A8230000C8230000014900F0A7B800BF0918000010B50446002303604360836081814366C28103614361836131
:4018800019465C300822FFF7F4FD054B24626362044BA362044BE362044B236310BD00BF6521000087210000BF210000E321000070B568234D1E5D430E4605F1740100F0CC
:4018C00025F9044640B1002180E842000C30A06005F16802FFF7CDFD204670BD836910B5044633BB8364C3640365124B124A1B688262984204BF0123836100F01FF86060EA
:40190000204600F01BF8A060204600F017F80421E06000226068FFF7A7FFA06809210122FFF7A2FFE06812210222FFF79DFF0123A36110BD842300005D180000F8B51B4BAD
:4019400007461E68B36913B93046FFF7C7FF4836B4687368013B04D4B4F90C5075B16834F8E733682BB938460421FFF7A1FF306008B13668ECE70C233B60F8BD4FF6FF739F
:40198000E3810123A38165662560A560656025616561A56104F15C0029460822FFF769FD6563A563A564E5642046F8BD842300002DE9F8438046894600F14804002694B157
:4019C000A5686768013F0CD4AB89012B07D9B5F90E30013303D040462946C84706436835F0E72468EBE73046BDE8F883F0B58B8991B09D0706460C4625D4B1F90E100029DD
:401A000008DAA389002513F0800F14BF40274FF480670DE001AA00F00BFC0028F1DB029D4FF4806705F47045A5F500514D424D413046394600F06AF860B9A3899A051DD45F
:401A400043F00203A38104F14703236023610123636113E00A4BB362A389206043F08003A381206167614DB13046B4F90E1000F0F1FB18B1A38943F00103A38111B0F0BDD7
:401A80005D18000030B500293CD051F8042C0B1F1D49002AB8BF9B180A680C4612B95A600B6030BD93420DD219685818904201BF5A5852181A60426823605A6030BD99421D
:401AC00003D80A4651680029F9D1146815199D420AD11B682344D0188842136012D10868034413604B680CE002D90C23036030BD1C681819884201BF0868496800191860A5
:401B00005960536030BD00BFB081FF1F70B5CC1C24F0030408340C2C38BF0C24002C064603DA0C233360002070BD8C42F9D3204A136810461946A1B10A68121B0ED40B2ADB
:401B400003D90A608B188C501FE08B420BBF5A684A6802605A6018BF0B4616E00B464968E9E7144D2B681BB9304600F0EBFA28603046214600F0E6FA421C0346D1D0C51C19
:401B800025F0030585420AD11C6003F10B001A1D20F00700821A0AD05142995070BD3046E91A00F0CFFA0130BBD02B46ECE770BDB081FF1FAC81FF1F936810B5013B002B5E
:401BC000936009DA9469A34202DBCBB20A2B03D1BDE81040FFF7D4BC1368581C10601970C8B210BDF8B506460F461446D518AC4208D0304614F8011B3A46FFF7DDFF431C76
:401C0000F5D100E00020F8BD2DE9F0439DB00D4690460393064618B183690BB9FFF75EFE754B9D4201D1756808E0744B9D4201D1B56803E0724B9D4208BFF568AB891C0700
:401C40000AD52B6943B10023099320238DF8293030238DF82A3041E030462946FFF7E4FC0028F0D04FF0FF30C2E0039A0134111D12680391002ABBBF524243F00203079200
:401C80000792B8BF049323782E2B7BD0DFF8808121784046032200F0FFFA38B1049AC8EB00004023834013430493013421785548062204F101088DF8281000F0EDFA00289F
:401CC00000F08580504B002B78D1039B073323F0070308330393099B3B44099343461C4613F8012B1AB9B4EB08090ED002E0252AF5D1F8E73046294642464B46FFF772FF9D
:401D0000013070D0099B4B4409932378002B6AD000234FF0FF3204930793059206938DF853301A9304F101084446DFF8E89021784846052200F0B0FA08F10108049B30B179
:401D4000C9EB00000122824013430493ECE7D80644BF20228DF85320190744BF2B228DF8532022782A2A80D0234607991C4622780133303A092A03D80A2000FB0121F5E775
:401D8000079180E763782A2B0AD1039B02341A1D1B680392002BB8BF4FF0FF33059375E7611C00220C4623780131303B092B03D80A2000FB0232F5E7059267E703AB00935C
:401DC000304604A92A46114BAFF3008007E003AB0093304604A92A460C4B00F093F8421C07467FF478AFAB895B063FF53BAF09981DB0BDE8F08300BF88230000A823000092
:401E0000C8230000F223000000000000E51B0000EE230000E82300002DE9F84391461F468A680B6906469342B8BF1346C9F8003091F843200C46DDF8208012B10133C9F846
:401E400000302368990642BFD9F800300233C9F80030256815F006051CD094F843302268003318BF012392061FD5E118302081F843005A1C94F845102244023382F8431050
:401E800013E03046394604F119020123C047013007D00135E368D9F800209B1A9D42F0DBDBE74FF0FF30BDE8F8833046394604F14302C0470130F4D02268D9F80050E368B5
:401EC00002F00602042A08BF5D1B2269A3680CBF25EAE57500259342C4BF9B1AED184FF00009A9450ADA3046394604F11A020123C0470130D5D009F10109F2E70020BDE8B7
:401F0000F88300002DE9FF410C461746227E98466E2A06460A9B01F1430100F0B08012D8632A23D00AD8002A00F0BD80582A40F0CC8084F84520DFF804E257E0642A1ED0D2
:401F4000692A1CD0C1E0732A00F0B18009D86F2A2ED0702A40F0B980226842F0200222603FE0752A24D0782A3BD0AEE01A6804F14205111D1960136884F84230A9E02068DC
:401F80001A6810F0800F02D0101D186008E010F0400F02F10400186002D0B2F9003000E01368002B3EDA2D225B4284F8432039E020681A6810F0800F02D0101D186007E0CD
:401FC00010F0400F02F10400186001D0138800E01368227EDFF864E16F2A0CBF08220A221CE07822DFF858E184F845202268186812F0800F00F104051D6003D1550601D548
:40200000038800E00368D00744BF42F0200222601BB9226822F0200222601022002084F8430002E0DFF814E10A226568002DA8BF2068A560A4BF20F00400206003B965B164
:402040000D46B3FBF2F002FB10331EF8033005F8013D03460028F4D100E00D46082A0BD12368DA0708D5236962689A42DEBF302305F8013C05F1FF35491B21612EE02568F2
:402080001A6815F0800F606903D0151D1D60136808E015F0400F02F104051D60136801D0188000E01860002323610D4616E01A68111D1960156800212846626800F0ECF890
:4020C00008B1401B6060636804E004F1420584F8422001232361002384F84330CDF800803046214603AA3B46FFF796FE013002D14FF0FF301FE0304639462A462369C04746
:402100000130F5D023689B0705D4E068039B9842B8BF18460FE00025E368039A9B1A9D42F3DA3046394604F119020123C0470130DED00135F0E704B0BDE8F081F9230000AF
:402140000A24000038B5064C0023054608462360FEF736F9431C02D1236803B12B6038BDE081FF1F10B50C46B1F90E1000F0A2F80028ABBF636DA3891B1823F48053ACBFA0
:402180006365A38110BD2DE9F0411D468B890746DB050C46164605D5B1F90E100022022300F068F8A389384623F48053A381B4F90E1032462B46BDE8F04100F017B810B5CE
:4021C0000C46B1F90E1000F055F8431CA38915BF606523F4805343F48053A38118BFA38110BDB1F90E1000F013B8000038B5074C054600202060084611461A46FDF7C8FF16
:40220000431C02D1236803B12B6038BDE081FF1F38B5064C002305460846236000F05CF8431C02D1236803B12B6038BDE081FF1F38B5074C0023054608461146236000F036
:4022400053F8431C02D1236803B12B6038BD00BFE081FF1F38B5064C002305460846236000F04AF8431C02D1236803B12B6038BDE081FF1F38B5074C05460020206008464B
:4022800011461A4600F040F8431C02D1236803B12B6038BDE081FF1F10B5C9B202449042034605D01C7801308C42F8D1184610BD002010BD38B5074C05460020206008466C
:4022C00011461A4600F028F8431C02D1236803B12B6038BDE081FF1F024B58221A604FF0FF307047E081FF1F024B58221A604FF0FF307047E081FF1F024B58221A6000207C
:40230000704700BFE081FF1F024B58221A604FF0FF307047E081FF1F024B58221A604FF0FF307047E081FF1F0000000053746172740D000025642025640D0A00C849004029
:402340001900004F0040300040510040300000000140800A000B0140000500140140000800400140000A004C014000020050014020000000800A0140940B0048800000000E
:40238000430000002081FF1F00000000000000000000000000000000000000000000000000000000000000000000000000000000000000000000000000000000000000001B
:4023C00000000000000000000000000000000000000000000000000000000000000000000000000000000000232D302B2000686C4C00656667454647003031323334353689
:4024000037383941424344454600303132333435363738396162636465660000F8B500BFF8BC08BC9E4670474D0000003D040000F8B500BFF8BC08BC9E4670472900000048
:40244000502400000881FF1F800000006000000000000000E881FF1F0000E02EC05D00001800000000366E010000000088230000A8230000C8230000000000000000000091
:402480000000000000000000802300000000000000000000000000000000000000000000000000000000000000000000000000000000000000000000000000000000000079
:4024C00000000000000000002081FF1F000000000000000000000000000000000000000000000000000000000000000000000000000000000000000000000000000000001D
:40250000000000000000000000000000000000000000000000000000000000000000000000000000000000000000000000000000000000000000000000000000000000009B
:40254000000000000000000000000000000000000000000000000000000000000000000000000000000000000000000000000000000000000000000000000000000000005B
:40258000000000000000000000000000000000000000000000000000000000000000000000000000000000000000000000000000000000000000000000000000000000001B
:4025C00000000000000000000000000000000000000000000000000000000000000000000000000000000000000000000000000000000000000000000000000000000000DB
:020000040003F7
:0200000480007A
:40000000084F00400752004004640040046500400101014001030140070501404C060140450701404508014048090140150A01404B0B0140660C0140390D0140620E014048
:40004000350F0140591401404F1501401D17014051180140581901405B1A01404F1B0140044001400641014010420140184301400444014006450140044601400147014011
:400080000A4801401D490140134C01400D4D0140075001400251014001800A930D80161E1980226325802E63084009600C6018601920608264432B0489728D0F8F0F2B0F77
:4000C0003B08850F8938E280E6028110878088809204B204E206E404013F05100702080909100B010F1410021204172018091B081D0F200821042308271828022A04300796
:400100003608373F388239803E01580459045F0180E28101830E84928660878089818A028B028C408D818E1D8F0890019125945D96A2983D99249AC29B019D409EFFA00D68
:40014000A310A524A608A701A801A925AC04AD25AEE0B10FB370B4FFB580B720B988BB02BE10BF44D420D604D804D904DB04DF010002019002500420082009050A010C0217
:400180000F0810481344164819101D011E011F802010210122052305270228D029E02A812C202F803022338036A03708381039023A403B043C023D083E803F205A065B9064
:4001C000612063816420660878087A10812082088350854086508B05920498809B809D11B501C04FC25FC45FCACFCC7DCEFFD60FD80DE080E609EA10EE010001011002022E
:40020000030405100708090F0A030D20111013011401150F16061A131B101C021E01220B230F2510270828012A042B0F2D102F023207330F34083610373039803A083F447E
:40024000580459045F0185FF8801890C8D639104950F97F099F39B0C9D08A142A7F3A801A91CABE3AC01AD21B160B38CB401B50FB71CBB28D602D713D804D904DB04DC2270
:40028000DD20DF010020040205100D080E09100A140815011B201C081D181F4022592580271029612B202D012F5A30813218362539483A203C443D103E043F034C014E02B9
:4002C0005B02681A708072207304820184018705884089108D488E219004910892019320951096089A409B409C209D049E8AA222A301A440A681A702A810AE01B406C0526E
:40030000C2E0C453CAFFCCEFCEFED601E420EA10EC40EE0206040E011008110417011E02210222032A012E01300731013408350437023A023E103F50580459045F01010851
:400340000302042005020610070208400A800C400D020F141001111114011505171018081A401B011C101D021E011F1021802202230827022B402D102E8A320534413504C8
:40038000369137103B303C843D053F12442046104C124E2456407740810882408308850289128A228B048F129004910894209510964097209C40A340A580A611B108C0F5AA
:4003C000C2F9C4FBCAF1CCF3CEF0D040D230E220E601EE200446050C06A9070209200A010D060F081040110E121314331502160C171C182A190E1A541C0E1E301F2020FFDD
:40040000210223102504270A288029012A563120331E34FF35013B083F114015420449FF4AFF4BFF4F015018580459045A045D015F016040624064406540668068806A80D6
:400440006C806E80910192029A069B039D019E04A103AC06AE01B004B102B401B501B606BA82BF01C015C204C5ECC720C823C9FFCAFFCBFFCD83CE03CF01D018D403D6046C
:40048000D804D904DA04DB04DC11DD11DF01E040E240E440E540E680E880EA80EC80EE8004240A8A0E6610021440151019101A8A1C04210222102508260827482B402C48C8
:4004C0002E042F1031103241358036193C043E604182458249854A024E02520259055A205B40634087408C028E208F4091089F08A008AC02AF01B408B701C060C2FBC45119
:40050000CAE1CCFDCE70D099D218D60FD801EC08EE0204400701080209020A0C0C501001143015031644184019031A3020242240247026083002327C3401350339203B086B
:400540003E113F104002464049FF4A074BFF4C404D204EF04F055008580459045A045C225D025F01604061A862406320842A85308614874D88038A1C8B408E289330940350
:4005800095459634973899459A209B18A403A604A720A902AA15AB4CB238B33CB40FB540B703B980BA28BB08BF10C026C103C6C0C7BEC838C9FFCAFFCBFFCEF0CF44D00C4F
:4005C000D401D804D904DA04DB04DC22DD22DF01E6C0EA40EB0200100201032005100712080209280D1811081302161418101A081B011D3C20042104242025042620271206
:400600002F1831143514370238283D083E103F20400445284C0450045110520453385408561157105E105F498A248B40C0E7C26EC46CCA60CCE6CE66D064D220D6F0E280A5
:4006400001030214040F0503080809100A020B070C030D01100111011402157F1609180319221B051C101D401E0B1F07200121012505260B2778281F29082B072D3A2E012A
:400680002F04317F361F3F01580459045F018302860A8A019101920196089B049E01A601AB0DAD02AE06B004B101B202B304B408B502B601B708BE50C030C106C5D0C6204C
:4006C000C751C83AC9FFCAFFCBFFCDA0CF04D018D407D804D904DA04DB04DC33DD33DF01E040E2C0E440E540E6C0E8C0EAC0ECC0EEC0012802410420062008400A200B4439
:400700000E800F22100A110212101504160219801D481E081F022080250426102782288829A82A482F0A304A3105323033803410370238803A113B443E02441046204F2133
:40074000560257185E285F818104844085808D088F1090A091049304989899059A199DC09F10A101A260A381A810AB04AD40B124B501C06FC2BFC4AFCA3FCCAFCE8FD04026
:40078000D220D6F0E00AE403E690E830EA08EE04050C84108510880189088CCA8D859304951098089A199F10A260A381A40BA525A704AA80AC30AE34AF40B380B410B70A6B
:4007C000E202E60EEA02EC08EE0600010101070109081002130117012301280129022B042D022E042F14300131063310340435013602370838023E413F1052F6580459040F
:400800005B045C035F0180098246840485018638881F90129245930295019901A81FA901B003B21CB302B660B701BE40BF40C062C103C204C401C5C0C60EC806C9FFCAFFFD
:40084000CBFFCC62CDA0CEF0CF41D00CD418D804D904DA04DB04DC02DD22DF01E640E702E910EA30EB10ED10EE10EF120022010805020A400F4010081750180119091A4052
:400880001D021F902204230224402684270929202D402F48300131103218360639083C083D203E0140A14104432048404910504058805A82622063026D287504768A77047D
:4008C00083808602871088098A808D048F06913A92A79385944096089A419B509C089D6D9E8A9F02A09CA180A20AA328A685A706AB04AC20AD01AE04AF10B110B718C01E96
:40090000C218C4C2CAB4CCC7CEE2D00FD204D601D80CE292E440E610E890EE40000406030A040E400F01124014271618183F1C1C1E22201023012408281C2A212C182F026B
:4009400030403302341F3501362038803A203E013F10580459045C225F018004810384018503861E88018B038C228F0390229109921893049418960698329A089C2A9D0107
:400980009E109F06A03FA303A640A806A908AB03AC1CAD02AE22AF01B308B41FB660B707B820B908BB80C041C525C803C9FFCAFFCBFFCC42CDA0CE70D008D110D804D90403
:4009C000DA04DF01E148E240E348E480E548E680E74800A2032005100642071008A00AA00D010E440F1110801209130415601610170119201B411D101E021F40202022205A
:400A00002680271029402B402C012D102F4035803680370138803E443F1145824D024F0879407A01811086108750880189408C808DA09080913292A49305974098219A43C7
:400A40009B019D62A0C0A182A208A320A401A621A705A902B308B544C0FFC2FFC4FFCAB9CC90CEF8D090E405E6C0E810EA08EEC0331836808808CC70870898089F10A68034
:400A8000A708E64019081A021F123C805B0260086620822098089F10A680C6F0CE20D640D8C0E220610162206501710175018310860189089202932099089F10A220A302A6
:400AC000A440A680AA20B702D8C0DC80DE20E220E440EE8013027401C408DE0403108F10AC01AF02C008E602000807408340C00CAC046940814084409320A302A440A680CD
:400B0000DA40E240E6200B401220170265016680722076408101822087408A208E809A409F02AB02AEC0B310B702C210C430D680D880DC80DE20E220E4C0E820EA10EE1020
:400B40000B020C08108013801620630865207B107C10878088089920B520C206C40ED803DE03E604E8081040831488C0A080A714AE20B410B701C408E201E601E808EA02D9
:400B8000000F0A010C0D0E07100D1A091C0D003F03C00000404D289203CC001308A5104A00028000001A01602800500200A904547BFF000000001204080412000A0020B54D
:400BC0003200000103000000F80004FF080000000000044035000000060D0B0005FF7FFF42A070000C008000000000000404040400300001000940093009000000000000F9
:400C000000000000000000000000000000000000000000000080800000000000830040909300830000000000003131000000000060000000600060000000000001080800B8
:400C40000000000000F0F000600000000000000000000000000000000000000000000000000000000000000000000000000000000000000000000000000000000000000034
:400C80000000000000000000000000000000000000000000000000000000000000000000000000000000000000000000000000000000000000000000000000000000000034
:400CC00000000000000000000000000000000000000000000000000000000000000000000000000000000000000000000000000000000000000000000000000000000000F4
:400D000000000000000000000000000000000000000000000000000000000000000000000000000000000000000000000000000000000000000000000000000000000000B3
:400D40000000000000000000000000000000000000000000000000000000000000000000000000000000000000000000000000000000000000000000000000000000000073
:0200000490006A
:0400000000004005B7
:0200000490105A
:04000000BC90ACAF55
:0200000490303A
:02000000FF926D
:0200000490402A
:4000000000000000000000000000000000000000000000000000000000000000000000000000000000000000000000000000000000000000000000000000000000000000C0
:400040000000000000000000000000000000000000000000000000000000000000000000000000000000000000000000000000000000000000000000000000000000000080
:400080000000000000000000000000000000000000000000000000000000000000000000000000000000000000000000000000000000000000000000000000000000000040
:4000C0000000000000000000000000000000000000000000000000000000000000000000000000000000000000000000000000000000000000000000000000000000000000
:0200000490501A
:0C00000000012E16106900012E270FFBD6
:00000001FF