:400000000080002011000000390100003901000008B5044B1A6803F53F5302331A6000F0A5F800BFFA46004010B5054C237833B9044B13B10448AFF300800123237010BD66
:40004000B081FF1F0000000044370000084B10B51BB108480849AFF300800848036803B910BD074B002BFBD0BDE81040184700BF0000000044370000B481FF1F0881FF1FFB
:400080000000000008B500F08BFA0028FBD008BD08B500F085FA0128FBD008BD08B5064800F0B0FA00F0E8FAFFF7ECFF00F086FA00F0B0FA08BD00BF905F010008B5064890
:4000C00000F0A0FA00F0D8FAFFF7E2FF00F076FA00F0A0FA08BD00BF905F010010B5FFF7D7FFFFF7DBFF0446FFF7E8FF0346044821461A46234401F0D3FB002010BD00BFC9
:400100004837000008B562B600F012FA024801F03DFCFFF7E3FFFCE75437000070B51646002405E04D1C087800F010FA01342946B442F7DB304670BDFEE700BF08B5094B84
:400140001A681044084BC31AB3F5805F02DC054B186005E000F0FAFE0C2303604FF0FF32104608BD0C81FF1FE081FF1F08B5104E104D16E029686B68AC68002204E051F803
:40018000040B43F8040B0432A242F8D1E868002203E0002143F8041B04328242F9D11035013E002EE6D100F0D7FEFFF7ABFFFEE7010000008C39000008B5124A124B1A6006
:4001C000124A136843F40073136000230AE0032B03D80F4A52F8231000E00E490E4A42F8231001332F2BF2D90C4B1A780C4B1A70094A0C4B1A6000F0C5F800220A4B1A603E
:4002000008BD00BF0004FA050CED00E014ED00E000000000390100000080FF1FBC7600400481FF1F08ED00E00081FF1FFEE700BFF0B40022174611E050F82760F3B226F0DA
:40024000FF0608E001EB420511F812406D78A5550132013BDBB2002BF4D10137232FEBD9F0BC7047064B1B78DBB203F00701054A11701B09013213704422034B1A7070477C
:40028000CF0100496E5800407658004008B50A46002100F092FE08BD38B502222D4B1A8018232D490B700E200231088002310B7024200231088002310B704D2002310880E3
:4002C00002310B70EF200231088002310B70234B1A7008224FF040231A70032103F5007319701F4B1B78DBB21E490B701E4B1A8041F25122023B1A80002419250CE01B4BD2
:400300001B7803F0010343EA440404F003044FF4F07000F035F9013D0DB1032CEFD115B90320FFF783FF124B4FF480721A8007221A7000220F490A704820023108701A703E
:400340000222033B1A700C4A137843F01F03137038BD00BF80400040824000400043004008010049A146004022420040254200400440004006400040A243004008B500F0FF
:4003800011FE08BD38B572B63C4A137843F00403137000240CE03A4963001A1952000A4423445B00C8589188FFF770FF0134E4B2072CF0D900240FE03149A3001A195200E1
:4003C0000A4452F8300F23445B000B4451681A8FFFF7D4FF0134E4B2012CEDD94FF090402849FFF725FF284A137843F0020313701032137843F002031370244C237843F014
:4004000040032370A2F58632513A137843F0100313701F481F490822FFF7B0FF1E481F490A22FFF7ABFF1E481E490822FFF7A6FF1D481E490A22FFF7A1FF1D481D4908226B
:40044000FFF79CFF1C481D490822FFF797FF1C4A137843F0080313701A4D61232B70FFF71BFF81232B700122174B1A70FFF7FAFE164821460E22FFF781FF38BDE846004019
:400480005C3700009000004803500140A043004002510040200D0048C0510040280D0048F2510040340D0048105100403C0D004822510040480D004832510040500D00484E
:4004C000224300400048004004000840B04300407222084B1A702022A3F581731A700622A1331A70472210331A700022AF3B1A70704700BF8965004010B500F049F8044651
:400500000A4A137843F020031370A2F58172137843F0100313700232137843F01003137000F020F8204600F037F810BD9965004008B5054B1B7823B9FFF7CAFF0122024B5A
:400540001A70FFF7D9FF08BDCC81FF1F034B1B7813F0040FFAD1024B187070476964004049640040054A137843F0080313701032137843F008031370704700BFA2430040E7
:400580000230800803D000BF01380046FCD17047EFF3108072B6704780F31088704700BF014B1878C009704711510040024A137843F08003137070477A640040024A137860
:4005C00003F07F03137070477A640040014B1870704700BF8C640040014B1878704700BF6C64004008B50146014800F053F808BD2A640040024B186820F07F40704700BF25
:400600004A64004008B50146014800F043F808BD0A640040034B1B78034B186820F07F40704700BF0A6400404A64004008B501E0FFF7E0FFFFF7D0FF10F0080FF8D108BD74
:4006400010B50B4C2046FFF7CDFF2046FFF7DAFFFFF79EFF074A137843F010031370FFF79BFFFFF7E3FF0020FFF7B0FF10BD00BF8F5F01009C64004008B5054B1B7823B965
:40068000FFF7DEFF0122024B1A70FFF78FFF08BDCE81FF1FCBB20370C1F307234370C1F307418170704700BF81F0004102E000BF83F0004330B54FEA41044FEA430594EA68
:4006C000050F08BF90EA020F1FBF54EA000C55EA020C7FEA645C7FEA655C00F0E2804FEA5454D4EB5555B8BF6D420CDD2C4480EA020281EA030382EA000083EA010180EA8D
:40070000020281EA0303362D88BF30BD11F0004F4FEA01314FF4801C4CEA113102D0404261EB410113F0004F4FEA03334CEA133302D0524263EB430394EA050F00F0A780D9
:40074000A4F10104D5F1200E0DDB02FA0EFC22FA05F2801841F1000103FA0EF2801843FA05F359410EE0A5F120050EF1200E012A03FA0EFC28BF4CF0020C43FA05F3C01875
:4007800051EBE37101F0004507D54FF0000EDCF1000C7EEB00006EEB0101B1F5801F1BD3B1F5001F0CD349085FEA30004FEA3C0C04F101044FEA445212F5800F80F09A80A2
:4007C000BCF1004F08BF5FEA500C50F1000041EB045141EA050130BD5FEA4C0C404141EB010111F4801FA4F10104E9D191F0000F04BF01460020B1FA81F308BF2033A3F1E2
:400800000B03B3F120020CDA0C3208DD02F1140CC2F10C0201FA0CF021FA02F10CE002F11402D8BFC2F1200C01FA02F120FA0CFCDCBF41EA0C019040E41AA2BF01EB045144
:40084000294330BD6FEA04041F3C1CDA0C340EDC04F11404C4F1200220FA04F001FA02F340EA030021FA04F345EA030130BDC4F10C04C4F1200220FA02F001FA04F340EA3E
:400880000300294630BD21FA04F0294630BD94F0000F83F4801306BF81F480110134013D4EE77FEA645C18BF7FEA655C29D094EA050F08BF90EA020F05D054EA000C04BF75
:4008C0001946104630BD91EA030F1EBF0021002030BD5FEA545C05D14000494128BF41F0004130BD14F580043CBF01F5801130BD01F0004545F0FE4141F470014FF0000054
:4009000030BD7FEA645C1ABF194610467FEA655C1CBF0B46024650EA013406BF52EA033591EA030F41F4002130BD00BF90F0000F04BF0021704730B54FF4806404F13204DD
:400940004FF000054FF0000150E700BF90F0000F04BF0021704730B54FF4806404F1320410F0004548BF40424FF000013EE700BF42004FEAE2014FEA31014FEA02701FBF58
:4009800012F07F4393F07F4F81F06051704792F0000F14BF93F07F4F704730B54FF4607401F0004521F0004120E700BF50EA010208BF704730B54FF000050AE050EA010288
:4009C00008BF704730B511F0004502D5404261EB41014FF4806404F132045FEA915C3FF4DCAE4FF003025FEADC0C18BF03325FEADC0C18BF033202EBDC02C2F1200300FAC9
:400A000003FC20FA02F001FA03FE40EA0E0021FA02F11444C1E600BF70B54FF0FF0C4CF4E06C1CEA11541DBF1CEA135594EA0C0F95EA0C0F00F0DEF82C4481EA030621EA13
:400A40004C5123EA4C5350EA013518BF52EA033541F4801143F4801338D0A0FB02CE4FF00005E1FB02E506F00042E0FB03E54FF00006E1FB03569CF0000F18BF4EF0010E34
:400A8000A4F1FF04B6F5007F64F5407404D25FEA4E0E6D4146EB060642EAC62141EA55514FEAC52040EA5E504FEACE2EB4F1FD0C88BFBCF5E06F1ED8BEF1004F08BF5FEAF9
:400AC000500E50F1000041EB045170BD06F0004646EA010140EA020081EA0301B4EB5C04C2BFD4EB0C0541EA045170BD41F480114FF0000E013C00F3AB8014F1360FDEBF4E
:400B0000002001F0004170BDC4F10004203C35DA0C341BDC04F11404C4F1200500FA05F320FA04F001FA05F240EA020001F0004221F0004110EBD37021FA04F642EB0601CA
:400B40005EEA430E08BF20EAD37070BDC4F10C04C4F1200500FA04F320FA05F001FA04F240EA020001F0004110EBD37041F100015EEA430E08BF20EAD37070BDC4F1200588
:400B800000FA05F24EEA020E20FA04F301FA05F243EA020321FA04F001F0004121FA04F220EA020000EBD3705EEA430E08BF20EAD37070BD94F0000F0FD101F00046400077
:400BC00041EB010111F4801F08BF013CF7D041EA060195F0000F18BF704703F00046520043EB030313F4801F08BF013DF7D043EA0603704794EA0C0F0CEA135518BF95EA99
:400C00000C0F0CD050EA410618BF52EA4306D1D181EA030101F000414FF0000070BD50EA410606BF1046194652EA430619D094EA0C0F02D150EA013613D195EA0C0F05D197
:400C400052EA03361CBF104619460AD181EA030101F0004141F0FE4141F470014FF0000070BD41F0FE4141F4780170BD70B54FF0FF0C4CF4E06C1CEA11541DBF1CEA135576
:400C800094EA0C0F95EA0C0F00F0A7F8A4EB050481EA030E52EA03354FEA013100F088804FEA03334FF0805545EA131343EA12634FEA022245EA111545EA10654FEA002658
:400CC0000EF000419D4208BF964244F1FD0404F5407402D25B084FEA3202B61A65EB03055B084FEA32024FF480104FF4002CB6EB020E75EB030E22BFB61A754640EA0C00B2
:400D00005B084FEA3202B6EB020E75EB030E22BFB61A754640EA5C005B084FEA3202B6EB020E75EB030E22BFB61A754640EA9C005B084FEA3202B6EB020E75EB030E22BFD8
:400D4000B61A754640EADC0055EA060E18D04FEA051545EA16754FEA06164FEAC30343EA52734FEAC2025FEA1C1CC0D111F4801F0BD141EA00014FF000004FF0004CB6E732
:400D800011F4801F04BF01430020B4F1FD0C88BFBCF5E06F3FF6AFAEB5EB030C04BFB6EB020C5FEA500C50F1000041EB045170BD0EF0004E4EEA113114EB5C04C2BFD4EBC7
:400DC0000C0541EA045170BD41F480114FF0000E013C90E645EA060E8DE60CEA135594EA0C0F08BF95EA0C0F3FF43BAF94EA0C0F0AD150EA01347FF434AF95EA0C0F7FF4FE
:400E000025AF104619462CE795EA0C0F06D152EA03353FF4FDAE1046194622E750EA410618BF52EA43067FF4C5AE50EA41047FF40DAF52EA43057FF4EBAE12E74FF0FF3C21
:400E400006E000BF4FF0010C02E000BF4FF0010C4DF804CD4FEA410C7FEA6C5C4FEA430C18BF7FEA6C5C1BD001B050EA410C0CBF52EA430C91EA030F02BF90EA020F0020C5
:400E8000704710F1000F91EA030F58BF994208BF90422CBFD8176FEAE37040F0010070474FEA410C7FEA6C5C02D150EA013C07D14FEA430C7FEA6C5CD6D152EA033CD3D08E
:400EC0005DF8040B704700BF8446104662468C461946634600E000BF01B5FFF7B7FF002848BF10F1000F01BD4DF808EDFFF7F4FF0CBF012000205DF808FB00BF4DF808EDF8
:400F0000FFF7EAFF34BF012000205DF808FB00BF4DF808EDFFF7E0FF94BF012000205DF808FB00BF4DF808EDFFF7CEFF94BF012000205DF808FB00BF4DF808EDFFF7C4FF32
:400F400034BF012000205DF808FB00BF014B1868704700BF7081FF1F0E4B70B51E460E4C0025E41AA410A54204D056F8253098470135F8E702F0F8FC084B094C1E46E41A80
:400F8000A4100025A54204D056F8253098470135F8E770BD7439000074390000743900007C39000010B5431E0A44914204D011F8014B03F8014FF8E710BD03460244934252
:400FC00002D003F8011BFAE770472DE9F0471E4688B0149F002BB8BF06F10043129927F02007B6BF1E4600232D23462F1446109DDDF84CA00B7003D0452F03D1013501E0D9
:40100000032300E002238DE8280406AB039307AB04932246334600F03BFE472F804602D1119BDB0726D5462F08EB050911D198F80030302B0AD12046314600220023FFF74C
:4010400053FF18B9C5F10105CAF80050DAF8003099442046314600220023FFF745FF08B1CDF81C90079B4B4504D25A1C079230221A70F7E74046079B159AC8EB0303136046
:4010800008B0BDE8F087034673B50029B8BF494203F8022BB4BF2D222B22092942701ADD0DF1070426460A2291FBF2F502FB1511092D01F1300104F8011D2946F3DC303165
:4010C000651E04F8011CB5421A460AD215F8012B03F8012BF7E71A463024214402F8024B5970101A02B070BD2DE9F04F91B08B4615461E461A9F044601F0FCFCD0F800A037
:40110000504600F073FC00230E933B680990073323F0070303F108029BF818803A60D3E90023CBE91223DBE9120100F037FC0128DBE9120119D100220023FFF7DFFE10B11B
:401140002D238BF84330A04BA04FB8F1470F88BF1F460323CBF81030DBF8003023F00403CBF800304FF00009A1E000F017FCDBF8003048B9964A974FB8F1470F88BF174632
:401180000322CBF81020E9E7DBF80420DBE91201571CCDE90A0101D1062209E0B8F1670F02D0B8F1470F05D1002A40F0C7810122CBF80420DBF8042043F480638DE80C005E
:4011C000CBF800300DF1330302930DAB03930EAB059300230693CDF81080DDE90A232046FFF7F3FE08F0DF03472B07460AD10D9BD81C03DBDBF80420934237DDA8F10208D2
:401200005FFA88F8B8F1650F0D9915D8013942460BF150000D91FFF736FF0E9A81468318012ACBF8103003DCDBF80020D10738D50133CBF8103034E0B8F1660F18D10029E4
:40124000DBF8043009DDCBF810101BB9DBF80020D20721D501330B441CE01BB9DBF80020D00701D5023315E0012313E04FF067080D9B0E9A934207DBDBF80020CBF8103029
:40128000D10709D5013305E0002BD4BFC3F1020301231344CBF810300D9B4FF00009CBF858309DF8333013B12D238BF843300096204659460FAA2B4600F05CF9013002D11F
:4012C0004FF0FF3052E1DBF800305A0505D4204629463A46DBF8103008E1B8F1650F40F2D080DBE9120100220023FFF7FDFD50B320462946384A0123B0470130E0D00E9B17
:401300000D9A9A4209DBDBF80030D80705D4DBF800309F0700F1108107E1204629465246099BB0470130CBD000270E9B013B9F42EDDA204629460BF11A020123B0470130B7
:40134000BED00137F1E70D9B002B29DC20462946214A0123B0470130B2D00D9B2BB90E9B1BB9DBF80030D907D1D5204629465246099BB0470130A3D04FF000080D9B204656
:401380005B429845294608DA0BF11A020123B047013095D008F10108F0E73A460E9BA5E0DBF858200E9B9A42A8BF1A46002A914602DC4FF000081CE0204629463A464B4673
:4013C000B0470130F5D17BE7AC370000A8370000B4370000B0370000B8370000204629460BF11A020123B04701303FF469AF08F10108DBF85830B9F1000FB4BF1A46C9EBF9
:4014000003029045EADB07EB03080D9A0E9B9A4210DBDBF80030DA070CD40E9A1744C8EB07030D9FD21B9342A8BF1346002B1F4608DC0EE0204629465246099BB0470130AC
:40144000EBD13DE7204629464246B04701303FF437AF4FF000080AE0204629460BF11A020123B04701303FF42BAF08F101080D9A0E9B002FA3EB0203A8BFDB1B9845EBDB63
:4014800045E70E9A012A01DCDB0736D5204629463A460123B04701303FF412AF204629465246099BB04701303FF40AAFDBE9120100220023FFF718FDE8B90E9B2046294663
:4014C0007A1C013B1DE0204629460BF11A020123B04701303FF4F4AE01370E9B013B9F42F1DB204629464B460BF15002B04701307FF40DAFE4E60027EFE7204629463A461E
:401500000123B0470130ECD1DAE6204629460BF119020123B04701303FF4D2AE0137DBF80C300F9A9B1A9F42EFDBDBF80C000F9B9842B8BF184619E00027F0E743F480635E
:401540008DE80C00CBF800300DF1330302930DAB03930EAB059300230693CDF810802046DDE90A23FFF731FD074640E611B0BDE8F08F00BF2DE9F84391461F468A680B69F7
:4015800006469342B8BF1346C9F8003091F843200C46DDF8208012B10133C9F800302368990642BFD9F800300233C9F80030256815F006051CD094F843302268003318BF40
:4015C000012392061FD5E118302081F843005A1C94F845102244023382F8431013E03046394604F119020123C047013007D00135E368D9F800209B1A9D42F0DBDBE74FF07A
:40160000FF30BDE8F8833046394604F14302C0470130F4D02268D9F80050E36802F00602042A08BF5D1B2269A3680CBF25EAE57500259342C4BF9B1AED184FF00009A9459C
:401640000ADA3046394604F11A020123C0470130D5D009F10109F2E70020BDE8F88300002DE9FF410C461746227E98466E2A06460A9B01F1430100F0B08012D8632A23D096
:401680000AD8002A00F0BD80582A40F0CC8084F84520DFF804E257E0642A1ED0692A1CD0C1E0732A00F0B18009D86F2A2ED0702A40F0B980226842F0200222603FE0752A2B
:4016C00024D0782A3BD0AEE01A6804F14205111D1960136884F84230A9E020681A6810F0800F02D0101D186008E010F0400F02F10400186002D0B2F9003000E01368002B7B
:401700003EDA2D225B4284F8432039E020681A6810F0800F02D0101D186007E010F0400F02F10400186001D0138800E01368227EDFF864E16F2A0CBF08220A221CE0782225
:40174000DFF858E184F845202268186812F0800F00F104051D6003D1550601D5038800E00368D00744BF42F0200222601BB9226822F0200222601022002084F8430002E0D4
:40178000DFF814E10A226568002DA8BF2068A560A4BF20F00400206003B965B10D46B3FBF2F002FB10331EF8033005F8013D03460028F4D100E00D46082A0BD12368DA07F0
:4017C00008D5236962689A42DEBF302305F8013C05F1FF35491B21612EE025681A6815F0800F606903D0151D1D60136808E015F0400F02F104051D60136801D0188000E0B0
:401800001860002323610D4616E01A68111D1960156800212846626801F0C4F908B1401B6060636804E004F1420584F8422001232361002384F84330CDF80080304621461A
:4018400003AA3B46FFF796FE013002D14FF0FF301FE0304639462A462369C0470130F5D023689B0705D4E068039B9842B8BF18460FE00025E368039A9B1A9D42F3DA3046E3
:40188000394604F119020123C0470130DED00135F0E704B0BDE8F081BA370000CB3700000FB40A4B13B51C6824B1A36913B9204601F098F805AB2046A168049A019301F08B
:4018C0002DFD02B0BDE8104004B070477081FF1F70B50E46054618B183690BB901F082F8AC68A389190701D5236983B92846214600F0D8F858B14FF0FF3070BD002B0EDBAA
:40190000236816F8012C1A70236801332360A36816F8012B013BA360002AEFD116E0A269934209DB236816F8012C1A70236819780A29EAD1284602E0284616F8011C224642
:4019400000F05CF8421C50425041D3E7002B15DAA269934208DB23680A221A702368197891420FD1284601E028460A21224600F045F8431C5842584130B1BCE723680A22B1
:401980001A702368013323600A2070BD024B01461868FFF79DBF00BF7081FF1F31F0004310B51BD00F4AA1F58014944210D901F1FF410C4A01F5E001914209D9B3F5801F1F
:4019C00008D3094A934207D1B0FA80F0400910BD042010BD032010BD002010BD0028E6D1022010BDFFFFDF7F0000F07F034613F8012B002AFBD1181A0138704770B50D4665
:401A00001446064618B183690BB900F0EBFF224B9C4201D1746808E0204B9C4201D1B46803E01F4B9C4208BFF468A369A360A3891A0709D523693BB123682069EDB2181AB0
:401A4000636998420FDB08E03046214600F02AF80028F1D04FF0FF3070BD3046214600F057FF0028F6D1A3680130013BA36023685A1C22601D706369984204D0A389DB0756
:401A800007D50A2D05D13046214600F041FF0028E0D1284670BD00BFEC3700000C3800002C380000314B70B51D6806460C4625B1AB6913B9284600F095FF2D4B9C4201D19E
:401AC0006C6808E02B4B9C4201D1AC6803E02A4B9C4208BFEC68A3899AB211071DD4D50602D40922326038E0500712D5616B41B104F14403994202D0304601F04DFB0023E1
:401B00006363A38923F02403A3810023636023692360A38943F00803A38123694BB9A38903F42073B3F5007F03D03046214600F0E5FFA38913F0010205D00022A2606269EB
:401B40005242A26103E0990758BF6269A26022694AB903F0800080B230B143F04003A3814FF0FF3070BD002070BD00BF7081FF1FEC3700000C3800002C3800002DE9F74FDC
:401B800003690C698046A3427EDB013C01F114074FEA840E00F1140606EB0E0357F82450019356F824300135B3FBF5F507EB0E09BDB34FF0000A3846B446D34650F8043B7D
:401BC0009AB21B0C02FB05A26B4303EB124392B2C2EB0B0BBCF800204FEA134A5A441FFA83FBDCF800304845CBEB134303EB224392B242EA03424FEA234B4CF8042BDDD9C2
:401C000056F80E306BB9019B043BB3421A4602D8C8F8104005E01268043B002AF8D1013CF3E7404601F0DDF900282BDB304601354FF0000E57F8042B036891B2C1EB0E0ECA
:401C4000120C99B27144C2EB134303EB214389B24FEA234E4F4541EA034340F8043BE9D956F8242006EB840362B9043BB3421A4602D8C8F8104005E01268043B002AF8D19A
:401C8000013CF3E7284600E0002003B0BDE8F08F2DE9F04F456A95B08246219CCDE9022345B9102000F076FFCAF82400456085600560C560DAF82430196859B15A680123FB
:401CC00093404A608B60504600F0AFFFDAF8243000221A60039BA24A002BBDBF01232360039B0023BCBF23F000430393039FA8BF236027F000431B0D1B0593421DD142F261
:401D00000F73209A1360029B43B9964A964BC7F31300002814BF1846104600E09248229B002B00F06985C37813B100F1080300E0C31C229A136000F05FBDDDE9024500227A
:401D4000204629460023FFF7CFF8804658B1209A01231360229B002B00F03C8583481860013800F049BD13AB009312AB0193504622462B4601F0B0F9C7F30A5607905EB118
:401D8000C5F3130343F07F51204641F44011A6F2FF36CDF844801DE0139B129E1E446FF482639E42A1BF029A06F2124322FA03F06F4BB7BF6F4B9B1B029A9B1BAABF9F4099
:401DC00002FA03F03843FEF7B1FD0123A1F1F871013E11930022684BFEF76AFC5AA3D3E90023FEF719FE5AA3D3E90023FEF762FC044630460D46FEF7A9FD57A3D3E9002306
:401E0000FEF70AFE02460B4620462946FEF752FC04460D4601F046FC29468346002220460023FFF76BF858B15846FEF78FFD02460B4620462946FFF757F808B90BF1FF3B16
:401E4000BBF1160F0DD84D4B03EBCB03D3E90001DDE90223FFF770F830B10BF1FF3B002300E00123109300E01090129B9E1B731E0A9345BF5B420993002300234CBF0A9332
:401E80000993BBF1000F07DB0A9BCDF834B05B440A9300230B9308E0099BCBEB03030993CBF100030B9300230D931E9B092B29D8052BC4BF043B1E931E9BC8BF0025A3F110
:401EC0000203D8BF0125032B21D8DFE803F0020E0410002300E001230C931F9B002B20DC0123069305931A4619E0002300E001230C931F9B5B4406930133012B0593B8BF9F
:401F0000012311E0012500231E930C9501E001230C934FF0FF3306930593002212231F9202E01F9B06930593DAF8244000226260042101F114029A4222D862684900013273
:401F40006260F6E7AFF3008061436F63A787D23FB3C8608B288AC63FFB799F501344D33F0000F07FDC370000E5370000B93700000EFCFFFFEEFBFFFF0000F83F58380000BE
:401F80005046616800F01CFEDAF8243020601B680893059B0E2B00F24781002D00F04481DDE90223BBF1000FCDE90E2331DDB14A0BF00F034FEA2B1602EBC303F006D3E9FD
:401FC00000450CD5DDE90E01AB4B06F00F06D3E90823FEF74BFE0327CDE9020100E00227DFF8948276B1F10708D5D8E9002320462946FEF711FD04460D460137761008F1DB
:402000000808EFE7DDE9020122462B46FEF72EFE1BE0CBF10004DCB1DDE90E01954B04F00F0203EBC203D3E90023FEF7F5FC924D241102274CB1E20704D5D5E90023013768
:40204000FEF7EAFC64100835F4E7CDE9020100E00227109BDBB1DDE90245002220462946864BFEF74BFF90B1059B83B1069B002B40F3D680294620460022814BFEF7CCFC02
:402080000BF1FF36CDE902010137069D01E05E46059D3846DDE90289FEF758FC42464B46FEF7BAFC774B0022FEF704FBCDE90201039BA3F150740394CDB94046494600227D
:4020C000714BFEF7F5FA029A234680468946FEF733FF002840F0408240464946029A04F10043FEF70BFF002840F0308298E0614B0C996A1E03EBC203002947D0D3E9002350
:4021000000206249FEF7B2FDDDE90223FEF7D0FACDE90201089C4946404601F0C3FA0746FEF714FC02460B4640464946FEF7C0FADDE90223303704F8017B80468946FEF763
:40214000DDFE002840F0378342464B4600204B49FEF7AEFADDE90223FEF7D0FE002840F0D080089BE31AAB425ADADDE902010022434BFEF751FC0022CDE90201404B40464A
:402180004946FEF749FC80468946C4E7D3E90001DDE90223FEF740FC089BCDE902015C191D464946404601F07DFA0746FEF7CEFB02460B4640464946FEF77AFA303705F806
:4021C000017BA5428046894623D100222F4BDDE90201FEF76FFA02460B4640464946FEF7ABFE002840F08D80DDE9022300202749FEF75EFA02460B4640464946FEF77EFE98
:4022000070B114F8013C621E302B40F0D4821446F7E700221A4BFEF7FFFB80468946C0E7DDE90E23CDE90223139B002BC0F28A80BBF10E0F00F386800E4B03EBCB03D3E9EF
:4022400000671F9B002B23DA059B002B20DC40F07C81304600220C4B3946FEF7DDFBDDE90223FEF75FFE059D2E46002840F06F8174E100BF58380000203900000000F03F1F
:402280000000244000001C40000014400000E03F089CDDE9028932463B4640464946FEF7E5FC01F0FFF90546FEF750FB32463B46FEF7B2FB0B46024649464046FEF7F8F96F
:4022C00005F1300E089B04F801EBC3EB040E059B9E452AD102460B46FEF7ECF932463B4680468946FEF728FE70B94046494632463B46FEF7F9FD002800F05E82EB0703D4E2
:402300005AE2B34600E01C4614F8012C631E392A07D1089A9342F6D13023137013460BF1010B1A7801321A7046E20022A34BFEF773FB0022002380468946FEF7D5FD002809
:40234000A9D039E20C9A002A32D01E9A012A0ADC119A12B103F2334302E0129BC3F136030B9D099C18E0059B5D1E0B9BAB42B7BF0B9B5D1BEA1A0D9BBEBF0B959B180D9336
:40238000059BB8BF0025002BB9BF099B059A099C059BBCBF9C1A0023099A50461A4409920A9A01211A440A9200F0E1FC064602E00B9D099C0C9E64B10A9B002B09DDA342CE
:4023C000A8BF2346099AE41AD21A09920A9AD31A0A930B9B002B20DD0C9BC3B1002D10DD31462A46504600F05BFD0646079A3146504600F0C5FC07460799504600F015FCC0
:4024000007970B9B5A1B08D05046079902E0504607990B9A00F044FD07905046012100F0A6FC0D9B0546002B0ADD29461A46504600F036FD1E9B0546012B04DD00271BE046
:402440001E9B012B13DC029B8BB9039BC3F313037BB9039B23F000473F0D3F0557B1099B0127013309930A9B01330A9302E0002700E0029F0D9B43B12B6905EB83031869B6
:4024800000F028FCC0F1200000E001200A9B184410F01F0008D0C0F12003042B02DDC0F11C0002E008D018461C30099B0444034409930A9B03440A93099B002B05DD50468C
:4024C00007991A4600F03AFD07900A9B002B05DD294650461A4600F031FD0546109BEBB10798294600F07DFD002817DA0023504607990A2200F0B0FB0C9B0BF1FF3B079032
:40250000002B00F06B813146002350460A2200F0A3FB069B0646002B33DC68E1059B002B26DC1E9B022B23DD059B0693069B73B929460522504600F08FFB05460798294682
:4025400000F04FFD002809DC01E000252E461F9B089C6FEA030B08E0B3462E46089B089A5C1C312313700BF1010BB14600260FE10C9B23B9059B0693089F079CC9E0059B86
:402580000693002C05DD31465046224600F0D6FC0646AFB17168504600F012FB0446326906F10C01023292000C30FEF7FBFC50462146012200F0C2FC814602E00000244073
:4025C000B146089F079C29462046FFF7D7FA3146099000F13008204600F003FD4A4605902946504600F019FDC26803463AB919462046079300F0F5FC079B024600E00122AC
:4026000050461946079200F010FB079A92B91E9B83B9029B03F0010363B9B8F1390F3B4607943ED0059B7C1C002BC4BF099B03F131083DE0059B002B04DA002AC446079419
:4026400008DC21E024D11E9B13BB029B03F00103F3B9F2E72146012250460597CDF8088000F06CFC2946079000F0BBFC0028DDF808C0059B03DC07D118F0010F04D0B8F121
:40268000390F0ED008F1010C7C1C87F800C07FE0002A07F101020EDDB8F1390F3B46079403D1392201371A7057E0144608F1010887F800806CE0089B1746D31A02F8018C58
:4026C000069A93423AD021460A220023504600F0C3FA4E450446314650464FF00A024FF0000304D100F0B8FA064681466BE700F0B3FA494606460A225046002300F0ACFA1C
:40270000814660E7214650460A22002300F0A4FA044620462946FFF731FA089B00F1300807F8018B069AFB1A9342EBDB089BB146012AACBF9B1801331F460026214601229E
:40274000504600F0FBFB2946079000F04AFC002803DC15D118F0010F12D03C4614F8013C621E392B09D1089B9A4204D10BF1010B3123089A02E01446F0E70133137007E02E
:402780003C4614F8013C621E302B01D11446F8E75046294600F049FAB9F1000F0CD02EB14E4503D05046314600F03FFA5046494600F03BFA00E0B3465046079900F035FAA8
:4027C0000023209A23700BF101031360229B1BB11C6001E00A480FE008980DE0069B002B3FF7CAAE1E9B022B3FF7A0AEC4E61E9B022B3FF79BAEC4E615B0BDE8F08F00BFFD
:40280000B8370000AFF300808A892DE9F041054610070C4657D44B68002B02DC0B6C002B18DDE66AB6B102F48052002392B22F682B600AB1626D10E0216A28460123B04765
:40284000411C024609D12B683BB11D2B01D0162B46D12F600020BDE8F081A3895B0705D56368D21A636B0BB1236CD21AE66A00232846216AB047461CA38905D12A681AB1DC
:402880001D2A01D0162A19D1002262602269D904226004D5421C01D12B6803B96065616B2F600029D6D004F14403994202D0284600F072FC00206063BDE8F08143F040039D
:4028C000A381BDE8F0810F69002FC3D093070E680CBF4B690023C7EB06080F608B6012E0A3894FF0FF3043F04003A381BDE8F0812846216A3A464346A66AB0470028EFDD5F
:402900000744C0EB0808B8F1000FF1DCA2E7000038B50B6905460C46DBB118B183690BB900F060F80C4B9C4201D16C6808E00B4B9C4201D1AC6803E0094B9C4208BFEC682B
:40294000B4F90C302BB128462146BDE83840FFF75BBF002038BD00BFEC3700000C3800002C380000014900F0A7B800BF1129000010B5044600230360436083608181436699
:40298000C28103614361836119465C300822FEF714FB054B24626362044BA362044BE362044B236310BD00BF4D3500006F350000A7350000CB35000070B568234D1E5D432E
:4029C0000E4605F1740100F02BFC044640B1002180E842000C30A06005F16802FEF7EDFA204670BD836910B5044633BB8364C3640365124B124A1B688262984204BF0123B0
:402A0000836100F01FF86060204600F01BF8A060204600F017F80421E06000226068FFF7A7FFA06809210122FFF7A2FFE06812210222FFF79DFF0123A36110BDA437000045
:402A400065290000F8B51B4B07461E68B36913B93046FFF7C7FF4836B4687368013B04D4B4F90C5075B16834F8E733682BB938460421FFF7A1FF306008B13668ECE70C23F4
:402A80003B60F8BD4FF6FF73E3810123A38165662560A560656025616561A56104F15C0029460822FEF789FA6563A563A564E5642046F8BDA43700002DE9F8438046894697
:402AC00000F14804002694B1A5686768013F0CD4AB89012B07D9B5F90E30013303D040462946C84706436835F0E72468EBE73046BDE8F883004870477481FF1FF0B58B897F
:402B000091B09D0706460C4625D4B1F90E10002908DAA389002513F0800F14BF40274FF480670DE001AA00F077FD0028F1DB029D4FF4806705F47045A5F500514D424D4190
:402B40003046394600F06CFB60B9A3899A051DD443F00203A38104F14703236023610123636113E00A4BB362A389206043F08003A381206167614DB13046B4F90E1000F04F
:402B80005DFD18B1A38943F00103A38111B0F0BD65290000024B0146186800F041BB00BF7081FF1F10B5C9B202449042034605D01C7801308C42F8D1184610BD002010BDB7
:402BC00070B5456A04460E463DB91020FFF7E2FF6062456085600560C560656AEB6843B1636ADB6853F8260078B1026843F8262017E020460421212200F0C0FA636AE86061
:402C0000DB68002BECD1002070BD012101FA06F56A1D2046920000F0B1FA0028F3D04660856000230361C36070BD70B5446A06460D463CB91020FFF7ADFF7062446084600A
:402C40000460C4603DB1736A6A68DB6853F82210296043F8225070BD2DE9F04106460C460F69984601F1140E0023DEF80000013385B2010C02FB0585514301EB1541ADB290
:402C80004FEA1148BB4205EB01414EF8041BECDBB8F1000F1BD0A3689F4212DB616830460131FFF78DFF0546226904F10C01023292000C30FEF776F921463046FFF7B5FFF3
:402CC0002C4604EB87030137C3F8148027612046BDE8F081030C1B0413B90004102300E0002310F07F4F04BF0002083310F0704F04BF0001043310F0404F04BF800002339B
:402D0000002803DB420003D5581C70471846704720207047036813F007020BD0D90722D49A074BBF5B089B08036003604CBF01200220704799B209B91B0C102213F0FF0F21
:402D400004BF1B0A0832190704BF1B090432990704BF9B080232D90702D45B0805D00132036010467047002070472020704710B50C460121FFF724FF01224461026110BD11
:402D80002DE9F74F14460A69236988469A42BEBF0B46A0461C46D8F81070D4F81090D8F80830D8F8041007EB09069E42C8BF0131FFF706FF00F114052B4605EB860C6345BC
:402DC00003D2002243F8042BF9E704F1140208F1140102EB890301EB87070093009B01929A4257D2B2F800B0BBF1000F23D08946AE464FF0000859F8044BBEF800A0A3B263
:402E00000BFB03A34FEA144ADEF8004043444FEA14480BFB0A84F24604EB13449BB243EA04434F454FEA14484AF8043B01D9D646E1E7CEF80480019B0432B3F802A0BAF1CE
:402E4000000F21D02C4689462B684FF00008B9F800E0B4F802B09BB20AFB0EBEA346F04443EA08434BF8043B59F8043BB4F804E01B0C0AFB03E3B94503EB18434FEA134806
:402E800001D25C46E3E763600435A7E75CF8043D13B9013E002EF9DC066103B0BDE8F08F12F003032DE9F04106460F46154607D0214A013B52F823200023FFF7CDFE0746E1
:402EC000AD1035D0746A3CB91020FFF763FE7062446084600460C460D6F82480D8F808407CB9304640F27121FFF741FF0023C8F808000446036004E06D1019D0206870B11A
:402F00000446EB07F8D5394622463046FFF738FF804639463046FFF788FE4746ECE7304621462246FFF72CFF002320600360E7E73846BDE8F08100BF483900002DE9F0470C
:402F40000C460746164623694FEA621A0AEB03094968A36809F101059D4202DD01315B00FAE73846FFF72CFE804600F114010023534504DA002241F823200133F8E72AEA64
:402F8000EA73206901EB830316F01F0204F1140101EB800E14D0C2F1200C00200E689A469640304343F8040B51F8040B714520FA0CF0F3D3CAF8040048B109F1020506E0B2
:402FC000043B51F8042B714543F8042FF9D3013D3846C8F810502146FFF727FE4046BDE8F08703690A6910B59B1A11D192001430143183180A4453F8044D52F8041D8C4216
:4030000002D007D3012010BD8342F4D8002010BD184610BD4FF0FF3010BD2DE9F84307460C46084611461546FFF7DBFF061E08D138463146FFF7C4FD012303614661BDE8D5
:40304000F883BCBF23462C4638466168BABF1D4601260026FFF7B4FD2B69C660266905F1140904F1140101EB860709EB830800F114054FF0000C51F8042B59F8044B93B258
:403080009C44A3B2240CC3EB0C03C4EB124202EB23429BB24FEA224CC84543EA02428E4645F8042BE7D8BE450ED25EF8043B9AB262441B0C03EB224392B242EA03424FEA56
:4030C000234C45F8042BEEE755F8043D0BB9013EFAE70661BDE8F8832DE9F3411C4601211546089F099EFFF76BFDC4F31302C4F30A5480460CB142F480120192EDB102A84B
:4031000040F8085DFFF706FE009B50B1019AC0F1200102FA01F10B43C240C8F81430019201E0C8F81430019B002B14BF02250125C8F81830C8F8105009E001A8FFF7EAFDB7
:40314000019B0125C8F81430C8F81050203034B1A4F2334404443C60C0F1350009E0A0F2324008EB850338601869FFF7B3FDC0EB45103060404602B0BDE8F08138B502FB6E
:4031800001F4214600F04CF8054618B100212246FDF713FF284638BD30B500293CD051F8042C0B1F1D49002AB8BF9B180A680C4612B95A600B6030BD93420DD219685818BC
:4031C000904201BF5A5852181A60426823605A6030BD994203D80A4651680029F9D1146815199D420AD11B682344D0188842136012D10868034413604B680CE002D90C23F8
:40320000036030BD1C681819884201BF08684968001918605960536030BD00BFD481FF1F70B5CC1C24F0030408340C2C38BF0C24002C064603DA0C233360002070BD8C42CD
:40324000F9D3204A136810461946A1B10A68121B0ED40B2A03D90A608B188C501FE08B420BBF5A684A6802605A6018BF0B4616E00B464968E9E7144D2B681BB9304600F0D7
:4032800055F928603046214600F050F9421C0346D1D0C51C25F0030585420AD11C6003F10B001A1D20F00700821A0AD05142995070BD3046E91A00F039F90130BBD02B468A
:4032C000ECE770BDD481FF1FD081FF1F936810B5013B002B936009DA9469A34202DBCBB20A2B03D1BDE81040FEF788BB1368581C10601970C8B210BDF8B506460F461446A6
:40330000D518AC4208D0304614F8011B3A46FFF7DDFF431CF5D100E00020F8BD2DE9F0439DB00D4690460393064618B183690BB9FFF758FB754B9D4201D1756808E0744BB8
:403340009D4201D1B56803E0724B9D4208BFF568AB891C070AD52B6943B10023099320238DF8293030238DF82A3041E030462946FEF798FB0028F0D04FF0FF30C2E0039AE9
:403380000134111D12680391002ABBBF524243F0020307920792B8BF049323782E2B7BD0DFF88081217840460322FFF7FBFB38B1049AC8EB00004023834013430493013423
:4033C00021785548062204F101088DF82810FFF7E9FB002800F08580504B002B78D1039B073323F0070308330393099B3B44099343461C4613F8012B1AB9B4EB08090ED0A6
:4034000002E0252AF5D1F8E73046294642464B46FFF772FF013070D0099B4B4409932378002B6AD000234FF0FF3204930793059206938DF853301A9304F101084446DFF809
:40344000E890217848460522FFF7ACFB08F10108049B30B1C9EB00000122824013430493ECE7D80644BF20228DF85320190744BF2B228DF8532022782A2A80D02346079944
:403480001C4622780133303A092A03D80A2000FB0121F5E7079180E763782A2B0AD1039B02341A1D1B680392002BB8BF4FF0FF33059375E7611C00220C4623780131303BE4
:4034C000092B03D80A2000FB0232F5E7059267E703AB0093304604A92A46114BFDF704FE07E003AB0093304604A92A460C4BFEF7B7F8421C07467FF478AFAB895B063FF5B9
:403500003BAF09981DB0BDE8F08300BFEC3700000C3800002C3800005E390000E9100000F93200005A3900005439000038B5064C0023054608462360FCF700FE431C02D115
:40354000236803B12B6038BDD881FF1F10B50C46B1F90E1000F094F80028ABBF636DA3891B1823F48053ACBF6365A38110BD2DE9F0411D468B890746DB050C46164605D578
:40358000B1F90E100022022300F068F8A389384623F48053A381B4F90E1032462B46BDE8F04100F017B810B50C46B1F90E1000F055F8431CA38915BF606523F4805343F44A
:4035C0008053A38118BFA38110BDB1F90E1000F013B8000038B5074C054600202060084611461A46FCF79AFD431C02D1236803B12B6038BDD881FF1F38B5064C00230546BA
:403600000846236000F076F8431C02D1236803B12B6038BDD881FF1F38B5074C0023054608461146236000F06DF8431C02D1236803B12B6038BD00BFD881FF1F38B5064C62
:40364000002305460846236000F064F8431C02D1236803B12B6038BDD881FF1F38B5074C054600202060084611461A4600F05AF8431C02D1236803B12B6038BDD881FF1F7D
:4036800038B5074C054600202060084611461A4600F050F8431C02D1236803B12B6038BDD881FF1F4FEA410212F5001215D211D56FF47873B3EB625212D94FEAC12343F0FD
:4036C000004343EA505311F0004F23FA02F018BF404270474FF00000704750EA013005D111F0004008BF6FF0004070474FF00000704700BF024B58221A604FF0FF30704798
:40370000D881FF1F024B58221A604FF0FF307047D881FF1F024B58221A600020704700BFD881FF1F024B58221A604FF0FF307047D881FF1F024B58221A604FF0FF307047A4
:40374000D881FF1F0000000025642025642025640D0A000053746172740D0000C84900401900405100403000000001400010001401408006001B0140000100400140000A46
:40378000004C0140000200500140200060520040980C00480600801A0140A00C00488000430000001081FF1F494E4600696E66004E414E006E616E00300030313233343511
:4037C00036373839414243444546003031323334353637383961626364656600496E66696E697479004E614E000000000000000000000000000000000000000000000000AD
:403800000000000000000000000000000000000000000000000000000000000000000000000000000000000000000000000000000000000000000000000000000000000088
:40384000000000000000000000000000504F534958002E0000000000000000000000F03F000000000000244000000000000059400000000000408F40000000000088C340C1
:4038800000000000006AF8400000000080842E4100000000D01263410000000084D797410000000065CDCD41000000205FA00242000000E876483742000000A2941A6D4279
:4038C000000040E59C30A2420000901EC4BCD64200003426F56B0C430080E03779C3414300A0D8855734764300C84E676DC1AB43003D9160E458E143408CB5781DAF1544C7
:4039000050EFE2D6E41A4B4492D54D06CFF08044F64AE1C7022DB544B49DD9794378EA440080E03779C34143176E05B5B5B89346F5F93FE9034F384D321D30F94877825A4E
:403940003CBF737FDD4F157505000000190000007D000000232D302B2000686C4C0065666745464700000000F8B500BFF8BC08BC9E4670474D000000B9010000F8B500BF28
:40398000F8BC08BC9E46704729000000A03900000881FF1FA8000000300000000000000000000000E081FF1F00000000EC3700000C3800002C380000000000000000000029
:4039C0000000000000000000A037000000000000000000000000000000000000000000000000000000000000000000000000000000000000000000000000000000000000F0
:403A000000000000000000001081FF1F52380000593900005939000059390000593900005939000059390000593900005939000059390000FFFFFFFFFFFFFFFFFFFFFFFF37
:403A4000FFFF000000000000000000000000000000000000000000000000000000000000000000000000000000000000000000000000000000000000000000000000000048
:403A80000000000000000000000000000000000000000000000000000000000000000000000000000000000000000000000000000000000000000000000000000000000006
:403AC00000000000000000000000000000000000000000000000000000000000000000000000000000000000000000000000000000000000000000000000000000000000C6
:403B00000000000000000000000000000000000000000000000000000000000000000000000000000000000000000000000000000000000000000000000000000000000085
:403B40000000000000000000000000000000000000000000000000000000000000000000000000000000000000000000000000000000000000000000000000000000000045
:020000040003F7
:0200000480007A
:4000000005520040066400400365004002010140010301400605014060060140480701405008014051090140560A01404C0B0140570C01404F0D0140680E0140390F0140DD
:400040004E1401404A1501405A160140591701404D180140581901401C1A0140501B0140084001400141014005420140014301400345014003470140084801401349014005
:400080001C4C01400A4D01400750014002510140082009200C6018401940270F37088738890F8C0F8F0F2704850F8972E208E6088C80810184108C40A480E204E60A0022C4
:4000C00001CC0205031304FF0701083A09A50A040B4A0C010D4D0F9210031304141015A91607175418011B021C031FB520C0210222072408250426072801291A2B602C051D
:400100002DFF2E78327F348035FF38203E043F10580459045C015F0181068501880189018B1E8D0A8F10951C970299189B069D029F18A102A401A504A912AB08AD1FB31F07
:40014000B401B820B908BE10C024C502C650C809C9FFCAFFCBFFCC42CDA0CE70D008D110D418D804D904DA04DB04DC10DD31DF01E148E240E348E480E548E680E74800200C
:400180000480051007640C140D080E41102014A01601171018041E201F1021042708280429052A802C102D012EA12F093110334834803501371439493B203C013D6840440F
:4001C000481051105A026220630280A081408221841088208A028C018D089080981099019A809B30A004A104A480A904AA80AB20AC04B710C0F2C2F0C4F4CAFFCCFECEFF5C
:40020000D005D601D80CE008E601EA05EE0201180201072009010A010D010E04111015181E0422062404270829022B042D022E042F043002312032043307340137183988F3
:400240003E143F44580459045C115F018010820C831C8C1C8D1C8E028F03942095019603970E9C099E109F08A010A414A703A80CAA11AD01AF16B10FB21FB31AB620BB0A84
:40028000BE40C052C106C50BC6CEC80DC9FFCAFFCBFFCEF0CF44D00CD401D804D904DA04DB04DC33DD33DF01E6C0EA40EB020002020204620A200B020F0110A01208150489
:4002C0001640174019401A201C401F14220A24802508274129082B012C102D0A2E442F4A30803208360A39403A103B123C863F12420448214A08536059125A887D407E0284
:4003000082018714884089408D02910492909302941095419640974C9A049C129F58A102A204A309A609A720A909AA10AD04AE20B010B180B308B620C0D9C285C4BECA7A3F
:40034000CCCACEF9D004D20CD60FE202E630EE400501130117012601320133013F044054420649FF4AFF4BFF4F0150185280580459045A045B045F016040624064406540BC
:40038000668068806A806C806E8080288202842F880189018C228E0990039304941F9A019C109E0B9F02A003A401A820AA14AC20AE0BAF04B21FB301B502B620B704B880FB
:4003C000BE40BF40C054C206C9FFCAFFCBFFCD83CE03CF01D018D2F6D420D604D804D904DA04DB04DC11DD10DF01E040E240E440E540E680E880EA80EC80EE80020403087C
:40040000058207140C200D080E020F8013041581162419041D401F082310250826602F02300231043202360237403B043D1040804302448048024B104C024F105C1A5F4095
:400440006540660267086C206D1070027501762977048201860A8C208D028E0491809280930295419640971098089C109E259F0CA102A204A343A412A508A649A728C0F050
:40048000C2F0C4F4CA10CC93CE22D081D23CD6F0D8B0E61000920146026003A904010801092A0B540C3D0EC20F01100D1180135614E215401713184019FF1A1D1EFF2208DC
:4004C000240426E0285D29332AA22B0C2D0E2E022F3030FF31FF3E014054420645EC4720482349FF4AFF4BFF4D834E034F01501854035604580459045A045B045C105F01FC
:400500006040624064406540668068806A806C806E808B028E028F0495049A029B049C029D039E01A303A704AB01AD04B001B402B503B704BA20BB20BF40D804D904DC224A
:40054000DF01004006200745084009200A020D080E2A0F80150116051708184019121D01213022402502274029122B212E402F0830583208361539603C203E013F80408072
:40058000414042414341450149804A014C024D044F11550157025D045E805F1166028008828086018C808E088F4093029440954096039C109D919E0A9F08A284A301A4089C
:4005C000A520A618A728B484C0F1C2F3C4F0CA3FCCEECEBCD080D230D6F0D880E440E6020406060808060A080E010F0210061103121819021A0A1C01221029022C142E08B3
:40060000301E3101330234013A023E103F014054420249FF4AFF4BFF4F015018580459045A045C235D025F016040624064406540668068806A806C806E8081608310853000
:4006400087468F01930894019520975099109B849C019D109FE0A101A402A570A702A970AB02AE01AF02B003B30EB501B7F0B802BB88BF10C045C206C5ECC602C807C9FF1A
:40068000CAFFCBFFCD83CE03CF01D018D403D604D804D904DA04DB04DC13DD22DF01E040E240E440E540E680E880EA80EC80EE8000400208032008500A420C080F021141B4
:4006C000141015401A4C1B011F012102220223102408250426C429102C402D802E082F0831203201350136503708384039013B023D083E013F80428445024A024E044F8537
:40070000568057405C805F15678086028740C007C2ABC4A9CAF4CCF5CED8D085D238D6F0D8800103020304020601080109020A060C010E021203130115021A031B021C0195
:400740001E042608270429032E082F0230083103320737043A083E01580459045C115F0186048B08910494019A07A709AB07AE08B001B104B202B301B408B508B604B702CA
:40078000BF10C020C106C5D1C620C705C81BC9FFCAFFCBFFCDA0CF04D018D280D407D804D904DA04DB04DC44DD44DF01E040E2C0E440E540E6C0E8C0EAC0ECC0EEC0001ADA
:4007C0000202040408200A800B020E200F081022174018101B011C041DA01E601F202002214324802608270A282129102F28310232103304370238203B023F2045204F296A
:4008000057185E405F29774080628320850188208A018D808E0A902092A0930295809602980199109B04A004A701A820AA30AB80B620B740C02FC26BC485CA6ECC87CE25BB
:40084000D020D220D6F0E214E402E644EA04EC02EE0400110121020803020404050606010720081109250A020B0A0C050D010F0210011120120E171018051B401D081E108D
:400880001F0521202302240529012B042C042D2F2E01300F3360351F36103A02580459045C115F01840A890F8C0A900A9320940A9510970199109B029C049F08A104A20982
:4008C000A308A40AA714AB18AC10AD3FB018B33FB407B822B908BE11C024C403C50BC60DC805C9FFCA7FCBFFCC42CDA0CE70D00CD804D904DA04DC10DD01DF01E109E240C2
:40090000E309E430E509022105100691088109010A200C200D030E0110A0114014201740184419101D021E0120102420251C262028A02A902E902F80302031083202334089
:40094000348035013610370839203D2A3E40400442204301490450808030821083048401861089018A018C108D408E41912092409302944095809603988099019A809B0988
:400980009C209D049E019F44A004A212A480A510A701A880A940AA40AE20B104B301C0F5C2DDC4ADCABFCCFFCEF4D007E20BE403E608E801EA02EE02000F010803240601CE
:4009C000070C09040A080B180D010E0F0F421208130C1410170C1A041B0C1C0F1D011F02210C220F241029042A022B102C102D0C300F3140331C35203610370338803B088D
:400A00003E014004454049FF4A074BFF4C404D204EF04F055008580459045A045C115D035F01604061A86240632081018306855F895F951497099D40A90AAB31B107B318C7
:400A4000B520B740D602D710D904DB04DC30DD30DF01008002010440064807580C010D020E1A148816151C801E0220022149222023202414268027402A202C012D022E10C1
:400A80003108324034883601371039163C103D403E083F0247014C804D085A4069146A8070087206808082048502880289018B018D408E808F5690C0921093809436950186
:400AC000960897409A149B019C029D089E409F18A102A204A4C0A601A702AB01AF10B108B510B720C0F0C2F0C4F0CAB4CCFACEF7D080D608E020E258E4C3E608EA02EC802E
:400B0000EE2002C304E7061808800CC00D0110FF14FC160118081C3C1EC22010260428182C443020330134D8361F3AA03B803E013F04580459045C335F010006020403012B
:400B400004010514080109090A860C080D400E240F80100A11011220150A16061721180419101A421B701D8C1F18200122442402250226022F283401361037043B803D01AB
:400B80003E063F80458147044C104E024F205702804083028740880289068A208B108C4090C09182920493809422964897409A029B249E20A009A220A804A902AA04B54082
:400BC000B608C07FC2FFC4FFCA60CCE0CED8D0D0D230E220E630E810EC0230023380361084028610CC70E210E610A7803C808780A780CE20E610A44000088404C008851027
:400C00008B01E001848085088620AC40E210E440E610EA40110414805B026601722075088E018F02950499089A209C80AD04C430D640D880DC80DE20EC400B020D100E2051
:400C40001240138014405904662079027F0881048440864087088A1095209A209F80A301AF80B220C207C40ED602D801DE03E201EC0110807B018880A301AD01B701C40804
:400C8000DC01E601EA02000F0A0A0C0B0E0F101A1A121C0A003F03C002800000430000001F0800001804070007001800000E0001180F070018000002080C0000000007000F
:400CC000030020000103400C020C400310000000000E1C0003006001008008000000400063040500010E00C021FFFFFF62A0F0410C000000000000000404040033030001EF
:400D000000000000000040020010301000101012000000000000000000000000000000000080800000000000830040808300830000000000000101000000000060008000C4
:400D40006000600000000000010000000000000000E0E000600000000000000000000000000000000000000000000000000000000000000000000000000000000000000092
:400D80000000000000000000000000000000000000000000000000000000000000000000000000000000000000000000000000000000000000000000000000000000000033
:400DC00000000000000000000000000000000000000000000000000000000000000000000000000000000000000000000000000000000000000000000000000000000000F3
:400E000000000000000000000000000000000000000000000000000000000000000000000000000000000000000000000000000000000000000000000000000000000000B2
:400E40000000000000000000000000000000000000000000000000000000000000000000000000000000000000000000000000000000000000000000000000000000000072
:0200000490006A
:0400000000004005B7
:0200000490105A
:04000000BC90ACAF55
:0200000490303A
:020000004A268E
:0200000490402A
:4000000000000000000000000000000000000000000000000000000000000000000000000000000000000000000000000000000000000000000000000000000000000000C0
:400040000000000000000000000000000000000000000000000000000000000000000000000000000000000000000000000000000000000000000000000000000000000080
:400080000000000000000000000000000000000000000000000000000000000000000000000000000000000000000000000000000000000000000000000000000000000040
:4000C0000000000000000000000000000000000000000000000000000000000000000000000000000000000000000000000000000000000000000000000000000000000000
:0200000490501A
:0C00000000012E16106900012E305A8FEE
:00000001FF