:400000000080002011000000590200005902000008B5044B1A6803F53F5302331A6000F035F900BFFA46004010B5054C237833B9044B13B10448AFF300800123237010BD93
:400040008881FF1F00000000B8180000084B10B51BB108480849AFF300800848036803B910BD074B002BFBD0BDE81040184700BF00000000B81800008C81FF1F0881FF1FA1
:4000800000000000F8B500F005FF044600F0F0FE074600F0DBFE064600F03EFF054614F0400F09D000F0FCFE044600F0FFFE201A80B2314B988003E000F0F2FE2E4B9880FC
:4000C00017F0400F09D000F0D9FE044600F0DCFE201A80B2284BD88003E000F0CFFE264BD88016F0400F09D000F0B6FE044600F0B9FE201A80B2204B188003E000F0ACFEA7
:400100001D4B188015F0400F09D000F00BFF044600F00EFF201A80B2174B588003E000F001FF154B58800C2000F0D2FE012000F0C3FE0C2000F0E4FE012000F0D5FE0C20D4
:4001400000F078FE012000F069FE0C2000F002FF012000F0F3FE0A2000F0F6FD022000F0B7FE022000F0CCFE022000F063FE022000F0F0FEF8BD00BFD081FF1F00B583B094
:400180008DF8040000238DF800306B2001A90122022300F05BFC00F027FD10F0020FFAD06B2069460122134600F0B6FC00F01CFD10F0010FFAD09DF8000003B05DF804FB54
:4001C00000B583B08DF804008DF8051000F028FD6B2001A90222002300F038FC00F004FD10F0020FFAD003B05DF804FB08B5104800F006FE62B600F057FD00F059FA00F0D4
:40020000ABFA0C4800F050FF0B4800F04DFF00F0A3FA012000F0CEFD2020FFF7AFFF20200F21FFF7CDFF4FF47A7000F077FDF3E785000000E0180000E418000070B5164613
:40024000002405E04D1C087800F03CFD01342946B442F7DB304670BDFEE700BF08B5094B1A681044084BC31AB3F5007F02DC054B186005E000F07AFE0C2303604FF0FF327D
:40028000104608BD0C81FF1FF081FF1F08B5104E104D16E029686B68AC68002204E051F8040B43F8040B0432A242F8D1E868002203E0002143F8041B04328242F9D110359F
:4002C000013E002EE6D100F057FEFFF78FFFFEE701000000DC19000008B5124A124B1A60124A136843F40073136000230AE0032B03D80F4A52F8231000E00E490E4A42F89D
:40030000231001332F2BF2D90C4B1A780C4B1A70094A0C4B1A6000F0BBF800220A4B1A6008BD00BF0004FA050CED00E014ED00E000000000590200000080FF1FBC76004003
:400340000481FF1F08ED00E00081FF1FFEE700BFF0B40022174611E050F82760F3B226F0FF0608E001EB420511F812406D78A5550132013BDBB2002BF4D10137252FEBD98E
:40038000F0BC7047064B1B78DBB203F00701054A11701B09013213704422034B1A707047CF0100496E5800407658004008B50A46002100F012FE08BD38B50E22284B1A8085
:4003C0001823284A13704D210232118002321370EF2102321180023213700222224B1A7008224FF040231A70032103F5007319701E4B1B78DBB21E490B701E4B1A8041F22D
:400400005122023B1A80002419250CE01A4B1B7803F0010343EA440404F003044FF4F07000F06AFC013D0DB1032CEFD115B90320FFF78CFF114B4FF480721A8007221A7091
:4004400000220F490A704820023108701A700222033B1A700B4A137843F00703137038BD80400040824000400043004008010049A14600402242004025420040044000409D
:4004800006400040A243004008B500F09BFD08BD38B572B63D4A137843F00403137000240CE03B4963001A1952000A4423445B00C8589188FFF77AFF0134E4B20A2CF0D9A5
:4004C000002410E03249A3001A1952000A4452F8440F23445B000B445168B3F84C20FFF7D3FF0134E4B2022CECD94FF090402949FFF72EFF284A137843F002031370103255
:40050000137843F002031370244C237843F040032370A2F58632513A137843F0100313701F4820490822FFF7AFFF1F481F490A22FFF7AAFF1E481F490822FFF7A5FF1E4803
:400540001E490A22FFF7A0FF1D481E490822FFF79BFF1D481D490822FFF796FF1C4A137843F0080313701B4D61232B70FFF724FF81232B700122184B1A70FFF703FF174855
:4005800021460E22FFF780FF38BD00BFE8460040EC1800009800004803500140A043004002510040E00A0048C0510040E80A0048F2510040F40A004810510040FC0A00486A
:4005C00022510040080B004832510040100B0048224300400048004004000840B0430040024A137843F080031370704776650040014B1870704700BF07650040014B18706F
:40060000704700BF47650040014B1870704700BF27650040014B1870704700BF37650040014B1870704700BF87650040014B1878704700BF67650040014B1878704700BFF6
:400640005765004008B501E0FFF7F6FFFFF7EEFF10F0100FF8D108BD10B5134A137803F0C00343F009031370104C237843F001032370FF20FFF7BCFFFF20FFF7BFFF282094
:40068000FFF7C2FF2820FFF7C5FF0020FFF7C8FF00F03AFB237843F01003237000F038FBFFF7D0FF10BD00BF766500409765004008B5054B1B7823B9FFF7CEFF0122024B91
:4006C0001A70FFF78DFF08BDA481FF1F38B50222114B1A7081220E3B1A70082202331A700F2511331D70002401331C704FF400420A4B1A602846072100F044FB28460849CF
:4007000000F02CFB1022074B1A70074B1C70074B1C70074B1C7038BDD649004080E100E081070000D881FF1FDE81FF1FE681FF1FDC81FF1F08B500F0E7FA064A137843F04D
:40074000040313701032137843F00403137000F0DFFA08BDA543004008B5074B1B7823B9FFF7B4FF0122044B1A70FFF7E3FF4FF40042024B1A6008BDA581FF1F00E100E09E
:4007800038B5A44B1C78E4B2A34B1B7813F0400F00F0378114F0010F00F01B819E4B1B78453B052B00F21281DFE813F006008200100110010600DE0004F0DF0504F00A0435
:4007C000082C42D1944B1B78DBB2452B35D1934B1B7813F0FF0F10D0914B1B681B78DBB2904A137004228B4B1A7001228E4B1A704622894B1A702C46EBE08C4B1B7813F083
:40080000020F0DD08A4A137843F00A0313706022814B1A704FF40042864B1A602C46D8E0854A137843F0100313701022834B1A700422023B1A702C46CBE00022754B1A70B3
:400840004A22754B1A702C46C3E00A2C2BD1784A137843F0A0031370744B1B7813F0020F14D06D4B1B7813F0080F01D0092300E00A236F4A11780B4313706022664B1A704C
:400880004FF400426B4B1A602C46A2E06A4A137843F0100313701022684B1A700422023B1A702C4695E0002000F036FA2C4690E014F0020F35D15C4B1B78584A1278DBB214
:4008C000934210D2584A1378DBB255490968CB5CDBB254490B7004214E4B197013780133DBB2137075E0514B1B7813F0020F0CD04F4A137843F00A0313706022464B1A709E
:400900004FF400424B4B1A6063E04B4A137843F0100313701022494B1A700422023B1A7057E0424B1B7813F0020F0CD0404A137843F09A0313706022374B1A704FF40042F7
:400940003C4B1A6045E03C4A137843F01003137010223A4B1A700422023B1A70344A137843F09003137034E0354A1378DBB2354908682C490978C9B2C15413780133DBB28C
:4009800013701378304A1278DBB2934203D21022204B1A701DE0254B1B7813F0020F0CD0234A137843F00903137060221A4B1A704FF400421F4B1A600BE01F4A137843F031
:4009C000100313700022134B1A7002E0002000F0A3F914F0200F1CD00F4B1B7813F0080F01D0012300E00223114A11780B431370114A137803F0EF0313701022064B1A7099
:400A000038BD054B1B7813F0100F02D11022024B1A7038BDD7490040D881FF1FDD81FF1FE881FF1FD8490040DC81FF1FE481FF1FDE81FF1F80E100E0D6490040D949004033
:400A4000E681FF1FE081FF1FE581FF1F002948D070B40C4626490978C9B2102906D12549097811F0080F11D1002112E020490978C9B260290CD14FF400451F490D601F4D2C
:400A8000297801F0F7012970002102E0012100E0022149BB4526164D2E700026184D2E70184D2A70184A1460184A1370134C227802F0FD0222704200D2B21548027013F084
:400AC000010F06D012220B4B1A700422023B1A7002E00122074B1A704FF400420D4B1A6002E0022108467047084670BC704700BFD881FF1FD949004080E200E0DE81FF1F45
:400B0000DC81FF1FDD81FF1FE881FF1FE481FF1FD849004000E100E000294AD070B40C4627490978C9B2102906D12649097811F0080F11D1002112E021490978C9B2602971
:400B40000CD14FF4004520490D60204D297801F0F7012970002102E0012100E0022159BB4926174D2E700026194D2E70194D2A70194A1460194A1370144C227802F0FE022A
:400B800022704200D2B242F001021548027013F0010F06D012220B4B1A700422023B1A7002E00122074B1A704FF400420D4B1A6002E0022108467047084670BC704700BFBD
:400BC000D881FF1FD949004080E200E0DE81FF1FE681FF1FE581FF1FE081FF1FE481FF1FD849004000E100E04FF40042084B1A60084B1878C0B2084B1B7813F0400F01D080
:400C000040F004004FF40042044B1A60704700BF80E100E0DE81FF1FD881FF1F00E100E04FF40043044A1360044A107800211170034A1360704700BF80E100E0DE81FF1F13
:400C400000E100E07222084B1A70202203F201131A700622A3F25D131A70472210331A7000224D331A7070478864004010B500F04BF804460B4A137843F02003137002F282
:400C80000112137843F010031370A2F58072137843F01003137000F021F8204600F038F810BD00BF9864004008B5054B1B7823B9FFF7C8FF0122024B1A70FFF7D7FF08BDD5
:400CC000A681FF1F034B1B7813F0040FFAD1024B18707047696400404A640040054A137843F0020313701032137843F002031370704700BFA24300400230800803D000BF62
:400D000001380046FCD17047EFF3108072B6704780F31088704700BF01BE704710B5044605E0084B1868FFF7E7FFA4F50044B4F5004FF6D8034B586800FB04F0FFF7DCFF54
:400D400010BD00BF1081FF1F08B5034B1B7A03FB00F0FFF7D1FF08BD1081FF1F70B504460E46074B1D681F2802D90020FFF7D4FF04F01F04103455F8240045F8246070BD11
:400D800008ED00E038B504460D46072902D90020FFF7C2FF1F2C02D90020FFF7BDFF04F01F0000F1604000F564406D01EDB2057038BD00BF044A137803F0F703C00000F011
:400DC000080018431070704720510040014B1B685864704708ED00E04001C0B2014B1870704700BF01E400E00222014B1A60704700E100E00222014B1A60704780E100E08B
:400E000010B50446FFF7F6FF2046FFF7DFFF0720FFF7E2FFFFF7E8FF10BD00BF044A137803F0F703C00000F0080018431070704730510040044A137803F0F10300F00E0088
:400E400018431070704700BF1B500040014B1878704700BF034F0040014B188880B27047044F0040014B188880B27047084F0040014B1878704700BF274F0040014B1888CA
:400E800080B27047284F0040014B188880B270472C4F0040014B1878704700BF1B4F0040014B188880B270471C4F0040014B188880B27047204F0040044A137803F07F03B4
:400EC000C001C0B203431370704700BF20510040044A137803F0F10300F00E0018431070704700BF17500040044A137803F0EF03000100F010001843107070473051004007
:400F0000044A137803F0F10300F00E0018431070704700BF1C500040014B1878704700BF0F4F0040014B188880B27047104F0040014B188880B27047144F0040044A137841
:400F400003F0FD03400000F00200184310707047F0510040044A137803F0F10300F00E0018431070704700BF79500040014B1868704700BF8081FF1F0E4B70B51E460E4C84
:400F80000025E41AA410A54204D056F8253098470135F8E700F010FD084B094C1E46E41AA4100025A54204D056F8253098470135F8E770BDC4190000C4190000C419000012
:400FC000CC19000010B5431E0A44914204D011F8014B03F8014FF8E710BD03460244934202D003F8011BFAE7704770B50E46054618B183690BB900F00DFAAC68A38919072C
:4010000001D5236983B92846214600F0A9F858B14FF0FF3070BD002B0EDB236816F8012C1A70236801332360A36816F8012B013BA360002AEFD116E0A269934209DB2368AF
:4010400016F8012C1A70236819780A29EAD1284602E0284616F8011C224600F02DF8421C50425041D3E7002B15DAA269934208DB23680A221A702368197891420FD12846A5
:4010800001E028460A21224600F016F8431C5842584130B1BCE723680A221A702368013323600A2070BD0000024B01461868FFF79CBF00BF8081FF1F70B50D4614460646FF
:4010C00018B183690BB900F0A5F9224B9C4201D1746808E0204B9C4201D1B46803E01F4B9C4208BFF468A369A360A3891A0709D523693BB123682069EDB2181A6369984246
:401100000FDB08E03046214600F02AF80028F1D04FF0FF3070BD3046214600F011F90028F6D1A3680130013BA36023685A1C22601D706369984204D0A389DB0707D50A2D7E
:4011400005D13046214600F0FBF80028E0D1284670BD00BF581900007819000098190000314B70B51D6806460C4625B1AB6913B9284600F04FF92D4B9C4201D16C6808E0EF
:401180002B4B9C4201D1AC6803E02A4B9C4208BFEC68A3899AB211071DD4D50602D40922326038E0500712D5616B41B104F14403994202D0304600F001FA00236363A38942
:4011C00023F02403A3810023636023692360A38943F00803A38123694BB9A38903F42073B3F5007F03D03046214600F09BF9A38913F0010205D00022A26062695242A261E0
:4012000003E0990758BF6269A26022694AB903F0800080B230B143F04003A3814FF0FF3070BD002070BD00BF8081FF1F5819000078190000981900008A892DE9F04105467B
:4012400010070C4657D44B68002B02DC0B6C002B18DDE66AB6B102F48052002392B22F682B600AB1626D10E0216A28460123B047411C024609D12B683BB11D2B01D0162B99
:4012800046D12F600020BDE8F081A3895B0705D56368D21A636B0BB1236CD21AE66A00232846216AB047461CA38905D12A681AB11D2A01D0162A19D1002262602269D9047C
:4012C000226004D5421C01D12B6803B96065616B2F600029D6D004F14403994202D0284600F06CF900206063BDE8F08143F04003A381BDE8F0810F69002FC3D093070E6886
:401300000CBF4B690023C7EB06080F608B6012E0A3894FF0FF3043F04003A381BDE8F0812846216A3A464346A66AB0470028EFDD0744C0EB0808B8F1000FF1DCA2E70000A4
:4013400038B50B6905460C46DBB118B183690BB900F060F80C4B9C4201D16C6808E00B4B9C4201D1AC6803E0094B9C4208BFEC68B4F90C302BB128462146BDE83840FFF768
:401380005BBF002038BD00BF581900007819000098190000014900F0A7B800BF4113000010B50446002303604360836081814366C28103614361836119465C300822FFF7E0
:4013C0000CFE054B24626362044BA362044BE362044B236310BD00BF11170000331700006B1700008F17000070B568234D1E5D430E4605F1740100F025F9044640B1002181
:4014000080E842000C30A06005F16802FFF7E5FD204670BD836910B5044633BB8364C3640365124B124A1B688262984204BF0123836100F01FF86060204600F01BF8A060A7
:40144000204600F017F80421E06000226068FFF7A7FFA06809210122FFF7A2FFE06812210222FFF79DFF0123A36110BD5419000095130000F8B51B4B07461E68B36913B927
:401480003046FFF7C7FF4836B4687368013B04D4B4F90C5075B16834F8E733682BB938460421FFF7A1FF306008B13668ECE70C233B60F8BD4FF6FF73E3810123A3816566A8
:4014C0002560A560656025616561A56104F15C0029460822FFF781FD6563A563A564E5642046F8BD541900002DE9F8438046894600F14804002694B1A5686768013F0CD4B9
:40150000AB89012B07D9B5F90E30013303D040462946C84706436835F0E72468EBE73046BDE8F883F0B58B8991B09D0706460C4625D4B1F90E10002908DAA389002513F067
:40154000800F14BF40274FF480670DE001AA00F045F90028F1DB029D4FF4806705F47045A5F500514D424D413046394600F06AF860B9A3899A051DD443F00203A38104F1D2
:401580004703236023610123636113E00A4BB362A389206043F08003A381206167614DB13046B4F90E1000F02BF918B1A38943F00103A38111B0F0BD9513000030B50029FF
:4015C0003CD051F8042C0B1F1D49002AB8BF9B180A680C4612B95A600B6030BD93420DD219685818904201BF5A5852181A60426823605A6030BD994203D80A465168002958
:40160000F9D1146815199D420AD11B682344D0188842136012D10868034413604B680CE002D90C23036030BD1C681819884201BF08684968001918605960536030BD00BF5E
:40164000AC81FF1F70B5CC1C24F0030408340C2C38BF0C24002C064603DA0C233360002070BD8C42F9D3204A136810461946A1B10A68121B0ED40B2A03D90A608B188C50F7
:401680001FE08B420BBF5A684A6802605A6018BF0B4616E00B464968E9E7144D2B681BB9304600F025F828603046214600F020F8421C0346D1D0C51C25F0030585420AD174
:4016C0001C6003F10B001A1D20F00700821A0AD05142995070BD3046E91A00F009F80130BBD02B46ECE770BDAC81FF1FA881FF1F38B5064C0023054608462360FEF7AEFDBB
:40170000431C02D1236803B12B6038BDEC81FF1F10B50C46B1F90E1000F094F80028ABBF636DA3891B1823F48053ACBF6365A38110BD2DE9F0411D468B890746DB050C46C6
:40174000164605D5B1F90E100022022300F068F8A389384623F48053A381B4F90E1032462B46BDE8F04100F017B810B50C46B1F90E1000F055F8431CA38915BF606523F47C
:40178000805343F48053A38118BFA38110BDB1F90E1000F013B8000038B5074C054600202060084611461A46FEF748FD431C02D1236803B12B6038BDEC81FF1F38B5064CB8
:4017C000002305460846236000F04EF8431C02D1236803B12B6038BDEC81FF1F38B5074C0023054608461146236000F045F8431C02D1236803B12B6038BD00BFEC81FF1FBA
:4018000038B5064C002305460846236000F03CF8431C02D1236803B12B6038BDEC81FF1F38B5074C054600202060084611461A4600F032F8431C02D1236803B12B6038BD4F
:40184000EC81FF1F38B5074C054600202060084611461A4600F028F8431C02D1236803B12B6038BDEC81FF1F024B58221A604FF0FF307047EC81FF1F024B58221A604FF0B0
:40188000FF307047EC81FF1F024B58221A600020704700BFEC81FF1F024B58221A604FF0FF307047EC81FF1F024B58221A604FF0FF307047EC81FF1F0000000025642025A5
:4018C00064202564202564200900000025642025642025642025642025642025640D0A000D0A000053746172740D0000C84900401900004F004030004051004030000000C0
:401900000140800E000F01400001001401408002001701408003001B0140000100400140000A004C014000020050014020000000800E014060090048800080160140E009ED
:4019400000488000801A0140600A004880000000430000002081FF1F0000000000000000000000000000000000000000000000000000000000000000000000000000000090
:401980000000000000000000000000000000000000000000000000000000000000000000000000000000000000000000000000000000000000000000F8B500BFF8BC08BC43
:4019C0009E4670474D000000D9020000F8B500BFF8BC08BC9E46704729000000F01900000881FF1F80000000680000000000000000000000F081FF1F0000E02EC05D00002A
:401A00001800000000366E010000000058190000781900009819000000000000000000000000000000000000501900000000000000000000000000000000000000000000CD
:401A4000000000000000000000000000000000000000000000000000000000000000000000000000000000002081FF1F0000000000000000000000000000000000000000A7
:401A80000000000000000000000000000000000000000000000000000000000000000000000000000000000000000000000000000000000000000000000000000000000026
:401AC00000000000000000000000000000000000000000000000000000000000000000000000000000000000000000000000000000000000000000000000000000000000E6
:401B000000000000000000000000000000000000000000000000000000000000000000000000000000000000000000000000000000000000000000000000000000000000A5
:401B40000000000000000000000000000000000000000000000000000000000000000000000000000000000000000000000000000000000000000000000000000000000065
:020000040003F7
:0200000480007A
:40000000084F004007520040036400400465004001010140040201400603014009050140050701404208014048090140550A01404B0B0140590C0140470D0140150E0140DD
:400040003B0F01401215014016160140481701404D1801404B1901402F1A01405B1B01400540014002410140134201400E430140034401400445014005460140024701409A
:400080000E4801401F490140114C01400D4D0140065001400251014001800A4E0D80164E1980229325802E4B082009600C6018301920608264432F048872890F2B0F3B081D
:4000C000870F8938E604B808BE04D804DF0118108C109020A810E210EA04902092089801AC01AE04E404E601EA02EE08902092089801E0A0E684040109040C020F0117026C
:400100001F022302270228012C01300131043202330237013E043F0456025710580459045B045C015D105F018310840485078718882089068B098C5C8E819114920493098E
:4001400094C7950796189708985C9A829E83A010A408A818ACDFAF0BB040B220B31EB41FB698B701BAA0BB08BE05BF40D401D804D904DB04DC11DD10DF0101880208042878
:4001800005200601090A0A040B0210A812021540171019941A441C201F032104224023102480260427012B012F903005354037083820390A3D803E1059255A805E406C04A4
:4001C0006D406F3074A876248204881089408B108F21902091029210938094909508971998059A089B409C0AA288A3C1A541A601A940B440B510C0A7C20FC4CFCAC8CC5369
:40020000CE37D61FE0A0E680EA01050208100C090D010E10101C1202130214201502160318101A0C2414280C2A112D043106321F3420370139023E103F4040614103450B63
:4002400046C0470E481949FF4AFF4BFF4EF04F44500C580459045A045C115D015F0166C06A406B0281A5834A851A8760894D8A028B928DCC8F1390569221930194389504B6
:40028000964399A99B549D029E29A246A304A438A5FFA645AB02AFB5B063B207B418B7FFB820BA0ABE10BF40D2F6D804D904DB04DC01DF010206060408200A600C050E61CB
:4002C0000F02100412201420150A1A201B201D201E601F082101224226802B012C082D402E0A3001330835023640371439883C143E803F0142014308451046084A204B1063
:40030000501052086D046E107428750276127705824083808F209004914093809490950497099A849B509C0A9E189F05A240A341A428A571A601AD10AE90C043C2BEC436E4
:40034000CAF8CCF3CEFAD00AD204009201010260043D06C20701084009010A1D0CE20F0411011208140118011C041D041EE022022302240D2505285D2AA22D012EFF3503E2
:4003800036FF37043E404002470449FF4A074BFF4C404D204EF04F055008580459045A045D015F01604061A86240632080038401850E8730880189468BA98C3A8D808E0416
:4003C0008F5690039405967898FF99339B0C9CC09E07A022A205A301A401A5FFA808A940AA07AB13AC10AD2AAE07AF54B07FB280B5FFB808BE01D804D904DF0100010104F7
:400400000386049405100680084009140A400C280E800F41100111101250130115401620171119061F4021102405265029102A482B402D022E8833103741380439603C14BB
:400440003D183F4145205604570164016680784079407A018E208F4092409414950497099B509C0A9D049E889F05A342A408A541A611A780AB12B010B180B521C0FFC2FFD4
:40048000C4FFCADFCC94CEFED02001020318051C070209010D06110215181706191F211223082501271E290A2B102D04351F392059045F0104040510060807400E140F0144
:4004C000144016A017101C201D401E142110250826062750284029042A202B012C082D042E802FC03118330136913704380439203B813C103E683F81440845404E024F02FE
:4005000057405C025DA05E04654066026708820285108E84C070C2E0C470CAFFCCF7CEFFD030D210D6F0D8B0E0028104828088288B1093109C089E80A104A420AE02AF014F
:40054000B204B302E008E401EA0BECC0EE0800011501230427072D082E0230023108320133043502360237013E043F015280580459045B045C225D205F01021803010680F4
:40058000080809800B8410A012021310174019041B101C401DC01E201F802084224023102480250426802708280829402A022B102D082F8230A1320C3708382439403A1049
:4005C0003B02404049094B80534159155A8077408080811082808401870488408A108C508D408F10902092089801A202AA02C017C20FC48FCADFCC4FCE0FD001D208D60FE2
:40060000E002E285E630E804EA010319071809180B030C010D080E1A0F3010011206171919081A0B1B221C0A1E011F19222B23042518260B280129102A042B482F8030076D
:4006400031383208330734203580361037403A023B0A3E04580459045F0181F3830C840285048605890C8DFF93D3958299C39A089D08A208A402A541A604A91CABE3AD0F2E
:40068000AFF0B001B1C0B208B30FB520B606B71CB920BB08BE04D418D804D904DB04DC10DD10DF010018011007010B040E49126014401608170419021B841E491F042108FB
:4006C0002201231524702541270429982C082E042F4130803214330234103540360839813A243C503D083E0249404A015A02630A8010860489018B108E2C8F1190089380B7
:400700009410970899909A2C9B419C0A9D089E019F20A080A280A362A54BA603A840AB08B501B608C084C2D2C47CCAFECC7FCEFFD601D80CE010E241E440010A03B1051F46
:400740001514178919011B461E01251F2E01300131203318350737C03A083E013F404064410342054401460E47C0482449FF4AFF4BFF4C624DA04EF04F41500C580459040F
:400780005A045C115D015F016640670269106A306B106D106E106F12042006020750080A09080A400B010C100E411002150517201A101B011D681E40200121022214250401
:4007C000260827242B202C102E082F84321436883710380A3D143E063F80400142104302452047044A014B104D015002524054205E025F018140821289408A018B248C01B6
:400800008D089028911092049311958096289A0A9B509C1A9D489E409F20A280A3E2A420A506A602A701AC60AD02B00CB202B601C0F0C2D1C471CAE2CC76CEF3D06BD20C6E
:40084000E008E280E481E620E880EA09EC40338036808380CC30E6208F02A68018201B801C081F043E1058085B025F026320640883909B02A680C6F0CE20D6C0D8C0E420F6
:40088000E6806B027402828088068B049020930896109B02A004A680DA40DE20E62075088610DE040F019A109D08C2018D0893019A109D08E0029A10AB0106206408698018
:4008C000800888088A108D409610A810C020D880DA40E280E82007040904122016405901661070087F0281018220830486409A10A008A302A504AA10AF02B220B504C080AF
:40090000C210C430D640D880DC80DE20E090E220E480EA9008100C01102013201708608066107B107F4080208C809A10C206C40ED803DE03E0081280831087408E809780ED
:40094000A710AB20AF08B011C408E202EA04EE0400030C030E0310071A051C03000F03C0604200094F1F000062481002000300200090000B00012000024F1C0005400A141F
:400980000D034200070048014F0100000040000B00E0601F1E00010080022000000040015200000001B00D0006FF7FFF42A070000C00000020000400040404040000000173
:4009C00000094009300900000000000000000000000000000000000000000000000000000000000710040200100001100F000078000040400400080800001840000040205B
:400A00000078140000000878007820003F000001000140783F02000420000000000004044005000000D5021027FFFFFF00A000041800000007000000040404042022000146
:400A40004000C0004040C000C000C000C000C000000000000000000000000000000000000119020025054008050100082504400901000E000015002881050810900000406E
:400A800090020000043C010004200114000000000F00707C10038000A82002000000141023000000002050000AFFFFFF42A07000081000000000000004040400000000019D
:400AC00000484048804880480000000000000000000000000000000000000000000000000601010000000000830040808300830000000000002222000000000060000000A1
:400B00006000600000000000008888000000000000787800600000000000000000000000000000000000000000000000000000000000000000000000000000000000000095
:400B40000000000000000000000000000000000000000000000000000000000000000000000000000000000000000000000000000000000000000000000000000000000075
:400B80000000000000000000000000000000000000000000000000000000000000000000000000000000000000000000000000000000000000000000000000000000000035
:400BC00000000000000000000000000000000000000000000000000000000000000000000000000000000000000000000000000000000000000000000000000000000000F5
:400C000000000000000000000000000000000000000000000000000000000000000000000000000000000000000000000000000000000000000000000000000000000000B4
:0200000490006A
:0400000000004005B7
:0200000490105A
:04000000BC90ACAF55
:0200000490303A
:02000000266573
:0200000490402A
:4000000000000000000000000000000000000000000000000000000000000000000000000000000000000000000000000000000000000000000000000000000000000000C0
:400040000000000000000000000000000000000000000000000000000000000000000000000000000000000000000000000000000000000000000000000000000000000080
:400080000000000000000000000000000000000000000000000000000000000000000000000000000000000000000000000000000000000000000000000000000000000040
:4000C0000000000000000000000000000000000000000000000000000000000000000000000000000000000000000000000000000000000000000000000000000000000000
:0200000490501A
:0C00000000012E16106900012E2236CEE1
:00000001FF