:400000000080002011000000A9010000A901000008B5044B1A6803F53F5302331A6000F0DDF800BFFA46004010B5054C237833B9044B13B10448AFF300800123237010BD4E
:400040008881FF1F00000000A41B0000084B10B51BB108480849AFF300800848036803B910BD074B002BFBD0BDE81040184700BF00000000A41B00008C81FF1F0881FF1FC3
:400080000000000010B582B0044620238DF804308DF8051000F038FD204601A90222002300F036FC00F016FD10F0020FFAD002B010BD00BF30B583B0044600258DF804108F
:4000C0008DF8005000F020FD642000F097FD204601A902222B4600F01BFC00F0FBFC10F0020FFAD0322000F089FD00F00DFD204669460122002300F07BFC00F0EBFC10F04D
:40010000010FFAD09DF8000003B030BD2DE9F04184B000F04DFA62B600F036FD194800F065FE6B201F21FFF7ADFF6B202821FFF7C1FF06466B202921FFF7BCFF05466B2070
:400140002A21FFF7B7FF04466B202B21FFF7B2FF80466B202C21FFF7ADFF07466B202D21FFF7A8FFCDF8008001970290064831462A46234600F0C4FD4FF4FA7000F03EFD27
:40018000D3E700BFA81B0000B01B000070B51646002405E04D1C087800F004FD01342946B442F7DB304670BDFEE700BF08B5094B1A681044084BC31AB3F5007F02DC054BB5
:4001C000186005E000F05CFD0C2303604FF0FF32104608BD0C81FF1FC881FF1F08B5104E104D16E029686B68AC68002204E051F8040B43F8040B0432A242F8D1E868002247
:4002000003E0002143F8041B04328242F9D11035013E002EE6D100F039FDFFF777FFFEE701000000E81C000008B5124A124B1A60124A136843F40073136000230AE0032B98
:4002400003D80F4A52F8231000E00E490E4A42F8231001332F2BF2D90C4B1A780C4B1A70094A0C4B1A6000F0C1F800220A4B1A6008BD00BF0004FA050CED00E014ED00E0AF
:4002800000000000A90100000080FF1FBC7600400481FF1F08ED00E00081FF1FFEE700BFF0B40022174611E050F82760F3B226F0FF0608E001EB420511F812406D78A555D1
:4002C0000132013BDBB2002BF4D10137242FEBD9F0BC7047064B1B78DBB203F00701054A11701B09013213704422034B1A707047CF0100496E5800407658004008B50A461B
:40030000002100F0F4FC08BD38B50E222A4B1A8018232A490B7002310A80294A13704D210232118002321370EF2102321180023213700222234B1A7008224FF040231A7007
:40034000032103F5007319701F4B1B78DBB21F490B701F4B1A8041F25122023B1A80002419250CE01B4B1B7803F0010343EA440404F003044FF4F07000F02EFC013D0DB110
:40038000032CEFD115B90320FFF788FF124B4FF480721A8007221A70002210490A704820023108701A700222033B1A700C4A137843F00F03137038BD8040004082400040E3
:4003C000864000400043004008010049A146004022420040254200400440004006400040A243004008B500F077FC08BD38B572B63A4A137843F00403137000240CE038492A
:4004000063001A1952000A4423445B00C8589188FFF774FF0134E4B2082CF0D9002410E02F49A3001A1952000A4452F8380F23445B000B445168B3F84020FFF7D3FF0134F5
:40044000E4B2032CECD94FF090402649FFF728FF254A137843F0020313701032137843F002031370214C237843F040032370A2F58632513A137843F0100313701C481D4911
:400480000822FFF7AFFF1C481C490A22FFF7AAFF1B481C490822FFF7A5FF1B481B490A22FFF7A0FF1A481B490822FFF79BFF1A4A137843F008031370184D61232B70FFF71C
:4004C00023FF81232B700122154B1A70FFF702FF144821460E22FFF785FF38BDE8460040C81B00009400004803500140A043004002510040AC0F0048C0510040B40F00485F
:40050000F2510040C00F004810510040C80F004832510040D40F0048224300400048004004000840B043004038B50024134B1C70012510331D7000F057FB114A137843F07B
:400540001003137000F054FB0F220E4B1A70082210331A700C4B1D602046072100F078FB20460A4900F060FB1022094B1A70094B1C70094B1C70094B1C7038BD7765004011
:40058000976500402464004080E100E0D9050000B081FF1FB681FF1FBE81FF1FB481FF1F024A137843F00203137070477765004008B5074B1B7823B9FFF7B6FF0122044BC4
:4005C0001A70FFF7EDFF0122024B1A6008BD00BFA481FF1F00E100E038B5B04B1C78E4B2AF4B1B7813F0400F00F0828114F0010F00F04981AA4B1B78453B052B00F2408180
:40060000DFE813F0060096003E013E010600FF0004F0DF0504F00A04082C53D1A04B1B78DBB2452B3FD19F4B1B7813F0FF0F17D09D4B1B681B78DBB29C4A137006229C4B9C
:400640001A70FF22A3F5B0731A70002240331A700122984B1A704622914B1A702C4612E1954B1B7813F0020F0CD0944A137843F00A03137060228A4B1A700122904B1A60C0
:400680002C4600E18F4A137843F0200313705222874B1A70FF22A3F5B0731A70002240331A702C46EFE00222814B1A70FF22A3F5B0731A70002240331A704A22784B1A705C
:4006C0002C46E0E00A2C2ED17C4A137843F0A0031370794B1B7813F0020F13D0704B1B7813F0080F01D0092300E00A23734A11780B43137060226A4B1A700122704B1A60F9
:400700002C46C0E06F4A137843F0200313705222674B1A70FF22A3F5B0731A70002240331A702C46AFE0002000F066FA2C46AAE014F0020F3FD15F4B1B785A4A1278DBB2CB
:40074000934217D25B4A1378DBB257490968CB5CDBB256490B700621554B1970FF21A3F5B073197000214033197013780133DBB2137088E0504B1B7813F0020F0BD04F4A61
:40078000137843F00A0313706022454B1A7001224B4B1A6077E04B4A137843F0200313705222434B1A70FF22A3F5B0731A70002240331A7067E0404B1B7813F0020F0BD067
:4007C0003E4A137843F09A0313706022344B1A7001223B4B1A6056E03A4A137843F0200313705222324B1A70FF22A3F5B0731A70002240331A70314A137843F09003137078
:4008000041E0314A1378DBB23049086827490978C9B2C15413780133DBB2137013782C4A1278DBB293420AD20222214B1A70FF22A3F5B0731A70002240331A7023E01E4BF7
:400840001B7813F0020F0BD01C4A137843F0090313706022124B1A700122194B1A6012E0184A137843F0200313701222104B1A70FF22A3F5B0731A70002240331A7002E0A1
:40088000002000F0B9F914F0200F39D0044B1B7813F0080F1ED001231DE000BF67650040B081FF1FB581FF1FC081FF1F0764004077650040B481FF1FBC81FF1FB681FF1F98
:4008C00080E100E087650040BE81FF1FB881FF1FBD81FF1F02230B4A11780B4313700A4A137803F0DF0313701022084B1A7038BD064B1B7813F0100F02D11022034B1A7089
:4009000038BD00BFB681FF1F87650040B081FF1F002951D070B40C462A490978C9B2102906D12949097811F0100F10D1002111E024490978C9B260290BD1012523490D6021
:40094000234D297801F0F7012970002102E0012100E00221002932D145261A4D2E7000261C4D2E701C4D2A701C4A14601C4A1370174C227802F0FD0222704200D2B2194886
:40098000027013F0010F09D03222174B1A70FF22A3F5B0731A7040331E7009E08222124B1A70FF22A3F5B0731A70002240331A7001220E4B1A6002E00221084670470846EB
:4009C00070BC7047B081FF1F6765004080E200E0B681FF1FB481FF1FB581FF1FC081FF1FBC81FF1F076400407765004000E100E0002953D070B40C462B490978C9B21029CE
:400A000006D12A49097811F0100F10D1002111E025490978C9B260290BD1012524490D60244D297801F0F7012970002102E0012100E00221002934D149261B4D2E70002684
:400A40001D4D2E701D4D2A701D4A14601D4A1370184C227802F0FE0222704200D2B242F001021948027013F0010F09D03222174B1A70FF22A3F5B0731A7040331E7009E0D9
:400A80008222124B1A70FF22A3F5B0731A70002240331A7001220E4B1A6002E0022108467047084670BC7047B081FF1F6765004080E200E0B681FF1FBE81FF1FBD81FF1F4A
:400AC000B881FF1FBC81FF1F076400407765004000E100E00122084B1A60084B1878C0B2074B1B7813F0400F01D040F004000122044B1A60704700BF80E100E0B681FF1F43
:400B0000B081FF1F00E100E00123044A1360044A107800211170034A1360704780E100E0B681FF1F00E100E07222084B1A702022A3F203131A700622A1331A704722103360
:400B40001A700022B33B1A70704700BF8B65004010B500F049F804460A4A137843F020031370A2F20312137843F010031370023A137843F01003137000F020F8204600F0C8
:400B800037F810BD9B65004008B5054B1B7823B9FFF7CAFF0122024B1A70FFF7D9FF08BDA581FF1F034B1B7813F0040FFAD1024B18707047666400404A650040054A1378CC
:400BC00043F0040313701032137843F004031370704700BFA24300400230800803D000BF01380046FCD17047EFF3108072B6704780F31088704700BF01BE704710B504466D
:400C000005E0084B1868FFF7E7FFA4F50044B4F5004FF6D8034B586800FB04F0FFF7DCFF10BD00BF1081FF1F70B504460E46074B1D681F2802D90020FFF7DEFF04F01F04AE
:400C4000103455F8240045F8246070BD08ED00E038B504460D46072902D90020FFF7CCFF1F2C02D90020FFF7C7FF04F01F0000F1604000F564406D01EDB2057038BD00BF11
:400C8000014B1868704700BF8081FF1F0E4B70B51E460E4C0025E41AA410A54204D056F8253098470135F8E701F00CF8084B094C1E46E41AA4100025A54204D056F8253038
:400CC00098470135F8E770BDD01C0000D01C0000D01C0000D81C000010B5431E0A44914204D011F8014B03F8014FF8E710BD03460244934202D003F8011BFAE770470000CF
:400D00000FB40A4B13B51C6824B1A36913B9204600F022FA05AB2046A168049A019300F0B1FB02B0BDE8104004B070478081FF1F70B50E46054618B183690BB900F00CFADF
:400D4000AC68A389190701D5236983B92846214600F0A8F858B14FF0FF3070BD002B0EDB236816F8012C1A70236801332360A36816F8012B013BA360002AEFD116E0A26957
:400D8000934209DB236816F8012C1A70236819780A29EAD1284602E0284616F8011C224600F02CF8421C50425041D3E7002B15DAA269934208DB23680A221A702368197846
:400DC00091420FD1284601E028460A21224600F015F8431C5842584130B1BCE723680A221A702368013323600A2070BD024B01461868FFF79DBF00BF8081FF1F70B50D4647
:400E00001446064618B183690BB900F0A5F9224B9C4201D1746808E0204B9C4201D1B46803E01F4B9C4208BFF468A369A360A3891A0709D523693BB123682069EDB2181A08
:400E4000636998420FDB08E03046214600F02AF80028F1D04FF0FF3070BD3046214600F011F90028F6D1A3680130013BA36023685A1C22601D706369984204D0A389DB07AE
:400E800007D50A2D05D13046214600F0FBF80028E0D1284670BD00BF301C0000501C0000701C0000314B70B51D6806460C4625B1AB6913B9284600F04FF92D4B9C4201D1CA
:400EC0006C6808E02B4B9C4201D1AC6803E02A4B9C4208BFEC68A3899AB211071DD4D50602D40922326038E0500712D5616B41B104F14403994202D0304600F001FA00233B
:400F00006363A38923F02403A3810023636023692360A38943F00803A38123694BB9A38903F42073B3F5007F03D03046214600F09BF9A38913F0010205D00022A260626947
:400F40005242A26103E0990758BF6269A26022694AB903F0800080B230B143F04003A3814FF0FF3070BD002070BD00BF8081FF1F301C0000501C0000701C00008A892DE992
:400F8000F041054610070C4657D44B68002B02DC0B6C002B18DDE66AB6B102F48052002392B22F682B600AB1626D10E0216A28460123B047411C024609D12B683BB11D2BF2
:400FC00001D0162B46D12F600020BDE8F081A3895B0705D56368D21A636B0BB1236CD21AE66A00232846216AB047461CA38905D12A681AB11D2A01D0162A19D10022626095
:401000002269D904226004D5421C01D12B6803B96065616B2F600029D6D004F14403994202D0284600F06CF900206063BDE8F08143F04003A381BDE8F0810F69002FC3D0F0
:4010400093070E680CBF4B690023C7EB06080F608B6012E0A3894FF0FF3043F04003A381BDE8F0812846216A3A464346A66AB0470028EFDD0744C0EB0808B8F1000FF1DCE0
:40108000A2E7000038B50B6905460C46DBB118B183690BB900F060F80C4B9C4201D16C6808E00B4B9C4201D1AC6803E0094B9C4208BFEC68B4F90C302BB128462146BDE810
:4010C0003840FFF75BBF002038BD00BF301C0000501C0000701C0000014900F0A7B800BF8510000010B50446002303604360836081814366C28103614361836119465C3083
:401100000822FFF7F4FD054B24626362044BA362044BE362044B236310BD00BFE1190000031A00003B1A00005F1A000070B568234D1E5D430E4605F1740100F025F9044603
:4011400040B1002180E842000C30A06005F16802FFF7CDFD204670BD836910B5044633BB8364C3640365124B124A1B688262984204BF0123836100F01FF86060204600F083
:401180001BF8A060204600F017F80421E06000226068FFF7A7FFA06809210122FFF7A2FFE06812210222FFF79DFF0123A36110BD2C1C0000D9100000F8B51B4B07461E68A3
:4011C000B36913B93046FFF7C7FF4836B4687368013B04D4B4F90C5075B16834F8E733682BB938460421FFF7A1FF306008B13668ECE70C233B60F8BD4FF6FF73E381012372
:40120000A38165662560A560656025616561A56104F15C0029460822FFF769FD6563A563A564E5642046F8BD2C1C00002DE9F8438046894600F14804002694B1A5686768E9
:40124000013F0CD4AB89012B07D9B5F90E30013303D040462946C84706436835F0E72468EBE73046BDE8F883F0B58B8991B09D0706460C4625D4B1F90E10002908DAA38932
:40128000002513F0800F14BF40274FF480670DE001AA00F00BFC0028F1DB029D4FF4806705F47045A5F500514D424D413046394600F06AF860B9A3899A051DD443F00203BD
:4012C000A38104F14703236023610123636113E00A4BB362A389206043F08003A381206167614DB13046B4F90E1000F0F1FB18B1A38943F00103A38111B0F0BDD9100000AE
:4013000030B500293CD051F8042C0B1F1D49002AB8BF9B180A680C4612B95A600B6030BD93420DD219685818904201BF5A5852181A60426823605A6030BD994203D80A46EE
:4013400051680029F9D1146815199D420AD11B682344D0188842136012D10868034413604B680CE002D90C23036030BD1C681819884201BF086849680019186059605360EB
:4013800030BD00BFAC81FF1F70B5CC1C24F0030408340C2C38BF0C24002C064603DA0C233360002070BD8C42F9D3204A136810461946A1B10A68121B0ED40B2A03D90A608D
:4013C0008B188C501FE08B420BBF5A684A6802605A6018BF0B4616E00B464968E9E7144D2B681BB9304600F0EBFA28603046214600F0E6FA421C0346D1D0C51C25F00305CA
:4014000085420AD11C6003F10B001A1D20F00700821A0AD05142995070BD3046E91A00F0CFFA0130BBD02B46ECE770BDAC81FF1FA881FF1F936810B5013B002B936009DA34
:401440009469A34202DBCBB20A2B03D1BDE81040FFF7D4BC1368581C10601970C8B210BDF8B506460F461446D518AC4208D0304614F8011B3A46FFF7DDFF431CF5D100E02D
:401480000020F8BD2DE9F0439DB00D4690460393064618B183690BB9FFF75EFE754B9D4201D1756808E0744B9D4201D1B56803E0724B9D4208BFF568AB891C070AD52B69BB
:4014C00043B10023099320238DF8293030238DF82A3041E030462946FFF7E4FC0028F0D04FF0FF30C2E0039A0134111D12680391002ABBBF524243F0020307920792B8BFEB
:40150000049323782E2B7BD0DFF8808121784046032200F0FFFA38B1049AC8EB00004023834013430493013421785548062204F101088DF8281000F0EDFA002800F0858041
:40154000504B002B78D1039B073323F0070308330393099B3B44099343461C4613F8012B1AB9B4EB08090ED002E0252AF5D1F8E73046294642464B46FFF772FF013070D0A8
:40158000099B4B4409932378002B6AD000234FF0FF3204930793059206938DF853301A9304F101084446DFF8E89021784846052200F0B0FA08F10108049B30B1C9EB0000BE
:4015C0000122824013430493ECE7D80644BF20228DF85320190744BF2B228DF8532022782A2A80D0234607991C4622780133303A092A03D80A2000FB0121F5E7079180E7B2
:4016000063782A2B0AD1039B02341A1D1B680392002BB8BF4FF0FF33059375E7611C00220C4623780131303B092B03D80A2000FB0232F5E7059267E703AB0093304604A9BF
:401640002A46114BAFF3008007E003AB0093304604A92A460C4B00F093F8421C07467FF478AFAB895B063FF53BAF09981DB0BDE8F08300BF301C0000501C0000701C00006E
:401680009A1C00000000000061140000961C0000901C00002DE9F84391461F468A680B6906469342B8BF1346C9F8003091F843200C46DDF8208012B10133C9F800302368A6
:4016C000990642BFD9F800300233C9F80030256815F006051CD094F843302268003318BF012392061FD5E118302081F843005A1C94F845102244023382F8431013E030462A
:40170000394604F119020123C047013007D00135E368D9F800209B1A9D42F0DBDBE74FF0FF30BDE8F8833046394604F14302C0470130F4D02268D9F80050E36802F00602AB
:40174000042A08BF5D1B2269A3680CBF25EAE57500259342C4BF9B1AED184FF00009A9450ADA3046394604F11A020123C0470130D5D009F10109F2E70020BDE8F8830000BD
:401780002DE9FF410C461746227E98466E2A06460A9B01F1430100F0B08012D8632A23D00AD8002A00F0BD80582A40F0CC8084F84520DFF804E257E0642A1ED0692A1CD056
:4017C000C1E0732A00F0B18009D86F2A2ED0702A40F0B980226842F0200222603FE0752A24D0782A3BD0AEE01A6804F14205111D1960136884F84230A9E020681A6810F061
:40180000800F02D0101D186008E010F0400F02F10400186002D0B2F9003000E01368002B3EDA2D225B4284F8432039E020681A6810F0800F02D0101D186007E010F0400F87
:4018400002F10400186001D0138800E01368227EDFF864E16F2A0CBF08220A221CE07822DFF858E184F845202268186812F0800F00F104051D6003D1550601D5038800E0B3
:401880000368D00744BF42F0200222601BB9226822F0200222601022002084F8430002E0DFF814E10A226568002DA8BF2068A560A4BF20F00400206003B965B10D46B3FB56
:4018C000F2F002FB10331EF8033005F8013D03460028F4D100E00D46082A0BD12368DA0708D5236962689A42DEBF302305F8013C05F1FF35491B21612EE025681A6815F0F4
:40190000800F606903D0151D1D60136808E015F0400F02F104051D60136801D0188000E01860002323610D4616E01A68111D1960156800212846626800F0ECF808B1401B8A
:401940006060636804E004F1420584F8422001232361002384F84330CDF800803046214603AA3B46FFF796FE013002D14FF0FF301FE0304639462A462369C0470130F5D0EB
:4019800023689B0705D4E068039B9842B8BF18460FE00025E368039A9B1A9D42F3DA3046394604F119020123C0470130DED00135F0E704B0BDE8F081A11C0000B21C0000BE
:4019C00038B5064C0023054608462360FEF7EEFB431C02D1236803B12B6038BDC481FF1F10B50C46B1F90E1000F0A2F80028ABBF636DA3891B1823F48053ACBF6365A381CC
:401A000010BD2DE9F0411D468B890746DB050C46164605D5B1F90E100022022300F068F8A389384623F48053A381B4F90E1032462B46BDE8F04100F017B810B50C46B1F945
:401A40000E1000F055F8431CA38915BF606523F4805343F48053A38118BFA38110BDB1F90E1000F013B8000038B5074C054600202060084611461A46FEF788FB431C02D1AA
:401A8000236803B12B6038BDC481FF1F38B5064C002305460846236000F05CF8431C02D1236803B12B6038BDC481FF1F38B5074C0023054608461146236000F053F8431C7E
:401AC00002D1236803B12B6038BD00BFC481FF1F38B5064C002305460846236000F04AF8431C02D1236803B12B6038BDC481FF1F38B5074C054600202060084611461A46FE
:401B000000F040F8431C02D1236803B12B6038BDC481FF1F10B5C9B202449042034605D01C7801308C42F8D1184610BD002010BD38B5074C054600202060084611461A460F
:401B400000F028F8431C02D1236803B12B6038BDC481FF1F024B58221A604FF0FF307047C481FF1F024B58221A604FF0FF307047C481FF1F024B58221A600020704700BF98
:401B8000C481FF1F024B58221A604FF0FF307047C481FF1F024B58221A604FF0FF307047C481FF1F0000000053746172740D000025642025642025642025642025642025A3
:401BC00064200D0A0000000020510040100040510040300000000140800200030140000180040140800B00140140000800400140000A004C01400002105001401000000008
:401C000060520040940E00480600800201409C0E00488000000401401C0F00488000005001409C0F00481000430000002081FF1F00000000000000000000000000000000BF
:401C40000000000000000000000000000000000000000000000000000000000000000000000000000000000000000000000000000000000000000000000000000000000064
:401C800000000000000000000000000000000000232D302B2000686C4C006566674546470030313233343536373839414243444546003031323334353637383961626364FC
:401CC00065660000F8B500BFF8BC08BC9E4670474D00000029020000F8B500BFF8BC08BC9E46704729000000F81C00000881FF1F800000004000000000000000C881FF1F98
:401D00000000E02EC05D00001800000000366E0100000000301C0000501C0000701C000000000000000000000000000000000000281C000000000000000000000000000033
:401D40000000000000000000000000000000000000000000000000000000000000000000000000000000000000000000000000002081FF1F000000000000000000000000A4
:401D80000000000000000000000000000000000000000000000000000000000000000000000000000000000000000000000000000000000000000000000000000000000023
:401DC00000000000000000000000000000000000000000000000000000000000000000000000000000000000000000000000000000000000000000000000000000000000E3
:401E000000000000000000000000000000000000000000000000000000000000000000000000000000000000000000000000000000000000000000000000000000000000A2
:401E40000000000000000000000000000000000000000000000000000000000000000000000000000000000000000000000000000000000000000000000000000000000062
:020000040003F7
:0200000480007A
:4000000005520040096400400265004001010140290201403703014015040140500501405006014059070140540801405C090140640A0140590B0140590C0140430D0140B5
:40004000620E0140330F01405E1401405015014044160140551701406B180140561901404E1A01404B1B0140044001400541014008420140054301400146014003470140B4
:400080000F490140094C01400C4D01400350014001510140082009200C6018601940240F27042B042F0F34083F08820F860F8838850F8B728F040203040C06300A030E0301
:4000C00010141228140C163018141A28223C2A013001323C36023E414012420449FF4AFF4BFF4F0150185403560458045A045B045C095D995F0160406240644065406680CE
:4001000068806A806C806E8000800102032404080640070A08040A850D080E4810A012051520170119A01A851D801EA0208029A02A0630A8320239013A083B5041A0430168
:4001400045A047014B0551305EA05F056080620167808080820C87408B018E028F14A304C0FFC27FC45FCA0FCC0FCE0FD0BDD6F0D880E201E601931F960197189B02A104D7
:40018000A311A911AB04AF1FB303B50CB601B710BF40D293D804D904DB04DC99DD90DF0100040160080909800A080E2011051210184019201A121B401F4022802729280198
:4001C0002A282B412E802F4431153380372A380439813A103B0440404204484051806404652068046B106C046E40704871207202734076C0770280088110880889048A1047
:400200008B048C408D408E118F8092809408964097509E429F1BA304A488A508A604A701AB20AC24AD03B180B204C007C22FC40CCABFCCEFCE0FD005E080E644EA0AEE0CE9
:40024000041006230C400E0F10351410162918301A0E320F34703A38540158045B045C095D205F018240830F861487128A188B348C0F8F0F910F920893109410950F96013A
:40028000978098109A029B119E809F20A0BFA340A404A608AA20AB08AC80AF08B03FB180B280B30FB440B570B802BB20BF04C053C401C50DC7B0C821C9FFCA7FCBFFCC42EA
:4002C000CDA0CE70D00CD420D604D804D904DA04DB04DD10DF01E109E240E309E430E50900840120034004080701080109800A200B080D080E4810101101120A1840190473
:400300001B181D081E0820042111220C2344280129302A122B012C402D013040321133143840392E3BA04210434048204A025302580859025A805B205C225F88638980203D
:40034000834088108A018C088D84900892F29301958D960C9704980499109B019D059E29A044A280A304A4A0A508A604A703AB01B120B314B420B702C0AFC27FC40FCA0D7C
:40038000CC0FCE0FD00AD208D6FFD80DE604EA01EE010004010402180301047C0740082809010A440B020C010D80107C140115051730185019041A241B011D011E011F0EEB
:4003C00020022310240125012728280129052B102C012D052F10301C3380346035703603370F38803BA03E405418580459045B045C125D205F01845C851C8683870289208B
:400400008B038C618E8E90619296951096A399099A1C9B109C609D149E80A10CA311AA08AD10AF0CB0F0B31FB40FB520B61ABAA2BF10D804D904DC22DF0100040140048868
:4004400005A1060109200A800B220C810E280F10100814041580171618041A801B421D411E0820102308242226A027242B422C042D822E04300831243380369037043814C7
:400480003C023D283E013F404680470149404A024D404F805E026680670478027B408301842188808A048B208E188F0890809180920193109404950B968097AB98049912E1
:4004C0009A049E2A9F24A0C0A135A208A602A750A801AB08B00AB308B580B680C0F5C2FFC4F2CAF9CC7ECEF6D680D830E030E240ECF002400301041805040606070908011F
:4005000009100B030C041001121E141C162218321A081C221D0F2022210F22182406282A2A102C3F3101321F330634603518380839283F05580459045C205F01803281925C
:4005400082088360841C85018622880189048A1E8BE08C018D5D8FA29018920693FF942295409618971D980699E29E409F02A022A10DA42AA610A708A83FA93DABC2AC048B
:40058000AD01B260B3FFB61FB880BF04C023C406C60DC7B0C824C9FFCA7FCBFFCC42CDA0CE70D00CD804D904DA04DC01DD01DF01E109E240E309E430E509000201800318DC
:4005C00004120544082809020B010C200E020F5010181140128014801601172419101B081D4420802120220825042B402C262E402F803004310432403482350237A43884AF
:400600003B623E013F5445184F20548056015780641066087C027D028020821085408B068C088D108F92909391C092219310950B9640978C98029A049C049D149EAA9F2CC5
:40064000A021A11AA281A408A602A782AB80AE11AF01B021B310C0FFC2FFC4FFCAF1CCF8CEF7D060D220E240E4B8ECA0001001400207030B040505010678080109420B09E0
:400680000C010D0110031190130B14221548160517021801191F1C031D401F1420C021032207232024082503260728FF294F2C3A2E042F01311F328035E0367F37403808AB
:4006C00039A03E403F50580459045C115F01802A81C082548307850189018C338DFF8E0C90FF913A93049446950896A99707980E99059A309B789D229E019F05A080A10124
:40070000A256A503A840A910AA13AB07AD03B180B2FFB77FB902BF40D804D904DF0102800302040205040601070808100A200B810C410F141008110117651A201B041C10D9
:400740001E022002210224812510261027402A8A2B042C662F8030183150328033023402376539413A203B883E413F14668067018104830489408C428E01900291809201D8
:40078000950A971098029A049C449D049F64A108A602C0F9C2FFC4FACAFFCCFFCEFFE080E440E6100313048005010656071A08400A130D010F06140E1630171319121B0155
:4007C0001C461EA92201233324FF25012704282A2A542C332E0C31073320350836FF37103B023F40580459045C115F01820F83308420850186418A048B108C10900F9108C2
:4008000092809310960897289810997F9D019E089F40A40FA51EA920AA0FAB02AC20AD20AE42AF04B080B270B37EB410B501B60FB828B928BE54C025C502C650C809C9FFF2
:40084000CAFFCBFFCC42CDA0CE70D008D110D804D904DA04DC11DD01DF01E148E240E348E480E548E680E748022003040545070408040A010D410E010F18105011401310A8
:4008800015401604175818021A011D692298234026202718281029012C042D402F203218341235403724390A3B403E013F1845204E024F08572088028A208E80C0F6C2F5C9
:4008C000C4EFCA73CCF6CEEBD020D210E24000010140020E030B042005400714081509480A800B020CC10D010E0810951190130B1495150319031B201D4F1E4020142281A2
:40090000230125012610281429422A012B092CC12D1F2E02300F31E0331F343036C03740382039823A023E103F41580459045F0186078A048D028F0596029E01A102A30460
:40094000AF08B004B108B202B306B401B501BE10C030C104C5D0C650C721C83AC9FFCAFFCBFFCDA0CF04D018D407D804D904DA04DB04DC03DD33DF01E040E2C0E440E540B5
:40098000E6C0E8C0EAC0ECC0EEC00112031205040624088009080A810F2210241202130119021A051C801E28218C22022754284C2A082B022E802F4030203241338839B812
:4009C0003B0B3F80450146204D0154105501560457115D415E085F208110829083C0844086108740894091E092229382950896049708984899049A089B209C809D029E04E2
:400A00009F44A020A30AA410A5D0A602AA02AD04B040B204B520C06FC2ADC40FCA9FCC0FCE1FD0C0D6F0E808EE0402020B060D01110418012A053202330434043501360153
:400A400037023F105280580459045B045C335D305F018020810282C0830C840686608B168C2F8E808F179005926A94609602971698019A649C089D149E659F02A210A46103
:400A8000A502A602A734A840AA20AC01AD02AE02AF08B01FB10EB301B510B6E0B720BA80BB02BF10D2F6D420D604D804D904DB04DF01039206400A420B280E08100111209D
:400AC000129016041A401B811D041E0A21012240231427292B1232403304370139023B503C203D804402454058A4590261806201630468046A0871297209764079407A0149
:400B000081588301842985018703882489108A218B809120922293E0958996049708980499109A109B109C029D019E2B9F4CA020A280A318A602A701A880A902AF80B00444
:400B4000B320C01DC24FC44FCA0ACC8ACE3DD60FD80DE003E208E40CEA06EE04005D02A2040D050408E20C010F081040121D1301140416E01702183D1AC21E0222FF240189
:400B800027082A082B022C922E60330334FF350437083A023E103F44406541024204440345EC480349FF4AFF4BFF4C624DA04EF04F41500C580459045A045C025D025F01A8
:400BC0006640670269106A306B106D106E106F1280338208843885028603870488088A708C028E8192039410962B98099A449C019E06A41BA502A620A705AC38AE03B10148
:400C0000B278B480B607B706BA88C006C504C9FFCA07CBFFCC40CD20CEF0CF05D008D804D904DA04DC11DD02DF01E040E1A8E240E3200082031804800642072809410A0543
:400C40000B100C910E200F0112211480154116281A211B181E401F20210123022508270928202D2830103110350136043A043C403D043E804528468049044A084C014D18A9
:400C80004E4053108040814086108768888189048D208E40920493109408950B962097AF988299119A0D9B109D249E229F03A001A101A22CA302A420A540A601A790A8118C
:400CC000AC40B140B340C0FFC2FFC4F5CA62CCC0CE52D0E0D234E020E4A0E820EE2003021F022401270128012C013301350236013F104046410145C046EB480E49FF4AFF24
:400D00004BFF4EF04F44500C580459045A045C125D025F0166C06A406B0280C3840C8508880489188DDF8EF390FF9104932094F3959C960C974298829C089F04A041A11044
:400D4000A40FA59CA6F0A741A81CA9C7AAE3AB18AF03B01CB120B20FB31FB42CB580B6C0B740B980BA28BB08BF10D602D711D804D904DB04DC22DD20DF010581062007087E
:400D80000C800D080E481028114014101712180219801C401D081E061F08210423042401261827502B102C902D902E042F0832403608374238013E68400243024B22511047
:400DC00053805E206C2C6D4074807628770889308B0292C09320944A95189706980299019D20A204A312A420A601A780AB20AE40B040B304B420B624C0F0C2F0C477CAF294
:400E0000CCD8CE71D009D204D620E620E880EC40312033023710CC7087029F10A520A702E2100102570889028D209F10A520C010D44083109F10AB08E220EE8084408F0243
:400E40009840E4021080170464097B028080830484098702C430D680D880DC80E0A0E250E6100B020C015B0464409840A302C206D602D80110107F028810A302B001B7057E
:400E8000C408DE04E204EA02EC08EE04100F1A091C07003F8282000043000000E0CC0013011A0260410404000000100100A9205401004202000080B505FF0A00EF000004B3
:400EC000084D05920002420046A5004A60FF000080001F0000000000000000011200040000EC20000BFFFFFF0083030118000000000000000404040001090001400040002E
:400F00004040800080008000800080000000000000000000000000000000000000FF0000034D049201A90E5427004002020005010602010090CC0013901A0060810008B58F
:400F4000270440000000000400A5004A100070000F0080FF8A00200000000540420000000050020006FFFFFF42A070000810F600000000000404040400100001004840482E
:400F8000804880480000000000000000000000000000000000000000000000000701000000000000020107010700030000010100000000008300408C8F0083000000000021
:400FC0000020200000000000600000006000600000000000006060006000000000000000000000000000000000000000000000000000000000000000000000000000000071
:4010000000000000000000000000000000000000000000000000000000000000000000000000000000000000000000000000000000000000000000000000000000000000B0
:401040000000000000000000000000000000000000000000000000000000000000000000000000000000000000000000000000000000000000000000000000000000000070
:401080000000000000000000000000000000000000000000000000000000000000000000000000000000000000000000000000000000000000000000000000000000000030
:4010C00000000000000000000000000000000000000000000000000000000000000000000000000000000000000000000000000000000000000000000000000000000000F0
:0200000490006A
:0400000000004005B7
:0200000490105A
:04000000BC90ACAF55
:0200000490303A
:0200000022518B
:0200000490402A
:4000000000000000000000000000000000000000000000000000000000000000000000000000000000000000000000000000000000000000000000000000000000000000C0
:400040000000000000000000000000000000000000000000000000000000000000000000000000000000000000000000000000000000000000000000000000000000000080
:400080000000000000000000000000000000000000000000000000000000000000000000000000000000000000000000000000000000000000000000000000000000000040
:4000C0000000000000000000000000000000000000000000000000000000000000000000000000000000000000000000000000000000000000000000000000000000000000
:0200000490501A
:0C00000000012E16106900012E2532BAF6
:00000001FF