:400000000080002011000000B9000000B900000008B5044B1A6803F53F5302331A6000F065F800BFFA46004010B5054C237833B9044B13B10448AFF300800123237010BDA8
:40004000B081FF1F0000000088310000084B10B51BB108480849AFF300800848036803B910BD074B002BFBD0BDE81040184700BF0000000088310000B481FF1F0881FF1F7F
:400080000000000008B562B600F014FA024801F0DBFA00F091FAFEE79831000070B51646002405E04D1C087800F012FA01342946B442F7DB304670BDFEE700BF08B5094B01
:4000C0001A681044084BC31AB3F5805F02DC054B186005E000F0D0FE0C2303604FF0FF32104608BD0C81FF1FE081FF1F08B5104E104D16E029686B68AC68002204E051F8AE
:40010000040B43F8040B0432A242F8D1E868002203E0002143F8041B04328242F9D11035013E002EE6D100F0ADFEFFF7ABFFFEE701000000A833000008B5124A124B1A609A
:40014000124A136843F40073136000230AE0032B03D80F4A52F8231000E00E490E4A42F8231001332F2BF2D90C4B1A780C4B1A70094A0C4B1A6000F0C5F800220A4B1A60BE
:4001800008BD00BF0004FA050CED00E014ED00E000000000B90000000080FF1FBC7600400481FF1F08ED00E00081FF1FFEE700BFF0B40022174611E050F82760F3B226F0DC
:4001C000FF0608E001EB420511F812406D78A5550132013BDBB2002BF4D10137222FEBD9F0BC7047064B1B78DBB203F00701054A11701B09013213704422034B1A707047FE
:40020000CF0100496E5800407658004008B50A46002100F068FE08BD38B502222D4B1A8018232D490B700E200231088002310B7024200231088002310B704D20023108808D
:4002400002310B70EF200231088002310B70234B1A7008224FF040231A70032103F5007319701F4B1B78DBB21E490B701E4B1A8041F25122023B1A80002419250CE01B4B52
:400280001B7803F0010343EA440404F003044FF4F07000F039F9013D0DB1032CEFD115B90320FFF783FF124B4FF480721A8007221A7000220F490A704820023108701A70BB
:4002C0000222033B1A700C4A137843F01F03137038BD00BF80400040824000400043004008010049A146004022420040254200400440004006400040A243004008B500F080
:40030000E7FD08BD38B572B63D4A137843F00403137000240CE03B4963001A1952000A4423445B00C8589188FFF770FF0134E4B2082CF0D9002410E03249A3001A19520087
:400340000A4452F8380F23445B000B445168B3F84020FFF7D3FF0134E4B2022CECD94FF090402949FFF724FF284A137843F0020313701032137843F002031370244C23785E
:4003800043F040032370A2F58632513A137843F0100313701F4820490822FFF7AFFF1F481F490A22FFF7AAFF1E481F490822FFF7A5FF1E481E490A22FFF7A0FF1D481E49E2
:4003C0000822FFF79BFF1D481D490822FFF796FF1C4A137843F0080313701B4D61232B70FFF71AFF81232B700122184B1A70FFF7F9FE174821460E22FFF780FF38BD00BF20
:40040000E8460040A03100008C00004803500140A043004002510040440B0048C05100404C0B0048F2510040580B004810510040600B0048225100406C0B00483251004021
:40044000740B0048224300400048004004000840B04300407222084B1A702022013B1A700622A3F5AD731A70472210331A7000224F331A70704700BF8A65004010B500F068
:400480004BF804460A4A137843F020031370013A137843F010031370FB3A137843F01003137000F021F8204600F03AF810BD00BF9A65004008B5054B1B7823B9FFF7CAFF48
:4004C0000122024B1A70FFF7D9FF08BDCC81FF1F034B1B7813F0040FFAD1024B187070476E6400404E640040054A137843F0080313701032137843F008031370704700BF13
:40050000A2430040000000000230800803D000BF01380046FCD17047EFF3108072B6704780F31088704700BF024A137843F08003137070477F640040014B1870704700BF41
:400540008B650040014B1878704700BF6B650040014B1870704700BF28650040014B1878704700BF48650040014B1870704700BF0865004008B501E0FFF7F0FFFFF7E2FF42
:4005800010F0080FF8D108BD08B50720FFF7E0FF0720FFF7E9FFFFF7BFFF064A137843F010031370FFF7BCFFFFF7E4FF0020FFF7C3FF08BD9B65004008B5054B1B7823B99D
:4005C000FFF7E2FF0122024B1A70FFF7ADFF08BDCE81FF1F81F0004102E000BF83F0004330B54FEA41044FEA430594EA050F08BF90EA020F1FBF54EA000C55EA020C7FEAA7
:40060000645C7FEA655C00F0E2804FEA5454D4EB5555B8BF6D420CDD2C4480EA020281EA030382EA000083EA010180EA020281EA0303362D88BF30BD11F0004F4FEA0131CA
:400640004FF4801C4CEA113102D0404261EB410113F0004F4FEA03334CEA133302D0524263EB430394EA050F00F0A780A4F10104D5F1200E0DDB02FA0EFC22FA05F280183A
:4006800041F1000103FA0EF2801843FA05F359410EE0A5F120050EF1200E012A03FA0EFC28BF4CF0020C43FA05F3C01851EBE37101F0004507D54FF0000EDCF1000C7EEB2C
:4006C00000006EEB0101B1F5801F1BD3B1F5001F0CD349085FEA30004FEA3C0C04F101044FEA445212F5800F80F09A80BCF1004F08BF5FEA500C50F1000041EB045141EA3F
:40070000050130BD5FEA4C0C404141EB010111F4801FA4F10104E9D191F0000F04BF01460020B1FA81F308BF2033A3F10B03B3F120020CDA0C3208DD02F1140CC2F10C0246
:4007400001FA0CF021FA02F10CE002F11402D8BFC2F1200C01FA02F120FA0CFCDCBF41EA0C019040E41AA2BF01EB0451294330BD6FEA04041F3C1CDA0C340EDC04F1140474
:40078000C4F1200220FA04F001FA02F340EA030021FA04F345EA030130BDC4F10C04C4F1200220FA02F001FA04F340EA0300294630BD21FA04F0294630BD94F0000F83F46D
:4007C000801306BF81F480110134013D4EE77FEA645C18BF7FEA655C29D094EA050F08BF90EA020F05D054EA000C04BF1946104630BD91EA030F1EBF0021002030BD5FEA87
:40080000545C05D14000494128BF41F0004130BD14F580043CBF01F5801130BD01F0004545F0FE4141F470014FF0000030BD7FEA645C1ABF194610467FEA655C1CBF0B469D
:40084000024650EA013406BF52EA033591EA030F41F4002130BD00BF90F0000F04BF0021704730B54FF4806404F132044FF000054FF0000150E700BF90F0000F04BF0021AB
:40088000704730B54FF4806404F1320410F0004548BF40424FF000013EE700BF42004FEAE2014FEA31014FEA02701FBF12F07F4393F07F4F81F06051704792F0000F14BFB4
:4008C00093F07F4F704730B54FF4607401F0004521F0004120E700BF50EA010208BF704730B54FF000050AE050EA010208BF704730B511F0004502D5404261EB41014FF4C8
:40090000806404F132045FEA915C3FF4DCAE4FF003025FEADC0C18BF03325FEADC0C18BF033202EBDC02C2F1200300FA03FC20FA02F001FA03FE40EA0E0021FA02F11444B7
:40094000C1E600BF70B54FF0FF0C4CF4E06C1CEA11541DBF1CEA135594EA0C0F95EA0C0F00F0DEF82C4481EA030621EA4C5123EA4C5350EA013518BF52EA033541F48011AF
:4009800043F4801338D0A0FB02CE4FF00005E1FB02E506F00042E0FB03E54FF00006E1FB03569CF0000F18BF4EF0010EA4F1FF04B6F5007F64F5407404D25FEA4E0E6D41C7
:4009C00046EB060642EAC62141EA55514FEAC52040EA5E504FEACE2EB4F1FD0C88BFBCF5E06F1ED8BEF1004F08BF5FEA500E50F1000041EB045170BD06F0004646EA0101F7
:400A000040EA020081EA0301B4EB5C04C2BFD4EB0C0541EA045170BD41F480114FF0000E013C00F3AB8014F1360FDEBF002001F0004170BDC4F10004203C35DA0C341BDCEF
:400A400004F11404C4F1200500FA05F320FA04F001FA05F240EA020001F0004221F0004110EBD37021FA04F642EB06015EEA430E08BF20EAD37070BDC4F10C04C4F12005EC
:400A800000FA04F320FA05F001FA04F240EA020001F0004110EBD37041F100015EEA430E08BF20EAD37070BDC4F1200500FA05F24EEA020E20FA04F301FA05F243EA020354
:400AC00021FA04F001F0004121FA04F220EA020000EBD3705EEA430E08BF20EAD37070BD94F0000F0FD101F00046400041EB010111F4801F08BF013CF7D041EA060195F052
:400B0000000F18BF704703F00046520043EB030313F4801F08BF013DF7D043EA0603704794EA0C0F0CEA135518BF95EA0C0F0CD050EA410618BF52EA4306D1D181EA0301C8
:400B400001F000414FF0000070BD50EA410606BF1046194652EA430619D094EA0C0F02D150EA013613D195EA0C0F05D152EA03361CBF104619460AD181EA030101F00041BC
:400B800041F0FE4141F470014FF0000070BD41F0FE4141F4780170BD70B54FF0FF0C4CF4E06C1CEA11541DBF1CEA135594EA0C0F95EA0C0F00F0A7F8A4EB050481EA030EE2
:400BC00052EA03354FEA013100F088804FEA03334FF0805545EA131343EA12634FEA022245EA111545EA10654FEA00260EF000419D4208BF964244F1FD0404F5407402D27B
:400C00005B084FEA3202B61A65EB03055B084FEA32024FF480104FF4002CB6EB020E75EB030E22BFB61A754640EA0C005B084FEA3202B6EB020E75EB030E22BFB61A754688
:400C400040EA5C005B084FEA3202B6EB020E75EB030E22BFB61A754640EA9C005B084FEA3202B6EB020E75EB030E22BFB61A754640EADC0055EA060E18D04FEA051545EAA9
:400C800016754FEA06164FEAC30343EA52734FEAC2025FEA1C1CC0D111F4801F0BD141EA00014FF000004FF0004CB6E711F4801F04BF01430020B4F1FD0C88BFBCF5E06F81
:400CC0003FF6AFAEB5EB030C04BFB6EB020C5FEA500C50F1000041EB045170BD0EF0004E4EEA113114EB5C04C2BFD4EB0C0541EA045170BD41F480114FF0000E013C90E6C4
:400D000045EA060E8DE60CEA135594EA0C0F08BF95EA0C0F3FF43BAF94EA0C0F0AD150EA01347FF434AF95EA0C0F7FF425AF104619462CE795EA0C0F06D152EA03353FF48E
:400D4000FDAE1046194622E750EA410618BF52EA43067FF4C5AE50EA41047FF40DAF52EA43057FF4EBAE12E74FF0FF3C06E000BF4FF0010C02E000BF4FF0010C4DF804CDA2
:400D80004FEA410C7FEA6C5C4FEA430C18BF7FEA6C5C1BD001B050EA410C0CBF52EA430C91EA030F02BF90EA020F0020704710F1000F91EA030F58BF994208BF90422CBFB0
:400DC000D8176FEAE37040F0010070474FEA410C7FEA6C5C02D150EA013C07D14FEA430C7FEA6C5CD6D152EA033CD3D05DF8040B704700BF8446104662468C46194663469D
:400E000000E000BF01B5FFF7B7FF002848BF10F1000F01BD4DF808EDFFF7F4FF0CBF012000205DF808FB00BF4DF808EDFFF7EAFF34BF012000205DF808FB00BF4DF808EDD0
:400E4000FFF7E0FF94BF012000205DF808FB00BF4DF808EDFFF7CEFF94BF012000205DF808FB00BF4DF808EDFFF7C4FF34BF012000205DF808FB00BF014B1868704700BFCA
:400E80007081FF1F0E4B70B51E460E4C0025E41AA410A54204D056F8253098470135F8E702F070FA084B094C1E46E41AA4100025A54204D056F8253098470135F8E770BD00
:400EC0009033000090330000903300009833000010B5431E0A44914204D011F8014B03F8014FF8E710BD03460244934202D003F8011BFAE770472DE9F0471E4688B0149FF6
:400F0000002BB8BF06F10043129927F02007B6BF1E4600232D23462F1446109DDDF84CA00B7003D0452F03D1013501E0032300E002238DE8280406AB039307AB04932246F2
:400F4000334600F005FD472F804602D1119BDB0726D5462F08EB050911D198F80030302B0AD12046314600220023FFF753FF18B9C5F10105CAF80050DAF8003099442046D2
:400F8000314600220023FFF745FF08B1CDF81C90079B4B4504D25A1C079230221A70F7E74046079B159AC8EB0303136008B0BDE8F087034673B50029B8BF494203F8022BA5
:400FC000B4BF2D222B22092942701ADD0DF1070426460A2291FBF2F502FB1511092D01F1300104F8011D2946F3DC3031651E04F8011CB5421A460AD215F8012B03F8012B8F
:40100000F7E71A463024214402F8024B5970101A02B070BD2DE9F04F91B08B4615461E461A9F044601F0C6FBD0F800A0504600F03BFB00230E933B680990073323F007034A
:4010400003F108029BF818803A60D3E90023CBE91223DBE9120100F0FFFA0128DBE9120119D100220023FFF7DFFE10B12D238BF84330A04BA04FB8F1470F88BF1F46032371
:40108000CBF81030DBF8003023F00403CBF800304FF00009A1E000F0DFFADBF8003048B9964A974FB8F1470F88BF17460322CBF81020E9E7DBF80420DBE91201571CCDE93F
:4010C0000A0101D1062209E0B8F1670F02D0B8F1470F05D1002A40F0C7810122CBF80420DBF8042043F480638DE80C00CBF800300DF1330302930DAB03930EAB0593002380
:401100000693CDF81080DDE90A232046FFF7F3FE08F0DF03472B07460AD10D9BD81C03DBDBF80420934237DDA8F102085FFA88F8B8F1650F0D9915D8013942460BF1500079
:401140000D91FFF736FF0E9A81468318012ACBF8103003DCDBF80020D10738D50133CBF8103034E0B8F1660F18D10029DBF8043009DDCBF810101BB9DBF80020D20721D5D6
:4011800001330B441CE01BB9DBF80020D00701D5023315E0012313E04FF067080D9B0E9A934207DBDBF80020CBF81030D10709D5013305E0002BD4BFC3F10203012313448F
:4011C000CBF810300D9B4FF00009CBF858309DF8333013B12D238BF843300096204659460FAA2B4600F05CF9013002D14FF0FF3052E1DBF800305A0505D4204629463A4670
:40120000DBF8103008E1B8F1650F40F2D080DBE9120100220023FFF7FDFD50B320462946384A0123B0470130E0D00E9B0D9A9A4209DBDBF80030D80705D4DBF800309F073D
:4012400000F1108107E1204629465246099BB0470130CBD000270E9B013B9F42EDDA204629460BF11A020123B0470130BED00137F1E70D9B002B29DC20462946214A012369
:40128000B0470130B2D00D9B2BB90E9B1BB9DBF80030D907D1D5204629465246099BB0470130A3D04FF000080D9B20465B429845294608DA0BF11A020123B047013095D05D
:4012C00008F10108F0E73A460E9BA5E0DBF858200E9B9A42A8BF1A46002A914602DC4FF000081CE0204629463A464B46B0470130F5D17BE704320000003200000C320000D2
:401300000832000010320000204629460BF11A020123B04701303FF469AF08F10108DBF85830B9F1000FB4BF1A46C9EB03029045EADB07EB03080D9A0E9B9A4210DBDBF88A
:401340000030DA070CD40E9A1744C8EB07030D9FD21B9342A8BF1346002B1F4608DC0EE0204629465246099BB0470130EBD13DE7204629464246B04701303FF437AF4FF036
:4013800000080AE0204629460BF11A020123B04701303FF42BAF08F101080D9A0E9B002FA3EB0203A8BFDB1B9845EBDB45E70E9A012A01DCDB0736D5204629463A4601239F
:4013C000B04701303FF412AF204629465246099BB04701303FF40AAFDBE9120100220023FFF718FDE8B90E9B204629467A1C013B1DE0204629460BF11A020123B04701305E
:401400003FF4F4AE01370E9B013B9F42F1DB204629464B460BF15002B04701307FF40DAFE4E60027EFE7204629463A460123B0470130ECD1DAE6204629460BF1190201230D
:40144000B04701303FF4D2AE0137DBF80C300F9A9B1A9F42EFDBDBF80C000F9B9842B8BF184619E00027F0E743F480638DE80C00CBF800300DF1330302930DAB03930EABB4
:40148000059300230693CDF810802046DDE90A23FFF731FD074640E611B0BDE8F08F00BF2DE9F84391461F468A680B6906469342B8BF1346C9F8003091F843200C46DDF807
:4014C000208012B10133C9F800302368990642BFD9F800300233C9F80030256815F006051CD094F843302268003318BF012392061FD5E118302081F843005A1C94F84510EA
:401500002244023382F8431013E03046394604F119020123C047013007D00135E368D9F800209B1A9D42F0DBDBE74FF0FF30BDE8F8833046394604F14302C0470130F4D0CC
:401540002268D9F80050E36802F00602042A08BF5D1B2269A3680CBF25EAE57500259342C4BF9B1AED184FF00009A9450ADA3046394604F11A020123C0470130D5D009F1F2
:401580000109F2E70020BDE8F88370B50E46054618B183690BB901F085F8AC68A389190701D5236983B92846214600F0D9F858B14FF0FF3070BD002B0EDB236816F8012C4B
:4015C0001A70236801332360A36816F8012B013BA360002AEFD116E0A269934209DB236816F8012C1A70236819780A29EAD1284602E0284616F8011C224600F05DF8421CA9
:4016000050425041D3E7002B15DAA269934208DB23680A221A702368197891420FD1284601E028460A21224600F046F8431C5842584130B1BCE723680A221A70236801334C
:4016400023600A2070BD0000024B01461868FFF79CBF00BF7081FF1F31F0004310B51BD00F4AA1F58014944210D901F1FF410C4A01F5E001914209D9B3F5801F08D3094A7E
:40168000934207D1B0FA80F0400910BD042010BD032010BD002010BD0028E6D1022010BDFFFFDF7F0000F07F034613F8012B002AFBD1181A0138704770B50D461446064630
:4016C00018B183690BB900F0EDFF224B9C4201D1746808E0204B9C4201D1B46803E01F4B9C4208BFF468A369A360A3891A0709D523693BB123682069EDB2181A63699842F2
:401700000FDB08E03046214600F02AF80028F1D04FF0FF3070BD3046214600F059FF0028F6D1A3680130013BA36023685A1C22601D706369984204D0A389DB0707D50A2D2A
:4017400005D13046214600F043FF0028E0D1284670BD00BF203200004032000060320000314B70B51D6806460C4625B1AB6913B9284600F097FF2D4B9C4201D16C6808E0A9
:401780002B4B9C4201D1AC6803E02A4B9C4208BFEC68A3899AB211071DD4D50602D40922326038E0500712D5616B41B104F14403994202D0304601F041FB00236363A389FA
:4017C00023F02403A3810023636023692360A38943F00803A38123694BB9A38903F42073B3F5007F03D03046214600F0E7FFA38913F0010205D00022A26062695242A26188
:4018000003E0990758BF6269A26022694AB903F0800080B230B143F04003A3814FF0FF3070BD002070BD00BF7081FF1F2032000040320000603200002DE9F74F03690C694A
:401840008046A3427EDB013C01F114074FEA840E00F1140606EB0E0357F82450019356F824300135B3FBF5F507EB0E09BDB34FF0000A3846B446D34650F8043B9AB21B0C2E
:4018800002FB05A26B4303EB124392B2C2EB0B0BBCF800204FEA134A5A441FFA83FBDCF800304845CBEB134303EB224392B242EA03424FEA234B4CF8042BDDD956F80E30EC
:4018C0006BB9019B043BB3421A4602D8C8F8104005E01268043B002AF8D1013CF3E7404601F0D1F900282BDB304601354FF0000E57F8042B036891B2C1EB0E0E120C99B23D
:401900007144C2EB134303EB214389B24FEA234E4F4541EA034340F8043BE9D956F8242006EB840362B9043BB3421A4602D8C8F8104005E01268043B002AF8D1013CF3E72F
:40194000284600E0002003B0BDE8F08F000000002DE9F04F456A95B08246219CCDE9022345B9102000F076FFCAF82400456085600560C560DAF82430196859B15A68012355
:4019800093404A608B60504600F0A1FFDAF8243000221A60039BA24A002BBDBF01232360039B0023BCBF23F000430393039FA8BF236027F000431B0D1B0593421DD142F2B2
:4019C0000F73209A1360029B43B9964A964BC7F31300002814BF1846104600E09248229B002B00F06985C37813B100F1080300E0C31C229A136000F05FBDDDE902450022BE
:401A0000204629460023FFF705FA804658B1209A01231360229B002B00F03C8583481860013800F049BD13AB009312AB0193504622462B4601F0A2F9C7F30A5607905EB131
:401A4000C5F3130343F07F51204641F44011A6F2FF36CDF844801DE0139B129E1E446FF482639E42A1BF029A06F2124322FA03F06F4BB7BF6F4B9B1B029A9B1BAABF9F40DC
:401A800002FA03F03843FEF7E7FE0123A1F1F871013E11930022684BFEF7A0FD5AA3D3E90023FEF74FFF5AA3D3E90023FEF798FD044630460D46FEF7DFFE57A3D3E9002336
:401AC000FEF740FF02460B4620462946FEF788FD04460D4601F008FB29468346002220460023FFF7A1F958B15846FEF7C5FE02460B4620462946FFF78DF908B90BF1FF3B86
:401B0000BBF1160F0DD84D4B03EBCB03D3E90001DDE90223FFF7A6F930B10BF1FF3B002300E00123109300E01090129B9E1B731E0A9345BF5B420993002300234CBF0A933E
:401B40000993BBF1000F07DB0A9BCDF834B05B440A9300230B9308E0099BCBEB03030993CBF100030B9300230D931E9B092B29D8052BC4BF043B1E931E9BC8BF0025A3F153
:401B80000203D8BF0125032B21D8DFE803F0020E0410002300E001230C931F9B002B20DC0123069305931A4619E0002300E001230C931F9B5B4406930133012B0593B8BFE2
:401BC000012311E0012500231E930C9501E001230C934FF0FF3306930593002212231F9202E01F9B06930593DAF8244000226260042101F114029A4222D8626849000132B7
:401C00006260F6E7AFF3008061436F63A787D23FB3C8608B288AC63FFB799F501344D33F0000F07F123200001B320000113200000EFCFFFFEEFBFFFF0000F83F8832000022
:401C40005046616800F00EFEDAF8243020601B680893059B0E2B00F24781002D00F04481DDE90223BBF1000FCDE90E2331DDB14A0BF00F034FEA2B1602EBC303F006D3E94E
:401C800000450CD5DDE90E01AB4B06F00F06D3E90823FEF781FF0327CDE9020100E00227DFF8948276B1F10708D5D8E9002320462946FEF747FE04460D460137761008F1B0
:401CC0000808EFE7DDE9020122462B46FEF764FF1BE0CBF10004DCB1DDE90E01954B04F00F0203EBC203D3E90023FEF72BFE924D241102274CB1E20704D5D5E9002301373D
:401D0000FEF720FE64100835F4E7CDE9020100E00227109BDBB1DDE90245002220462946864BFFF781F890B1059B83B1069B002B40F3D680294620460022814BFEF702FEA5
:401D40000BF1FF36CDE902010137069D01E05E46059D3846DDE90289FEF78EFD42464B46FEF7F0FD774B0022FEF73AFCCDE90201039BA3F150740394CDB94046494600221B
:401D8000714BFEF72BFC029A234680468946FFF769F8002840F0408240464946029A04F10043FFF741F8002840F0308298E0614B0C996A1E03EBC203002947D0D3E90023FB
:401DC00000206249FEF7E8FEDDE90223FEF706FCCDE90201089C4946404601F085F90746FEF74AFD02460B4640464946FEF7F6FBDDE90223303704F8017B80468946FFF708
:401E000013F8002840F0378342464B4600204B49FEF7E4FBDDE90223FFF706F8002840F0D080089BE31AAB425ADADDE902010022434BFEF787FD0022CDE90201404B4046BE
:401E40004946FEF77FFD80468946C4E7D3E90001DDE90223FEF776FD089BCDE902015C191D464946404601F03FF90746FEF704FD02460B4640464946FEF7B0FB303705F8AB
:401E8000017BA5428046894623D100222F4BDDE90201FEF7A5FB02460B4640464946FEF7E1FF002840F08D80DDE9022300202749FEF794FB02460B4640464946FEF7B4FFFF
:401EC00070B114F8013C621E302B40F0D4821446F7E700221A4BFEF735FD80468946C0E7DDE90E23CDE90223139B002BC0F28A80BBF10E0F00F386800E4B03EBCB03D3E9FB
:401F000000671F9B002B23DA059B002B20DC40F07C81304600220C4B3946FEF713FDDDE90223FEF795FF059D2E46002840F06F8174E100BF88320000503300000000F03F9F
:401F40000000244000001C40000014400000E03F089CDDE9028932463B4640464946FEF71BFE01F0C1F80546FEF786FC32463B46FEF7E8FC0B46024649464046FEF72EFB13
:401F800005F1300E089B04F801EBC3EB040E059B9E452AD102460B46FEF722FB32463B4680468946FEF75EFF70B94046494632463B46FEF72FFF002800F05E82EB0703D47E
:401FC0005AE2B34600E01C4614F8012C631E392A07D1089A9342F6D13023137013460BF1010B1A7801321A7046E20022A34BFEF7A9FC0022002380468946FEF70BFF0028DE
:40200000A9D039E20C9A002A32D01E9A012A0ADC119A12B103F2334302E0129BC3F136030B9D099C18E0059B5D1E0B9BAB42B7BF0B9B5D1BEA1A0D9BBEBF0B959B180D9379
:40204000059BB8BF0025002BB9BF099B059A099C059BBCBF9C1A0023099A50461A4409920A9A01211A440A9200F0D3FC064602E00B9D099C0C9E64B10A9B002B09DDA3421F
:40208000A8BF2346099AE41AD21A09920A9AD31A0A930B9B002B20DD0C9BC3B1002D10DD31462A46504600F04DFD0646079A3146504600F0B7FC07460799504600F007FC2D
:4020C00007970B9B5A1B08D05046079902E0504607990B9A00F036FD07905046012100F098FC0D9B0546002B0ADD29461A46504600F028FD1E9B0546012B04DD00271BE0B4
:402100001E9B012B13DC029B8BB9039BC3F313037BB9039B23F000473F0D3F0557B1099B0127013309930A9B01330A9302E0002700E0029F0D9B43B12B6905EB83031869F9
:4021400000F01AFCC0F1200000E001200A9B184410F01F0008D0C0F12003042B02DDC0F11C0002E008D018461C30099B0444034409930A9B03440A93099B002B05DD5046DD
:4021800007991A4600F02CFD07900A9B002B05DD294650461A4600F023FD0546109BEBB10798294600F06FFD002817DA0023504607990A2200F0A2FB0C9B0BF1FF3B0790AD
:4021C000002B00F06B813146002350460A2200F095FB069B0646002B33DC68E1059B002B26DC1E9B022B23DD059B0693069B73B929460522504600F081FB054607982946E2
:4022000000F041FD002809DC01E000252E461F9B089C6FEA030B08E0B3462E46089B089A5C1C312313700BF1010BB14600260FE10C9B23B9059B0693089F079CC9E0059BD7
:402240000693002C05DD31465046224600F0C8FC0646AFB17168504600F004FB0446326906F10C01023292000C30FEF731FE50462146012200F0B4FC814602E000002440A8
:40228000B146089F079C29462046FFF7D5FA3146099000F13008204600F0F5FC4A4605902946504600F00BFDC26803463AB919462046079300F0E7FC079B024600E001221C
:4022C00050461946079200F002FB079A92B91E9B83B9029B03F0010363B9B8F1390F3B4607943ED0059B7C1C002BC4BF099B03F131083DE0059B002B04DA002AC44607946B
:4023000008DC21E024D11E9B13BB029B03F00103F3B9F2E72146012250460597CDF8088000F05EFC2946079000F0ADFC0028DDF808C0059B03DC07D118F0010F04D0B8F180
:40234000390F0ED008F1010C7C1C87F800C07FE0002A07F101020EDDB8F1390F3B46079403D1392201371A7057E0144608F1010887F800806CE0089B1746D31A02F8018C9B
:40238000069A93423AD021460A220023504600F0B5FA4E450446314650464FF00A024FF0000304D100F0AAFA064681466BE700F0A5FA494606460A225046002300F09EFA97
:4023C000814660E7214650460A22002300F096FA044620462946FFF72FFA089B00F1300807F8018B069AFB1A9342EBDB089BB146012AACBF9B1801331F46002621460122F2
:40240000504600F0EDFB2946079000F03CFC002803DC15D118F0010F12D03C4614F8013C621E392B09D1089B9A4204D10BF1010B3123089A02E01446F0E70133137007E08D
:402440003C4614F8013C621E302B01D11446F8E75046294600F03BFAB9F1000F0CD02EB14E4503D05046314600F031FA5046494600F02DFA00E0B3465046079900F027FA23
:402480000023209A23700BF101031360229B1BB11C6001E00A480FE008980DE0069B002B3FF7CAAE1E9B022B3FF7A0AEC4E61E9B022B3FF79BAEC4E615B0BDE8F08F00BF40
:4024C00010320000AFF300808A892DE9F041054610070C4657D44B68002B02DC0B6C002B18DDE66AB6B102F48052002392B22F682B600AB1626D10E0216A28460123B04756
:40250000411C024609D12B683BB11D2B01D0162B46D12F600020BDE8F081A3895B0705D56368D21A636B0BB1236CD21AE66A00232846216AB047461CA38905D12A681AB11F
:402540001D2A01D0162A19D1002262602269D904226004D5421C01D12B6803B96065616B2F600029D6D004F14403994202D0284600F064FC00206063BDE8F08143F04003EE
:40258000A381BDE8F0810F69002FC3D093070E680CBF4B690023C7EB06080F608B6012E0A3894FF0FF3043F04003A381BDE8F0812846216A3A464346A66AB0470028EFDDA2
:4025C0000744C0EB0808B8F1000FF1DCA2E7000038B50B6905460C46DBB118B183690BB900F060F80C4B9C4201D16C6808E00B4B9C4201D1AC6803E0094B9C4208BFEC686F
:40260000B4F90C302BB128462146BDE83840FFF75BBF002038BD00BF203200004032000060320000014900F0A7B800BFD125000010B5044600230360436083608181436695
:40264000C28103614361836119465C300822FEF74AFC054B24626362044BA362044BE362044B236310BD00BF912F0000B32F0000EB2F00000F30000070B568234D1E5D4341
:402680000E4605F1740100F01DFC044640B1002180E842000C30A06005F16802FEF723FC204670BD836910B5044633BB8364C3640365124B124A1B688262984204BF0123C9
:4026C000836100F01FF86060204600F01BF8A060204600F017F80421E06000226068FFF7A7FFA06809210122FFF7A2FFE06812210222FFF79DFF0123A36110BDFC31000037
:4027000025260000F8B51B4B07461E68B36913B93046FFF7C7FF4836B4687368013B04D4B4F90C5075B16834F8E733682BB938460421FFF7A1FF306008B13668ECE70C237A
:402740003B60F8BD4FF6FF73E3810123A38165662560A560656025616561A56104F15C0029460822FEF7BFFB6563A563A564E5642046F8BDFC3100002DE9F8438046894651
:4027800000F14804002694B1A5686768013F0CD4AB89012B07D9B5F90E30013303D040462946C84706436835F0E72468EBE73046BDE8F883004870477481FF1FF0B58B89C2
:4027C00091B09D0706460C4625D4B1F90E10002908DAA389002513F0800F14BF40274FF480670DE001AA00F039FC0028F1DB029D4FF4806705F47045A5F500514D424D4113
:402800003046394600F05EFB60B9A3899A051DD443F00203A38104F14703236023610123636113E00A4BB362A389206043F08003A381206167614DB13046B4F90E1000F0A0
:402840001FFC18B1A38943F00103A38111B0F0BD25260000024B0146186800F033BB00BF7081FF1F70B5456A04460E463DB91020FFF7F0FF6062456085600560C560656A52
:40288000EB6843B1636ADB6853F8260078B1026843F8262017E020460421212200F0C0FA636AE860DB68002BECD1002070BD012101FA06F56A1D2046920000F0B1FA0028E6
:4028C000F3D04660856000230361C36070BD70B5446A06460D463CB91020FFF7BBFF7062446084600460C4603DB1736A6A68DB6853F82210296043F8225070BD2DE9F04183
:4029000006460C460F69984601F1140E0023DEF80000013385B2010C02FB0585514301EB1541ADB24FEA1148BB4205EB01414EF8041BECDBB8F1000F1BD0A3689F4212DBF9
:40294000616830460131FFF78DFF0546226904F10C01023292000C30FEF7BAFA21463046FFF7B5FF2C4604EB87030137C3F8148027612046BDE8F081030C1B0413B90004E6
:40298000102300E0002310F07F4F04BF0002083310F0704F04BF0001043310F0404F04BF80000233002803DB420003D5581C70471846704720207047036813F007020BD0A9
:4029C000D90722D49A074BBF5B089B08036003604CBF01200220704799B209B91B0C102213F0FF0F04BF1B0A0832190704BF1B090432990704BF9B080232D90702D45B085C
:402A000005D00132036010467047002070472020704710B50C460121FFF724FF01224461026110BD2DE9F74F14460A69236988469A42BEBF0B46A0461C46D8F81070D4F875
:402A40001090D8F80830D8F8041007EB09069E42C8BF0131FFF706FF00F114052B4605EB860C634503D2002243F8042BF9E704F1140208F1140102EB890301EB87070093B0
:402A8000009B01929A4257D2B2F800B0BBF1000F23D08946AE464FF0000859F8044BBEF800A0A3B20BFB03A34FEA144ADEF8004043444FEA14480BFB0A84F24604EB1344FF
:402AC0009BB243EA04434F454FEA14484AF8043B01D9D646E1E7CEF80480019B0432B3F802A0BAF1000F21D02C4689462B684FF00008B9F800E0B4F802B09BB20AFB0EBE71
:402B0000A346F04443EA08434BF8043B59F8043BB4F804E01B0C0AFB03E3B94503EB18434FEA134801D25C46E3E763600435A7E75CF8043D13B9013E002EF9DC066103B0EB
:402B4000BDE8F08F12F003032DE9F04106460F46154607D0214A013B52F823200023FFF7CDFE0746AD1035D0746A3CB91020FFF771FE7062446084600460C460D6F824802C
:402B8000D8F808407CB9304640F27121FFF741FF0023C8F808000446036004E06D1019D0206870B10446EB07F8D5394622463046FFF738FF804639463046FFF788FE474676
:402BC000ECE7304621462246FFF72CFF002320600360E7E73846BDE8F08100BF783300002DE9F0470C460746164623694FEA621A0AEB03094968A36809F101059D4202DDC6
:402C000001315B00FAE73846FFF72CFE804600F114010023534504DA002241F823200133F8E72AEAEA73206901EB830316F01F0204F1140101EB800E14D0C2F1200C002078
:402C40000E689A469640304343F8040B51F8040B714520FA0CF0F3D3CAF8040048B109F1020506E0043B51F8042B714543F8042FF9D3013D3846C8F810502146FFF727FED6
:402C80004046BDE8F08703690A6910B59B1A11D192001430143183180A4453F8044D52F8041D8C4202D007D3012010BD8342F4D8002010BD184610BD4FF0FF3010BD2DE9CA
:402CC000F84307460C46084611461546FFF7DBFF061E08D138463146FFF7C4FD012303614661BDE8F883BCBF23462C4638466168BABF1D4601260026FFF7B4FD2B69C6600B
:402D0000266905F1140904F1140101EB860709EB830800F114054FF0000C51F8042B59F8044B93B29C44A3B2240CC3EB0C03C4EB124202EB23429BB24FEA224CC84543EA98
:402D400002428E4645F8042BE7D8BE450ED25EF8043B9AB262441B0C03EB224392B242EA03424FEA234C45F8042BEEE755F8043D0BB9013EFAE70661BDE8F8832DE9F3414B
:402D80001C4601211546089F099EFFF76BFDC4F31302C4F30A5480460CB142F480120192EDB102A840F8085DFFF706FE009B50B1019AC0F1200102FA01F10B43C240C8F8E3
:402DC0001430019201E0C8F81430019B002B14BF02250125C8F81830C8F8105009E001A8FFF7EAFD019B0125C8F81430C8F81050203034B1A4F2334404443C60C0F13500A7
:402E000009E0A0F2324008EB850338601869FFF7B3FDC0EB45103060404602B0BDE8F08138B502FB01F4214600F04CF8054618B100212246FEF757F8284638BD30B50029C1
:402E40003CD051F8042C0B1F1D49002AB8BF9B180A680C4612B95A600B6030BD93420DD219685818904201BF5A5852181A60426823605A6030BD994203D80A4651680029BF
:402E8000F9D1146815199D420AD11B682344D0188842136012D10868034413604B680CE002D90C23036030BD1C681819884201BF08684968001918605960536030BD00BFC6
:402EC000D481FF1F70B5CC1C24F0030408340C2C38BF0C24002C064603DA0C233360002070BD8C42F9D3204A136810461946A1B10A68121B0ED40B2A03D90A608B188C5037
:402F00001FE08B420BBF5A684A6802605A6018BF0B4616E00B464968E9E7144D2B681BB9304600F025F828603046214600F020F8421C0346D1D0C51C25F0030585420AD1DB
:402F40001C6003F10B001A1D20F00700821A0AD05142995070BD3046E91A00F009F80130BBD02B46ECE770BDD481FF1FD081FF1F38B5064C0023054608462360FDF79EF8E8
:402F8000431C02D1236803B12B6038BDD881FF1F10B50C46B1F90E1000F094F80028ABBF636DA3891B1823F48053ACBF6365A38110BD2DE9F0411D468B890746DB050C4642
:402FC000164605D5B1F90E100022022300F068F8A389384623F48053A381B4F90E1032462B46BDE8F04100F017B810B50C46B1F90E1000F055F8431CA38915BF606523F4E4
:40300000805343F48053A38118BFA38110BDB1F90E1000F013B8000038B5074C054600202060084611461A46FDF738F8431C02D1236803B12B6038BDD881FF1F38B5064C49
:40304000002305460846236000F076F8431C02D1236803B12B6038BDD881FF1F38B5074C0023054608461146236000F06DF8431C02D1236803B12B6038BD00BFD881FF1FF9
:4030800038B5064C002305460846236000F064F8431C02D1236803B12B6038BDD881FF1F38B5074C054600202060084611461A4600F05AF8431C02D1236803B12B6038BD7B
:4030C000D881FF1F38B5074C054600202060084611461A4600F050F8431C02D1236803B12B6038BDD881FF1F4FEA410212F5001215D211D56FF47873B3EB625212D94FEA63
:40310000C12343F0004343EA505311F0004F23FA02F018BF404270474FF00000704750EA013005D111F0004008BF6FF0004070474FF00000704700BF024B58221A604FF02C
:40314000FF307047D881FF1F024B58221A604FF0FF307047D881FF1F024B58221A600020704700BFD881FF1F024B58221A604FF0FF307047D881FF1F024B58221A604FF06A
:40318000FF307047D881FF1F00000000000000002578200D0A00000053746172740D0000C84900401900405100403000000001400008800801400002000B014000050014DF
:4031C0000140000800400140000A004C014000020050014020000000605200403C0A0048060000080140440A00488000800A0140C40A004880000000430000001081FF1F83
:40320000494E4600696E66004E414E006E616E003000496E66696E697479004E614E00000000000000000000000000000000000000000000000000000000000000000000E3
:40324000000000000000000000000000000000000000000000000000000000000000000000000000000000000000000000000000000000000000000000000000000000004E
:40328000504F534958002E00000000000000F03F000000000000244000000000000059400000000000408F40000000000088C34000000000006AF8400000000080842E4172
:4032C00000000000D01263410000000084D797410000000065CDCD41000000205FA00242000000E876483742000000A2941A6D42000040E59C30A2420000901EC4BCD64239
:4033000000003426F56B0C430080E03779C3414300A0D8855734764300C84E676DC1AB43003D9160E458E143408CB5781DAF154450EFE2D6E41A4B4492D54D06CFF08044E6
:40334000F64AE1C7022DB544B49DD9794378EA440080E03779C34143176E05B5B5B89346F5F93FE9034F384D321D30F94877825A3CBF737FDD4F1575050000001900000014
:403380007D000000F8B500BFF8BC08BC9E4670474D00000039010000F8B500BFF8BC08BC9E46704729000000B83300000881FF1FA80000003000000000000000E081FF1FF9
:4033C0000000000020320000403200006032000000000000000000000000000000000000F8310000000000000000000000000000000000000000000000000000000000004E
:4034000000000000000000000000000000000000000000000000000000000000000000001081FF1F86320000873200008732000087320000873200008732000087320000CF
:40344000873200008732000087320000FFFFFFFFFFFFFFFFFFFFFFFFFFFF00000000000000000000000000000000000000000000000000000000000000000000000000002F
:40348000000000000000000000000000000000000000000000000000000000000000000000000000000000000000000000000000000000000000000000000000000000000C
:4034C00000000000000000000000000000000000000000000000000000000000000000000000000000000000000000000000000000000000000000000000000000000000CC
:40350000000000000000000000000000000000000000000000000000000000000000000000000000000000000000000000000000000000000000000000000000000000008B
:40354000000000000000000000000000000000000000000000000000000000000000000000000000000000000000000000000000000000000000000000000000000000004B
:020000040003F7
:0200000480007A
:4000000005520040056400400465004001030140420401403A05014013070140170801404D090140250A01404B0B0140630C0140430D01405A0E0140370F0140511401401B
:400040003B150140101701406F180140421901403F1A0140441B0140044001400541014004420140054301400245014001460140024701400748014017490140124C014063
:400080000F4D01400750014002510140082009200C6018201920280F2B0438088D0F8E0F850F89388A728B0DE602000301A5034A040806020702081009040A0B0DCC0E1451
:4000C0000F13100111A91354140F15FF1801194D1B921C031D02200222092304260127B5281F291A2B602E0B2F01361F37FF3F4052F6580459045B045C015D105F018102FF
:400100008407850289028C0493019602980499049C079D02A201A902AA04AE04B107B206B401B902BF01D804D904DC01DF0101A203200584084009090A040E220F041020FD
:400140001101120813401440159019801A021D201E201F0820022601278028102A922E1030C03104320D3320341035B2382839813B403D113F0468206A206B20701472866D
:40018000814282108518861087248A028B208C148D01C0AFC2EFC4DFCA2FCCBFCEEFE203E60C82208B088D0292229344950196089D10A328A980AC01B080B120B380B5040E
:4001C000E204E602E804EC08800182328E13900192049301940196069A139C129E01A21BB008B207B301B410B620BA08BE10D804D904DC11DF01028003020503070808025B
:4002000009010A2A0D020E050F101040168A170419201A221B021D092204240A260227112E092F4633023440360837553C023D203E063F9045084E02540257405C805D0A2E
:400240005E20656067408310874088808D089101928494089601980899409AC89F01A001A113A208A504A810AA08AC08B002B102B220B501B608C059C2FFC4F8CAF0CCF1C9
:40028000CEF0D040D210D6F0D8B0E060E810ECA1000502300415062008020B080C020D030E3C0F04103E1103130C14251610183919031A041B0420082431260C27052804DC
:4002C000290A2B042C0C310F323E360138883B823E40580459045C315F010090010A05010622070809010A040B100C090E05108211101308142016081741181019401C8410
:40030000224227202B182D022E252F023202332034203608374938A03D203E883F1245064C84568057808008811082028380842185088604880189108B018D018F4290A0D6
:400340009101920494049A409D029E0A9F21A001A110A338A60AA701A884C0FFC2FEC4FFCAF6CCF5CEFCD0C0D220E090E460EE0100080301050E06100730080809460A02A2
:400380000BA91180135614081533170C1A091C081D401F13212A2201235425FF26012A042C082E03341835FF36073A804062420549FF4AFF4BFF4F015018580459045A0465
:4003C0005C115D025F016040624064406540668068806A806C806E8085078E0292049A069B059C069D019E01A101B006B104B302B401B501B604BA82BF05C062C204C5EC63
:40040000C620C80BC9FFCAFFCBFFCD83CE03CF01D018D403D604D804D904DA04DB04DC22DD22DF01E040E240E440E540E680E880EA80EC80EE800180040405020608088008
:400440000A880E240F0211011280176519901A881B401C021D401E04210122112310251026102B402D022E083110324035403608374538083D203E064121452049054B104E
:400480004E014F105120584059055A206340874090A098409A409C80A280A338A520A602AC01AE10B440B720C071C2EBC4F0CAC1CCDCCEE2D025D234D60FD8010A010B0160
:4004C0000C010F011101140117011B022102240225012904310232033304370138083F454053410246EC470B481C49FF4AFF4BFF4EF04F44500C5401580459045A045B04BB
:400500005C035D335F0166C06A406B0281108401860E8A1C8B208C018E169170930C941C9514960399099B109E089F03A56CA603A711A95CAB02B20FB360B41AB71FB9087F
:40054000BA28BF04C002C540C9FFCA07CBFFCC40CD20CEF0CF05D008D280D804D904DA04DB04DC33DD03DF01E040E1A8E240E320020203080424052007010B200E100F0226
:40058000102014401502162018201C041E101F38210122442680271028802A102B202F183120320233093520368A38803A203F224220432047104A024F0250405218542044
:4005C0005620571058015A885B207640C0E3C2A4C424CA67CCF7CEACD026D208D60F0001020E04030510060407010B200F1810061110120113021410153F18011A081C07D8
:400600001F08200222052407271429042B082D0F300F3410373F39803A02580459045C115F0180018B0191089E07A703AA04AB0EAE08B002B108B201B302B408B501B604C3
:40064000B704BF10C020C106C5D0C620C751C83AC9FFCAFFCBFFCDA0CF04D018D280D407D804D904DA04DB04DC44DD44DF01E040E2C0E440E540E6C0E8C0EAC0ECC0EEC010
:400680000102032005010A2A0B400F02108013041608174019021A081DA11E201F1022802464270129102B222E082F183080320537013A203B443F2045204F2157195C4469
:4006C0005E205F01774080108D8092229344960899109A209D02A080A322A680B280C01CC28FC4CCCA6ECC8BCE2ED020D220D6F0E001E230EA0192229344960899109A2006
:400700009D02A080A322A910AB02AC80AD01E209E401EA0CEE04000802100402060108010A060C030E10140B161018301A031C281E532040222B2408262329012A802B024E
:400740002C792D012E042F0631043407350336F83A20404545EC4602480749FF4AFF4BFF4F015018580459045A045C115F016040624064406540668068806A806C806E802E
:400780008021821A8442861987048B028C808F019010926494F395019D01A301A4F3A702AF04B070B203B301B480B502B60CB704B908BE40BF50C036C104C205C401C50E22
:4007C000C70CC811C9FFCAFFCBFFCC62CDA0CEF0CF41D00CD418D804D904DA04DB04DC33DD33DF01E640E702E910EA30EB10ED10EE10EF12000201480510068207200A50CA
:400800000E050F101104140A1705180119281A401B051D101E011F40201421802748284029842C022F0431083240351036103858408141084640480449A44F8550045740B0
:4008400058805A82600461809101928493109788980A9AC29B059F48A504A690A803AF40C0FDC2ECC4F4CA3BCC0ACE0ED08BD21CD601D80CE209E40100040240050C0623E9
:4008800009040A040CBC0D0C0E020F7310BF110814A715731618170C1B731C9C1D0F1E211F70201021212408257F281829422D63301F31603240330F34803638371C3A022C
:4008C0003B883E1056025712580459045B045C335D305F01820187028B019201A002B001B301B602B702BE41D401D604D804D904DB04DC10DF01004A032806400840098849
:400900000A800F8010A81501184019801A081B081E801F4021882201250426802A082B853188332238683D285A085E805F05648069446A1070BC8080830288818BC08E4883
:400940009101928093059440954496129A409C409D80A004A110A345A401A50CA680B304B402B510B720C01FC21DC41ECA0FCC0FCE6ED6D2D880E001E220E880EA0130104B
:4009800033083640CC7087089C10A640A708E6403E109C10A640CE20841096109C10A640E6400340C008AB409920A9208008810186209610A640E290E480110217045B027F
:4009C000650170087620810183048A408F029A20A008A501A640AA10C430D640D880DC80DE20E080E220EA8009200D08102013201640630265207B087D20802083088640FD
:400A00009920C206C40ED602D801DE0310407F02811088408B02A510AB20B301B528C408DE04E201E401E801EE0A000F0A020C0A0E0F101B1A121C0B003F03C082800000E2
:400A40004300000001000E04002000412000000800900000010F02001420014215900000140F010000001008158000000100080F1500000F0F10300F0070008008A20200D2
:400A800000000415530000000000025024FFFFFF42A07000081000002000040004040404111100010048404880488048000000000000000000000000000000000000000036
:400AC000000000000100000203E200003A920460030D0000010000FF105D07A20540781D22010500C00407E0083D07C2FF00000801010000800000FF7F00000002000000F4
:400B0000000010044600000003B00D0006FF7FFF42A070000C0000000000000004040400010100010009400930090000000000000000000000000000000000000000000020
:400B40000000000000808000000000008300408083008300000000000001010000000000600080006000600000000000010000000000000000E0E000600000000000000069
:400B80000000000000000000000000000000000000000000000000000000000000000000000000000000000000000000000000000000000000000000000000000000000035
:400BC00000000000000000000000000000000000000000000000000000000000000000000000000000000000000000000000000000000000000000000000000000000000F5
:400C000000000000000000000000000000000000000000000000000000000000000000000000000000000000000000000000000000000000000000000000000000000000B4
:400C40000000000000000000000000000000000000000000000000000000000000000000000000000000000000000000000000000000000000000000000000000000000074
:0200000490006A
:0400000000004005B7
:0200000490105A
:04000000BC90ACAF55
:0200000490303A
:020000003A2F95
:0200000490402A
:4000000000000000000000000000000000000000000000000000000000000000000000000000000000000000000000000000000000000000000000000000000000000000C0
:400040000000000000000000000000000000000000000000000000000000000000000000000000000000000000000000000000000000000000000000000000000000000080
:400080000000000000000000000000000000000000000000000000000000000000000000000000000000000000000000000000000000000000000000000000000000000040
:4000C0000000000000000000000000000000000000000000000000000000000000000000000000000000000000000000000000000000000000000000000000000000000000
:0200000490501A
:0C00000000012E16106900012E2D4A98F8
:00000001FF