:400000000080002011000000A9010000A901000008B5044B1A6803F53F5302331A6000F0DDF800BFFA46004010B5054C237833B9044B13B10448AFF300800123237010BD4E
:40004000B081FF1F0000000064480000084B10B51BB108480849AFF300800848036803B910BD074B002BFBD0BDE81040184700BF0000000064480000B481FF1F0881FF1F99
:400080000000000008B562B600F08AFA044802F035FD00F031F80146024802F0B9FCF8E7684800007048000070B51646002405E04D1C087800F082FA01342946B442F7DBA4
:4000C000304670BD08B500F0A3FA0128FBD008BD10B5002400E0013400F09AFA0028FAD0204610BD10B5002400E0013400F090FA0128FAD0204610BD2DE9F0418AB0002470
:40010000019402940394049405940694079408948DF82440FFF7D6FF224802F0EFFC12E0FFF7D6FF0546FFF7DDFFA84205DD01220AAB234403F8242C04E000220AAB2344AE
:4001400003F8242C0134202CEAD90020054623E0441C0AAB234413F8248C01F07FFC02460B4600204FF0804100F058FA06460F46404601F083FC32463B4601F0E5FC064636
:400180000F46284601F06AFC32463B4601F02AFB01F074FF054620461F28D9D928460AB0BDE8F08178480000FEE700BF08B5094B1A681044084BC31AB3F5805F02DC054B9A
:4001C000186005E001F07AFF0C2303604FF0FF32104608BD0C81FF1FE081FF1F08B5104E104D16E029686B68AC68002204E051F8040B43F8040B0432A242F8D1E86800220E
:4002000003E0002143F8041B04328242F9D11035013E002EE6D101F057FFFFF733FFFEE701000000044B000008B5124A124B1A60124A136843F40073136000230AE0032B70
:4002400003D80F4A52F8231000E00E490E4A42F8231001332F2BF2D90C4B1A780C4B1A70094A0C4B1A6000F0C1F800220A4B1A6008BD00BF0004FA050CED00E014ED00E0AF
:4002800000000000A90100000080FF1FBC7600400481FF1F08ED00E00081FF1FFEE700BFF0B40022174611E050F82760F3B226F0FF0608E001EB420511F812406D78A555D1
:4002C0000132013BDBB2002BF4D10137262FEBD9F0BC7047064B1B78DBB203F00701054A11701B09013213704422034B1A707047CF0100496E5800407658004008B50A4619
:40030000002101F012FF08BD38B50E222B4B1A8018232B4A1370242102321180023213704D210232118002321370EF2102321180023213700222234B1A7008224FF0402356
:400340001A70032103F5007319701F4B1B78DBB21E490B701E4B1A8041F25122023B1A80002419250CE01B4B1B7803F0010343EA440404F003044FF4F07000F039F9013D3E
:400380000DB1032CEFD115B90320FFF787FF124B4FF480721A8007221A7000220F490A704820023108701A700222033B1A700C4A137843F00F03137038BD00BF804000406A
:4003C000824000400043004008010049A146004022420040254200400440004006400040A243004008B501F095FE08BD38B572B63D4A137843F00403137000240CE03B4907
:4004000063001A1952000A4423445B00C8589188FFF774FF0134E4B2082CF0D9002410E03249A3001A1952000A4452F8380F23445B000B445168B3F84020FFF7D3FF0134F2
:40044000E4B2012CECD94FF090402949FFF728FF284A137843F0020313701032137843F002031370244C237843F040032370A2F58632513A137843F0100313701F48204904
:400480000822FFF7AFFF1F481F490A22FFF7AAFF1E481F490822FFF7A5FF1E481E490A22FFF7A0FF1D481E490822FFF79BFF1D481D490822FFF796FF1C4A137843F008037F
:4004C00013701B4D61232B70FFF71EFF81232B700122184B1A70FFF7FDFE174821460E22FFF780FF38BD00BFE8460040804800009C00004803500140A0430040025100401C
:40050000740C0048C05100407C0C0048F2510040880C004810510040900C0048225100409C0C004832510040A40C0048224300400048004004000840B04300407222084BFD
:400540001A70202203F580731A700622653B1A70472210331A700022AD3B1A70704700BF8964004010B500F04BF804460B4A137843F02003137002F58072137843F01003C6
:400580001370A2F58172137843F01003137000F021F8204600F038F810BD00BF9964004008B5054B1B7823B9FFF7C8FF0122024B1A70FFF7D7FF08BDCC81FF1F034B1B7872
:4005C00013F0040FFAD1024B187070476764004047640040054A137843F0040313701032137843F004031370704700BFA24300400230800803D000BF01380046FCD170478D
:40060000EFF3108072B6704780F31088704700BF014B1878C0097047115100402DE9F04F8BB01F4680468946164600F071F9DFF8D8A204469AF900300D46013304D030467B
:40064000394600F085FF20B9204629460BB0BDE8F08F4046494600F07BFF834660BB304639460022002301F0D7FC0028ECD09AF900309E4C01229E4900208DE814005A1CDF
:40068000CDF820B0CDE90289CDE90467CDE906010DD0022B0BD0684600F086FF002800F09380089B1BB101F009FD089B0360DDE906010BB0BDE8F08F4046494600220023E1
:4006C00001F0AAFCF8B1304639460022002301F0A3FC834600284ED084489AF900300121002200240025CDE90289CDE90467CDE90645019000910892002BCCD07C4B0022F6
:40070000CDE90623D3E72046294600F01BFF834600285ED0204629460022002301F07CFC002891D04046494600F00CFF00288BD03046394600F006FF002885D09AF9003059
:400740006A480421002200240025022BCDE90289CDE90467CDE9064501900091089200F08880684600F020FF002800F08280089B002B9CD097E73046394600F0E3FE002876
:400780003FF462AF304639460022002301F04EFC00283FF459AF55499AF800300122CDF820B0CDE90289CDE9046701910092002B3CD050490020022BCDE9060130D101F0B3
:4007C0007DFC21230360D2E701F078FC2123036067E74046494600F0B5FE00289AD03046394600F0AFFE002894D02046294600F0AFFE00BB3D4A9AF8004001230890CDE966
:400800000289CDE90467019200937CB10020002102460B4601F0C2FA022CCDE90601CED0684600F0C1FE0028A1D1C8E700220023CDE90623F4E72D499AF900300322CDF8E1
:4008400020B0CDE90289CDE9046701910092ABB9294D4FF060444046494600220023CDE9064501F0E3FB50BB9AF90030022B7FF478AF01F023FC2223036078E71F4D0024FF
:400880004046494600220023CDE9064501F0CEFB0028E9D000221A4B3046394601F054F904460D4600F088FE22462B4601F0B4FB0028D9D10F4B0022CDE90623D4E70022F2
:4008C0000F4B3046394601F03FF904460D4600F073FE22462B4601F09FFB0028C4D1094B4FF06042CDE90623BEE700BFCC4800000000F03F0000F0FFFFFFEF470000F07F14
:400900000000E03FFFFFEFC71081FF1F000000002DE9F04F144623F00047024657EA04000E468FB01D469C46214634D06E4B26F0004A9A459346B14626DC24D09F4223DCBE
:40094000694B9F4200F08F80B9F1000FC0F28F804FF0000879BB644B9F4200F0A580634B9F4267D0BCF1804F00F0E283604B9C4521D1B9F1000F1EDB104631460FB0BDE851
:40098000F04F00F015BD62B10AF1404000F5801050EA0B0007D10346544918460FB0BDE8F08F5745CCDD53480FB0BDE8F04F00F0FDBD4FF0000810463146CDF808C000927F
:4009C00000F0BCFD009ADDF808C0BBF1000F20D04FEAD97909F1FF3958EA09037AD0464B9F4240F38F8003F104739F4240F31084424B9A4540F39283BCF1000F40F3928398
:400A000037A1D1E900010B46024601F09DF80346C3E7BAF1000F04D0344B29F0404E9E45D6D1BCF1000FC0F2B683B9F1000F08DB0346B2E7BCF1000FC0F25284134631469A
:400A4000ABE70AF1404A0AF5801A58EA0A0340F05E8402460B4600F0C3FE0B46024601F09DF9034699E700293FF46EAF8CE7244B9F422CDCA3F154739F427FF769AF40F2F2
:400A800013403B15834240F34B84C3F58663033321FA03F000FA03F38B427FF459AF00F00100C0F1020855E70AF1404303F5801353EA0B0300F03983104B9A4540F3648373
:400AC000BCF1000FC0F22E832346294665E74FF002083FE7104631463346BCE7AFF300809C7500883CE4377E0000F07F0000F03F0000E03F004900000000E041FFFFEF3F78
:400B0000FFFF3F43BAF5801F4FF0000205DACA4B01F01AF88A466FF034024FEA2A53C74ECAF3130AA3F2FF334AF07F571344B2450C9347F4401740F3D083C14B9A4540F3AB
:400B400007840026B4460C9BA7F5801701330C933946BC4B4FEACC0C6344D3E900AB52465B46CDF834C0CDE9060100F039FE52465B46CDE90801DDE9060100F033FE024674
:400B80000B460020B04901F009F902460B46DDE90801CDE90A2300F0D7FF02460B46CDE90223CDE904237B1043F0005303F5002399190020002306460F460293DDE9022334
:400BC0001046194632463B46CDE9000100F0BCFF02460B46DDE9080100F002FE5246CDE908015B463046394600F0FAFD02460B46DDE9060100F0F4FD02460B46DDE9000112
:400C000000F0A2FF02460B46DDE9080100F0E8FDDDE90A2300F098FFDDE90423CDE906011046194600F090FF02460B4606460F4600F08AFF6EA3D3E9002382468B463046DC
:400C4000394600F081FF6CA3D3E9002300F0CAFD32463B4600F078FF69A3D3E9002300F0C1FD32463B4600F06FFF67A3D3E9002300F0B8FD32463B4600F066FF64A3D3E9F1
:400C8000002300F0AFFD32463B4600F05DFF62A3D3E9002300F0A6FD02460B465046594600F052FFDDE9042306460F46DDE9000100F098FDDDE9062300F046FF32463B46B3
:400CC00000F090FDDDE9006782468B4632463B463046394600F038FF00225C4BCDE9080100F080FD52465B4600F07CFD02980F460646DDE9000132463B4600F025FF32467E
:400D00003B46CDE90001DDE9060100F01DFF0022CDE906014D4B3046394600F061FDDDE9082300F05DFD02460B465046594600F057FDDDE9042300F007FF02460B46DDE959
:400D4000060100F04FFD82468B46DDE9000152465B4600F047FD32A3D3E9002302980F46064600F0F1FE30A3D3E90023CDE904013046394600F0E8FEDDE90023CDE90601B7
:400D80003046394600F02CFD02460B465046594600F026FD26A3D3E9002300F0D5FE02460B46DDE9060100F01DFDDDF834C0284BCDF818C06344D3E9002300F013FDCDE954
:400DC00000010C9800F05AFE06460F46DDE90401204BDDF818C09C44DDE90023DCE900AB00F000FD52465B4636E000BFAFF30080EF4E454A287ECA3F65DBC9934A86CD3F39
:400E000001411DA96074D13F4D268F515555D53FFFAB6FDBB66DDB3F033333333333E33F000000E009C7EE3FF5015B14E02F3EBEFD033ADC09C7EE3F000040438E98030054
:400E400079B60B00F04800000000F03F00000840E0480000D0480000CDE906AB00F0C2FC32463B4600F0BEFC029832463B4682468B4600F0B5FCDDE9062300F0B1FCDDE972
:400E8000042300F0ADFC02460B46DDE9000100F0A7FCCDE9020108F1FF3858EA09030CBFD54BD64B0022CDE904230023CDE900450093DDE90067204632463B46294600F0A1
:400EC0008FFC52465B4600F03FFEDDE90223804689462046294600F037FE02460B464046494600F07FFC04460D465246304639465B46CDE9024500F027FE06460F4620468A
:400F00003B462946324600F06DFCBD4B824699428946884640F3138101F13F4303F5E003034340F0E581A0A3D3E90023DDE9020100F058FC324604460D463B4650464946CC
:400F400000F04EFC02460B462046294601F08CF8002840F0CD814C462015A0F2FE304FF4801101414144C1F30A50A64CA0F2FF35C1F3130BC0F5826003302C414BF4801BE3
:400F800021EA040300224BFA00FB3946304600F027FC06460F46DDE902018BEAE87B0BEBD87B32463B464FEA0B5A00F01BFC80A3D3E90023002420460D4600F0C5FD324683
:400FC000804689463B462046294600F009FC02460B46DDE9020100F003FC77A3D3E9002300F0B2FD76A3D3E9002306460F462046294600F0A9FD02460B463046394600F0A6
:40100000F1FB06460F4632463B464046494600F0E9FB42464B4604460D4600F0E1FB02460B463046394600F0DBFB2246804689462B462046294600F087FD63A3D3E90023CF
:4010400006460F4600F080FD61A3D3E9002300F0C7FB32463B4600F077FD5FA3D3E9002300F0C0FB32463B4600F06EFD5CA3D3E9002300F0B5FB32463B4600F065FD5AA3CA
:40108000D3E9002300F0AEFB32463B4600F05CFD02460B462046294600F0A2FB06460F4632463B462046294600F04EFD0022CDE900014FF080433046394600F091FB02463D
:4010C0000B46DDE9000100F069FE424606460F464B462046294600F037FD42464B4600F081FB02460B463046394600F079FB22462B4600F075FB02460B4600203F4900F0ED
:401100006FFB8A44BAF5801F0246C0F227815346DDE9040100F018FD03463EE4BCF1000FFFF66EAC0023194637E40B46334934E433461046314600F007FD03462DE4324B55
:4011400021F000449C4240F3FA80304B0B4403430CD132463B4600F043FB02460B46DDE9020100F06DFF00283FF4F6AE20A3D3E90023DDE9040100F0E7FC1DA3D3E90023DF
:4011800000F0E2FC034608E4BCF1000FCADA234605F1004101E402460B460020174900F0FDFD42E4AFF30080FE822B654715973C00000000432EE63FEF39FAFE422EE63F72
:4011C000396CA80C615C20BED0A4BE726937663EF16BD2C541BDBB3E2CDE25AF6A56113F93BDBE166CC1663F3E5555555555C53F59F3F8C21F6EA5010000F0BF0000F03F43
:40120000FFFF8F40FFFF0F00FFCB904000346F3F634B9A4582DD634B9A453FF7EDAB0022604B00F0DDFA54A3D3E9002306460F4600F08AFC52A3D3E90023CDE9000130468F
:40124000394600F081FC3246CDE902013B463046394600F079FC002282468B4630463946514B00F071FC02460B4647A1D1E9000100F0B6FA32463B4600F066FC02460B460D
:4012800000204A4900F0ACFA02460B465046594600F05AFC3EA3D3E9002300F055FC02460B46DDE9020100F09BFA06460F46DDE9000132463B4600F095FADDE90023002000
:4012C00082468B4600F08CFA02460B463046394600F086FACDE90201DDE50026B44637E4334600202F4900F059FD0346FFF755BB29A3D3E90023DDE9040100F025FC26A335
:40130000D3E9002300F020FC0346FFF746BBB8F1010F03467FF441AB01F10041FFF73DBB00297FF446ABC3F58263033347FA03F000FA03F3BB4217D08846FFF710BB1B4BA3
:401340009C423FF709AEDDE90023924693462EE64FF480264FF0010CFFF7FABB5A4600F0BBF902460B46D3E600F00100C0F10208FFF7F5BAAFF30080000000604715F73F19
:4013800044DF5DF80BAE543E555555555555D53FFE822B654715F73F9C7500883CE4377EFEFFEF3F0000F03F0000D03F0000E03F2DE9F041604E0C46B6460E407645054629
:4013C0000B4600F098800029024676DD5FEA215E00F08180AEF2FF3EC3F313031EF0010F43F480135ED100273C46D10F01EB43034FEA6E0E520016204FF4001165189D42AF
:401400004FEAD2764FEA420202DC5B1B6C180F44013806EB43034FEA5101EFD1844620264FF000410AE0A34220D0D50F013E4FEA510105EB43034FEA420220D09C420CEB53
:401440000105F0DA002D05EB010C09DBA0461B1B954288BF03F1FF334446521B0844E4E7BCF1000FF2DB04F10108F0E7954217D8002D05EB010C48DB98460023ECE7134385
:4014800015D140087B1003F17F5303F50013FA0703EB0E57394648BF40F00040BDE8F0811C46C2E7D10F01EB430352009BE7411C31D000F001031844E3E721F00046064339
:4014C000ECD079BB8E46D30AAEF1150E5205002BF9D0DC0222D400215B00D80201F10101FAD5C1F10100C1F1200422FA04F4234386448A406EE702460B4600F025FB2A464C
:40150000234600F06FF9BDE8F081BCF1000FAADAA0460023A0E701373046B3E7202401200021E2E702460B4600F05AF902460B4600F034FCB2E700BF0000F07F21F00041BF
:40154000704700BF41F0004101F58010C00F704710B431F0004408D0114BA1F580129A4208D804205DF8044B704718B902205DF8044B704701F1FF41094B01F5E001994231
:40158000EFD9B4F5801F01D20320EBE7054B9C4201D00020E6E7B0FA80F04009E2E700BFFFFFDF7F0000F07F0020704700200149704700BF0000F87FF0B5C1F30A5EAEF222
:4015C000FF35132D83B002460B460C464FEAD17607462EDC002D48DB3C49294101EA030010432BD049080B4053EA02070CD04FF48023132D24EA010143FA05F444EA0104AA
:401600000CBF4FF0004700273149234601EBC606D6E900453A462046294600F0E3F8CDE90001DDE9000122462B4600F0D9F803B0F0BD332D06DDB5F5806F43D01046194657
:4016400003B0F0BDAEF2134E4FF0FF3121FA0EF10142F3D049080142D6D04FF0804320EA010143FA0EF70F43CEE721F000410143E4D0C3F3130141EA000CCCF1000141EAB5
:401680000C0C13495C0C4FEA1C3C0CF4002C640401EBC6014CEA0403D1E900452046294600F0A0F8CDE90001DDE9000122462B4600F096F8024621F0004141EAC6731046B4
:4016C0001946BDE700F08EF8BAE700BFFFFF0F000849000000000000F8B5C1F30A5604460D460B46174616BB21F00043034332D00022314B00F028FA304A044697420D469A
:401700000B4637DB40F2FE72C1F30A56363E3E44964215DD24A1D1E9000122462B4600F053F821A3D3E9002300F00EFAF8BD40F2FF72964224D040F2FE723E449642E9DCBC
:40174000002E09DD23F0FF4323F4E00343EA065520462946F8BDF8BD16F1350F15DA4CF250339F42D6DC12A1D1E9000122462B4600F02AF80EA3D3E9002300F0E5F9F8BD45
:4017800002460B4600F02EF8F8BD23F0FF4323F4E003363643EA0655204629460022084B00F0D2F9F8BD00BF9C7500883CE4377E59F3F8C21F6EA50100005043B03CFFFFE5
:4017C0000000903CAFF3008003F0004321F0004243EA0201704700BF81F0004102E000BF83F0004330B54FEA41044FEA430594EA050F08BF90EA020F1FBF54EA000C55EA94
:40180000020C7FEA645C7FEA655C00F0E2804FEA5454D4EB5555B8BF6D420CDD2C4480EA020281EA030382EA000083EA010180EA020281EA0303362D88BF30BD11F0004FAC
:401840004FEA01314FF4801C4CEA113102D0404261EB410113F0004F4FEA03334CEA133302D0524263EB430394EA050F00F0A780A4F10104D5F1200E0DDB02FA0EFC22FA4C
:4018800005F2801841F1000103FA0EF2801843FA05F359410EE0A5F120050EF1200E012A03FA0EFC28BF4CF0020C43FA05F3C01851EBE37101F0004507D54FF0000EDCF100
:4018C000000C7EEB00006EEB0101B1F5801F1BD3B1F5001F0CD349085FEA30004FEA3C0C04F101044FEA445212F5800F80F09A80BCF1004F08BF5FEA500C50F1000041EB38
:40190000045141EA050130BD5FEA4C0C404141EB010111F4801FA4F10104E9D191F0000F04BF01460020B1FA81F308BF2033A3F10B03B3F120020CDA0C3208DD02F1140C75
:40194000C2F10C0201FA0CF021FA02F10CE002F11402D8BFC2F1200C01FA02F120FA0CFCDCBF41EA0C019040E41AA2BF01EB0451294330BD6FEA04041F3C1CDA0C340EDCAE
:4019800004F11404C4F1200220FA04F001FA02F340EA030021FA04F345EA030130BDC4F10C04C4F1200220FA02F001FA04F340EA0300294630BD21FA04F0294630BD94F0D4
:4019C000000F83F4801306BF81F480110134013D4EE77FEA645C18BF7FEA655C29D094EA050F08BF90EA020F05D054EA000C04BF1946104630BD91EA030F1EBF0021002025
:401A000030BD5FEA545C05D14000494128BF41F0004130BD14F580043CBF01F5801130BD01F0004545F0FE4141F470014FF0000030BD7FEA645C1ABF194610467FEA655C81
:401A40001CBF0B46024650EA013406BF52EA033591EA030F41F4002130BD00BF90F0000F04BF0021704730B54FF4806404F132044FF000054FF0000150E700BF90F0000F51
:401A800004BF0021704730B54FF4806404F1320410F0004548BF40424FF000013EE700BF42004FEAE2014FEA31014FEA02701FBF12F07F4393F07F4F81F06051704792F0A0
:401AC000000F14BF93F07F4F704730B54FF4607401F0004521F0004120E700BF50EA010208BF704730B54FF000050AE050EA010208BF704730B511F0004502D5404261EB59
:401B000041014FF4806404F132045FEA915C3FF4DCAE4FF003025FEADC0C18BF03325FEADC0C18BF033202EBDC02C2F1200300FA03FC20FA02F001FA03FE40EA0E0021FA6B
:401B400002F11444C1E600BF70B54FF0FF0C4CF4E06C1CEA11541DBF1CEA135594EA0C0F95EA0C0F00F0DEF82C4481EA030621EA4C5123EA4C5350EA013518BF52EA033518
:401B800041F4801143F4801338D0A0FB02CE4FF00005E1FB02E506F00042E0FB03E54FF00006E1FB03569CF0000F18BF4EF0010EA4F1FF04B6F5007F64F5407404D25FEAF9
:401BC0004E0E6D4146EB060642EAC62141EA55514FEAC52040EA5E504FEACE2EB4F1FD0C88BFBCF5E06F1ED8BEF1004F08BF5FEA500E50F1000041EB045170BD06F000460D
:401C000046EA010140EA020081EA0301B4EB5C04C2BFD4EB0C0541EA045170BD41F480114FF0000E013C00F3AB8014F1360FDEBF002001F0004170BDC4F10004203C35DAE2
:401C40000C341BDC04F11404C4F1200500FA05F320FA04F001FA05F240EA020001F0004221F0004110EBD37021FA04F642EB06015EEA430E08BF20EAD37070BDC4F10C047D
:401C8000C4F1200500FA04F320FA05F001FA04F240EA020001F0004110EBD37041F100015EEA430E08BF20EAD37070BDC4F1200500FA05F24EEA020E20FA04F301FA05F29A
:401CC00043EA020321FA04F001F0004121FA04F220EA020000EBD3705EEA430E08BF20EAD37070BD94F0000F0FD101F00046400041EB010111F4801F08BF013CF7D041EA9A
:401D0000060195F0000F18BF704703F00046520043EB030313F4801F08BF013DF7D043EA0603704794EA0C0F0CEA135518BF95EA0C0F0CD050EA410618BF52EA4306D1D199
:401D400081EA030101F000414FF0000070BD50EA410606BF1046194652EA430619D094EA0C0F02D150EA013613D195EA0C0F05D152EA03361CBF104619460AD181EA03016D
:401D800001F0004141F0FE4141F470014FF0000070BD41F0FE4141F4780170BD70B54FF0FF0C4CF4E06C1CEA11541DBF1CEA135594EA0C0F95EA0C0F00F0A7F8A4EB05041A
:401DC00081EA030E52EA03354FEA013100F088804FEA03334FF0805545EA131343EA12634FEA022245EA111545EA10654FEA00260EF000419D4208BF964244F1FD0404F575
:401E0000407402D25B084FEA3202B61A65EB03055B084FEA32024FF480104FF4002CB6EB020E75EB030E22BFB61A754640EA0C005B084FEA3202B6EB020E75EB030E22BF79
:401E4000B61A754640EA5C005B084FEA3202B6EB020E75EB030E22BFB61A754640EA9C005B084FEA3202B6EB020E75EB030E22BFB61A754640EADC0055EA060E18D04FEA55
:401E8000051545EA16754FEA06164FEAC30343EA52734FEAC2025FEA1C1CC0D111F4801F0BD141EA00014FF000004FF0004CB6E711F4801F04BF01430020B4F1FD0C88BF26
:401EC000BCF5E06F3FF6AFAEB5EB030C04BFB6EB020C5FEA500C50F1000041EB045170BD0EF0004E4EEA113114EB5C04C2BFD4EB0C0541EA045170BD41F480114FF0000E65
:401F0000013C90E645EA060E8DE60CEA135594EA0C0F08BF95EA0C0F3FF43BAF94EA0C0F0AD150EA01347FF434AF95EA0C0F7FF425AF104619462CE795EA0C0F06D152EA34
:401F400003353FF4FDAE1046194622E750EA410618BF52EA43067FF4C5AE50EA41047FF40DAF52EA43057FF4EBAE12E74FF0FF3C06E000BF4FF0010C02E000BF4FF0010C3B
:401F80004DF804CD4FEA410C7FEA6C5C4FEA430C18BF7FEA6C5C1BD001B050EA410C0CBF52EA430C91EA030F02BF90EA020F0020704710F1000F91EA030F58BF994208BF45
:401FC00090422CBFD8176FEAE37040F0010070474FEA410C7FEA6C5C02D150EA013C07D14FEA430C7FEA6C5CD6D152EA033CD3D05DF8040B704700BF8446104662468C46D6
:402000001946634600E000BF01B5FFF7B7FF002848BF10F1000F01BD4DF808EDFFF7F4FF0CBF012000205DF808FB00BF4DF808EDFFF7EAFF34BF012000205DF808FB00BFF0
:402040004DF808EDFFF7E0FF94BF012000205DF808FB00BF4DF808EDFFF7CEFF94BF012000205DF808FB00BF4DF808EDFFF7C4FF34BF012000205DF808FB00BF4A0011D293
:4020800012F5001211D20DD56FF47873B3EB62520ED44FEAC12343F0004343EA505323FA02F070474FF00000704750EA013002D14FF0FF3070474FF000007047014B18687C
:4020C000704700BF7481FF1F0E4B70B51E460E4C0025E41AA410A54204D056F8253098470135F8E702F0FCFC084B094C1E46E41AA4100025A54204D056F8253098470135B2
:40210000F8E770BDEC4A0000EC4A0000EC4A0000F44A000010B5431E0A44914204D011F8014B03F8014FF8E710BD03460244934202D003F8011BFAE770472DE9F0471E46B6
:4021400088B0149F002BB8BF06F10043129927F02007B6BF1E4600232D23462F1446109DDDF84CA00B7003D0452F03D1013501E0032300E002238DE8280406AB039307ABB4
:4021800004932246334600F013FE472F804602D1119BDB0726D5462F08EB050911D198F80030302B0AD12046314600220023FFF733FF18B9C5F10105CAF80050DAF80030D5
:4021C00099442046314600220023FFF725FF08B1CDF81C90079B4B4504D25A1C079230221A70F7E74046079B159AC8EB0303136008B0BDE8F087034673B50029B8BF494258
:4022000003F8022BB4BF2D222B22092942701ADD0DF1070426460A2291FBF2F502FB1511092D01F1300104F8011D2946F3DC3031651E04F8011CB5421A460AD215F8012B3B
:4022400003F8012BF7E71A463024214402F8024B5970101A02B070BD2DE9F04F91B08B4615461E461A9F044601F0D4FCD0F800A0504600F04BFC00230E933B6809900733CE
:4022800023F0070303F108029BF818803A60D3E90023CBE91223DBE91201FFF759F90128DBE9120119D100220023FFF7BFFE10B12D238BF84330A04BA04FB8F1470F88BF4E
:4022C0001F460323CBF81030DBF8003023F00403CBF800304FF00009A1E0FFF739F9DBF8003048B9964A974FB8F1470F88BF17460322CBF81020E9E7DBF80420DBE912012C
:40230000571CCDE90A0101D1062209E0B8F1670F02D0B8F1470F05D1002A40F0C7810122CBF80420DBF8042043F480638DE80C00CBF800300DF1330302930DAB03930EABBF
:40234000059300230693CDF81080DDE90A232046FFF7F3FE08F0DF03472B07460AD10D9BD81C03DBDBF80420934237DDA8F102085FFA88F8B8F1650F0D9915D801394246B8
:402380000BF150000D91FFF736FF0E9A81468318012ACBF8103003DCDBF80020D10738D50133CBF8103034E0B8F1660F18D10029DBF8043009DDCBF810101BB9DBF8002007
:4023C000D20721D501330B441CE01BB9DBF80020D00701D5023315E0012313E04FF067080D9B0E9A934207DBDBF80020CBF81030D10709D5013305E0002BD4BFC3F10203E9
:4024000001231344CBF810300D9B4FF00009CBF858309DF8333013B12D238BF843300096204659460FAA2B4600F05CF9013002D14FF0FF3052E1DBF800305A0505D4204691
:4024400029463A46DBF8103008E1B8F1650F40F2D080DBE9120100220023FFF7DDFD50B320462946384A0123B0470130E0D00E9B0D9A9A4209DBDBF80030D80705D4DBF8F2
:4024800000309F0700F1108107E1204629465246099BB0470130CBD000270E9B013B9F42EDDA204629460BF11A020123B0470130BED00137F1E70D9B002B29DC20462946D0
:4024C000214A0123B0470130B2D00D9B2BB90E9B1BB9DBF80030D907D1D5204629465246099BB0470130A3D04FF000080D9B20465B429845294608DA0BF11A020123B04712
:40250000013095D008F10108F0E73A460E9BA5E0DBF858200E9B9A42A8BF1A46002A914602DC4FF000081CE0204629463A464B46B0470130F5D17BE72449000020490000B9
:402540002C4900002849000030490000204629460BF11A020123B04701303FF469AF08F10108DBF85830B9F1000FB4BF1A46C9EB03029045EADB07EB03080D9A0E9B9A4213
:4025800010DBDBF80030DA070CD40E9A1744C8EB07030D9FD21B9342A8BF1346002B1F4608DC0EE0204629465246099BB0470130EBD13DE7204629464246B04701303FF44B
:4025C00037AF4FF000080AE0204629460BF11A020123B04701303FF42BAF08F101080D9A0E9B002FA3EB0203A8BFDB1B9845EBDB45E70E9A012A01DCDB0736D520462946CC
:402600003A460123B04701303FF412AF204629465246099BB04701303FF40AAFDBE9120100220023FFF7F8FCE8B90E9B204629467A1C013B1DE0204629460BF11A020123B0
:40264000B04701303FF4F4AE01370E9B013B9F42F1DB204629464B460BF15002B04701307FF40DAFE4E60027EFE7204629463A460123B0470130ECD1DAE6204629460BF1D2
:4026800019020123B04701303FF4D2AE0137DBF80C300F9A9B1A9F42EFDBDBF80C000F9B9842B8BF184619E00027F0E743F480638DE80C00CBF800300DF1330302930DAB72
:4026C00003930EAB059300230693CDF810802046DDE90A23FFF731FD074640E611B0BDE8F08F00BF2DE9F84391461F468A680B6906469342B8BF1346C9F8003091F843208D
:402700000C46DDF8208012B10133C9F800302368990642BFD9F800300233C9F80030256815F006051CD094F843302268003318BF012392061FD5E118302081F843005A1C51
:4027400094F845102244023382F8431013E03046394604F119020123C047013007D00135E368D9F800209B1A9D42F0DBDBE74FF0FF30BDE8F8833046394604F14302C0478E
:402780000130F4D02268D9F80050E36802F00602042A08BF5D1B2269A3680CBF25EAE57500259342C4BF9B1AED184FF00009A9450ADA3046394604F11A020123C04701304A
:4027C000D5D009F10109F2E70020BDE8F88300002DE9FF410C461746227E98466E2A06460A9B01F1430100F0B08012D8632A23D00AD8002A00F0BD80582A40F0CC8084F898
:402800004520DFF804E257E0642A1ED0692A1CD0C1E0732A00F0B18009D86F2A2ED0702A40F0B980226842F0200222603FE0752A24D0782A3BD0AEE01A6804F14205111D31
:402840001960136884F84230A9E020681A6810F0800F02D0101D186008E010F0400F02F10400186002D0B2F9003000E01368002B3EDA2D225B4284F8432039E020681A68FE
:4028800010F0800F02D0101D186007E010F0400F02F10400186001D0138800E01368227EDFF864E16F2A0CBF08220A221CE07822DFF858E184F845202268186812F0800F0E
:4028C00000F104051D6003D1550601D5038800E00368D00744BF42F0200222601BB9226822F0200222601022002084F8430002E0DFF814E10A226568002DA8BF2068A560E9
:40290000A4BF20F00400206003B965B10D46B3FBF2F002FB10331EF8033005F8013D03460028F4D100E00D46082A0BD12368DA0708D5236962689A42DEBF302305F8013C0B
:4029400005F1FF35491B21612EE025681A6815F0800F606903D0151D1D60136808E015F0400F02F104051D60136801D0188000E01860002323610D4616E01A68111D1960C6
:40298000156800212846626801F09CF908B1401B6060636804E004F1420584F8422001232361002384F84330CDF800803046214603AA3B46FFF796FE013002D14FF0FF3018
:4029C0001FE0304639462A462369C0470130F5D023689B0705D4E068039B9842B8BF18460FE00025E368039A9B1A9D42F3DA3046394604F119020123C0470130DED00135AD
:402A0000F0E704B0BDE8F08132490000434900000FB40A4B13B51C6824B1A36913B9204601F070F805AB2046A168049A019301F005FD02B0BDE8104004B070477481FF1FB5
:402A400070B50E46054618B183690BB901F05AF8AC68A389190701D5236983B92846214600F0B0F858B14FF0FF3070BD002B0EDB236816F8012C1A70236801332360A36816
:402A800016F8012B013BA360002AEFD116E0A269934209DB236816F8012C1A70236819780A29EAD1284602E0284616F8011C224600F034F8421C50425041D3E7002B15DADD
:402AC000A269934208DB23680A221A702368197891420FD1284601E028460A21224600F01DF8431C5842584130B1BCE723680A221A702368013323600A2070BD024B01462A
:402B00001868FFF79DBF00BF7481FF1F034613F8012B002AFBD1181A0138704770B50D461446064618B183690BB900F0EBFF224B9C4201D1746808E0204B9C4201D1B468D0
:402B400003E01F4B9C4208BFF468A369A360A3891A0709D523693BB123682069EDB2181A636998420FDB08E03046214600F02AF80028F1D04FF0FF3070BD3046214600F0B8
:402B800057FF0028F6D1A3680130013BA36023685A1C22601D706369984204D0A389DB0707D50A2D05D13046214600F041FF0028E0D1284670BD00BF64490000844900001A
:402BC000A4490000314B70B51D6806460C4625B1AB6913B9284600F095FF2D4B9C4201D16C6808E02B4B9C4201D1AC6803E02A4B9C4208BFEC68A3899AB211071DD4D506B1
:402C000002D40922326038E0500712D5616B41B104F14403994202D0304601F04DFB00236363A38923F02403A3810023636023692360A38943F00803A38123694BB9A389A3
:402C400003F42073B3F5007F03D03046214600F0E5FFA38913F0010205D00022A26062695242A26103E0990758BF6269A26022694AB903F0800080B230B143F04003A3817D
:402C80004FF0FF3070BD002070BD00BF7481FF1F6449000084490000A44900002DE9F74F03690C698046A3427EDB013C01F114074FEA840E00F1140606EB0E0357F82450CD
:402CC000019356F824300135B3FBF5F507EB0E09BDB34FF0000A3846B446D34650F8043B9AB21B0C02FB05A26B4303EB124392B2C2EB0B0BBCF800204FEA134A5A441FFAC6
:402D000083FBDCF800304845CBEB134303EB224392B242EA03424FEA234B4CF8042BDDD956F80E306BB9019B043BB3421A4602D8C8F8104005E01268043B002AF8D1013C08
:402D4000F3E7404601F0DDF900282BDB304601354FF0000E57F8042B036891B2C1EB0E0E120C99B27144C2EB134303EB214389B24FEA234E4F4541EA034340F8043BE9D97B
:402D800056F8242006EB840362B9043BB3421A4602D8C8F8104005E01268043B002AF8D1013CF3E7284600E0002003B0BDE8F08F2DE9F04F456A95B08246219CCDE90223DA
:402DC00045B9102000F076FFCAF82400456085600560C560DAF82430196859B15A68012393404A608B60504600F0AFFFDAF8243000221A60039BA24A002BBDBF0123236079
:402E0000039B0023BCBF23F000430393039FA8BF236027F000431B0D1B0593421DD142F20F73209A1360029B43B9964A964BC7F31300002814BF1846104600E09248229B49
:402E4000002B00F06985C37813B100F1080300E0C31C229A136000F05FBDDDE902450022204629460023FFF7D7F8804658B1209A01231360229B002B00F03C85834818606C
:402E8000013800F049BD13AB009312AB0193504622462B4601F0B0F9C7F30A5607905EB1C5F3130343F07F51204641F44011A6F2FF36CDF844801DE0139B129E1E446FF445
:402EC00082639E42A1BF029A06F2124322FA03F06F4BB7BF6F4B9B1B029A9B1BAABF9F4002FA03F03843FEF7B9FD0123A1F1F871013E11930022684BFEF772FC5AA3D3E973
:402F00000023FEF721FE5AA3D3E90023FEF76AFC044630460D46FEF7B1FD57A3D3E90023FEF712FE02460B4620462946FEF75AFC04460D4601F046FC294683460022204646
:402F40000023FFF773F858B15846FEF797FD02460B4620462946FFF75FF808B90BF1FF3BBBF1160F0DD84D4B03EBCB03D3E90001DDE90223FFF778F830B10BF1FF3B002399
:402F800000E00123109300E01090129B9E1B731E0A9345BF5B420993002300234CBF0A930993BBF1000F07DB0A9BCDF834B05B440A9300230B9308E0099BCBEB03030993C3
:402FC000CBF100030B9300230D931E9B092B29D8052BC4BF043B1E931E9BC8BF0025A3F10203D8BF0125032B21D8DFE803F0020E0410002300E001230C931F9B002B20DCB9
:403000000123069305931A4619E0002300E001230C931F9B5B4406930133012B0593B8BF012311E0012500231E930C9501E001230C934FF0FF3306930593002212231F92BD
:4030400002E01F9B06930593DAF8244000226260042101F114029A4222D86268490001326260F6E7AFF3008061436F63A787D23FB3C8608B288AC63FFB799F501344D33FC1
:403080000000F07F544900005D490000314900000EFCFFFFEEFBFFFF0000F83FD04900005046616800F01CFEDAF8243020601B680893059B0E2B00F24781002D00F0448103
:4030C000DDE90223BBF1000FCDE90E2331DDB14A0BF00F034FEA2B1602EBC303F006D3E900450CD5DDE90E01AB4B06F00F06D3E90823FEF753FE0327CDE9020100E0022739
:40310000DFF8948276B1F10708D5D8E9002320462946FEF719FD04460D460137761008F10808EFE7DDE9020122462B46FEF736FE1BE0CBF10004DCB1DDE90E01954B04F0EC
:403140000F0203EBC203D3E90023FEF7FDFC924D241102274CB1E20704D5D5E900230137FEF7F2FC64100835F4E7CDE9020100E00227109BDBB1DDE902450022204629463D
:40318000864BFEF753FF90B1059B83B1069B002B40F3D680294620460022814BFEF7D4FC0BF1FF36CDE902010137069D01E05E46059D3846DDE90289FEF760FC42464B46E0
:4031C000FEF7C2FC774B0022FEF70CFBCDE90201039BA3F150740394CDB9404649460022714BFEF7FDFA029A234680468946FEF73BFF002840F0408240464946029A04F108
:403200000043FEF713FF002840F0308298E0614B0C996A1E03EBC203002947D0D3E9002300206249FEF7BAFDDDE90223FEF7D8FACDE90201089C4946404601F0C3FA074681
:40324000FEF71CFC02460B4640464946FEF7C8FADDE90223303704F8017B80468946FEF7E5FE002840F0378342464B4600204B49FEF7B6FADDE90223FEF7D8FE002840F013
:40328000D080089BE31AAB425ADADDE902010022434BFEF759FC0022CDE90201404B40464946FEF751FC80468946C4E7D3E90001DDE90223FEF748FC089BCDE902015C198B
:4032C0001D464946404601F07DFA0746FEF7D6FB02460B4640464946FEF782FA303705F8017BA5428046894623D100222F4BDDE90201FEF777FA02460B4640464946FEF7FE
:40330000B3FE002840F08D80DDE9022300202749FEF766FA02460B4640464946FEF786FE70B114F8013C621E302B40F0D4821446F7E700221A4BFEF707FC80468946C0E7C2
:40334000DDE90E23CDE90223139B002BC0F28A80BBF10E0F00F386800E4B03EBCB03D3E900671F9B002B23DA059B002B20DC40F07C81304600220C4B3946FEF7E5FBDDE90D
:403380000223FEF767FE059D2E46002840F06F8174E100BFD0490000984A00000000F03F0000244000001C40000014400000E03F089CDDE9028932463B4640464946FEF7C7
:4033C000EDFC01F0FFF90546FEF758FB32463B46FEF7BAFB0B46024649464046FEF700FA05F1300E089B04F801EBC3EB040E059B9E452AD102460B46FEF7F4F932463B46B7
:4034000080468946FEF730FE70B94046494632463B46FEF701FE002800F05E82EB0703D45AE2B34600E01C4614F8012C631E392A07D1089A9342F6D13023137013460BF113
:40344000010B1A7801321A7046E20022A34BFEF77BFB0022002380468946FEF7DDFD0028A9D039E20C9A002A32D01E9A012A0ADC119A12B103F2334302E0129BC3F13603F9
:403480000B9D099C18E0059B5D1E0B9BAB42B7BF0B9B5D1BEA1A0D9BBEBF0B959B180D93059BB8BF0025002BB9BF099B059A099C059BBCBF9C1A0023099A50461A4409927C
:4034C0000A9A01211A440A9200F0E1FC064602E00B9D099C0C9E64B10A9B002B09DDA342A8BF2346099AE41AD21A09920A9AD31A0A930B9B002B20DD0C9BC3B1002D10DD41
:4035000031462A46504600F05BFD0646079A3146504600F0C5FC07460799504600F015FC07970B9B5A1B08D05046079902E0504607990B9A00F044FD07905046012100F0A3
:40354000A6FC0D9B0546002B0ADD29461A46504600F036FD1E9B0546012B04DD00271BE01E9B012B13DC029B8BB9039BC3F313037BB9039B23F000473F0D3F0557B1099B62
:403580000127013309930A9B01330A9302E0002700E0029F0D9B43B12B6905EB8303186900F028FCC0F1200000E001200A9B184410F01F0008D0C0F12003042B02DDC0F17B
:4035C0001C0002E008D018461C30099B0444034409930A9B03440A93099B002B05DD504607991A4600F03AFD07900A9B002B05DD294650461A4600F031FD0546109BEBB127
:403600000798294600F07DFD002817DA0023504607990A2200F0B0FB0C9B0BF1FF3B0790002B00F06B813146002350460A2200F0A3FB069B0646002B33DC68E1059B002B39
:4036400026DC1E9B022B23DD059B0693069B73B929460522504600F08FFB05460798294600F04FFD002809DC01E000252E461F9B089C6FEA030B08E0B3462E46089B089A3B
:403680005C1C312313700BF1010BB14600260FE10C9B23B9059B0693089F079CC9E0059B0693002C05DD31465046224600F0D6FC0646AFB17168504600F012FB044632697C
:4036C00006F10C01023292000C30FEF723FD50462146012200F0C2FC814602E000002440B146089F079C29462046FFF7D7FA3146099000F13008204600F003FD4A46059043
:403700002946504600F019FDC26803463AB919462046079300F0F5FC079B024600E0012250461946079200F010FB079A92B91E9B83B9029B03F0010363B9B8F1390F3B465F
:4037400007943ED0059B7C1C002BC4BF099B03F131083DE0059B002B04DA002AC446079408DC21E024D11E9B13BB029B03F00103F3B9F2E72146012250460597CDF80880D1
:4037800000F06CFC2946079000F0BBFC0028DDF808C0059B03DC07D118F0010F04D0B8F1390F0ED008F1010C7C1C87F800C07FE0002A07F101020EDDB8F1390F3B460794D4
:4037C00003D1392201371A7057E0144608F1010887F800806CE0089B1746D31A02F8018C069A93423AD021460A220023504600F0C3FA4E450446314650464FF00A024FF09A
:40380000000304D100F0B8FA064681466BE700F0B3FA494606460A225046002300F0ACFA814660E7214650460A22002300F0A4FA044620462946FFF731FA089B00F13008C2
:4038400007F8018B069AFB1A9342EBDB089BB146012AACBF9B1801331F46002621460122504600F0FBFB2946079000F04AFC002803DC15D118F0010F12D03C4614F8013CD7
:40388000621E392B09D1089B9A4204D10BF1010B3123089A02E01446F0E70133137007E03C4614F8013C621E302B01D11446F8E75046294600F049FAB9F1000F0CD02EB1EA
:4038C0004E4503D05046314600F03FFA5046494600F03BFA00E0B3465046079900F035FA0023209A23700BF101031360229B1BB11C6001E00A480FE008980DE0069B002B51
:403900003FF7CAAE1E9B022B3FF7A0AEC4E61E9B022B3FF79BAEC4E615B0BDE8F08F00BF30490000AFF300808A892DE9F041054610070C4657D44B68002B02DC0B6C002BDC
:4039400018DDE66AB6B102F48052002392B22F682B600AB1626D10E0216A28460123B047411C024609D12B683BB11D2B01D0162B46D12F600020BDE8F081A3895B0705D520
:403980006368D21A636B0BB1236CD21AE66A00232846216AB047461CA38905D12A681AB11D2A01D0162A19D1002262602269D904226004D5421C01D12B6803B96065616B2E
:4039C0002F600029D6D004F14403994202D0284600F072FC00206063BDE8F08143F04003A381BDE8F0810F69002FC3D093070E680CBF4B690023C7EB06080F608B6012E013
:403A0000A3894FF0FF3043F04003A381BDE8F0812846216A3A464346A66AB0470028EFDD0744C0EB0808B8F1000FF1DCA2E7000038B50B6905460C46DBB118B183690BB928
:403A400000F060F80C4B9C4201D16C6808E00B4B9C4201D1AC6803E0094B9C4208BFEC68B4F90C302BB128462146BDE83840FFF75BBF002038BD00BF6449000084490000DC
:403A8000A4490000014900F0A7B800BF313A000010B50446002303604360836081814366C28103614361836119465C300822FEF73CFB054B24626362044BA362044BE3629D
:403AC000044B236310BD00BF6D4600008F460000C7460000EB46000070B568234D1E5D430E4605F1740100F02BFC044640B1002180E842000C30A06005F16802FEF715FB67
:403B0000204670BD836910B5044633BB8364C3640365124B124A1B688262984204BF0123836100F01FF86060204600F01BF8A060204600F017F80421E06000226068FFF7F4
:403B4000A7FFA06809210122FFF7A2FFE06812210222FFF79DFF0123A36110BD1C490000853A0000F8B51B4B07461E68B36913B93046FFF7C7FF4836B4687368013B04D4E0
:403B8000B4F90C5075B16834F8E733682BB938460421FFF7A1FF306008B13668ECE70C233B60F8BD4FF6FF73E3810123A38165662560A560656025616561A56104F15C004A
:403BC00029460822FEF7B1FA6563A563A564E5642046F8BD1C4900002DE9F8438046894600F14804002694B1A5686768013F0CD4AB89012B07D9B5F90E30013303D04046A7
:403C00002946C84706436835F0E72468EBE73046BDE8F883004870477881FF1FF0B58B8991B09D0706460C4625D4B1F90E10002908DAA389002513F0800F14BF40274FF4D7
:403C400080670DE001AA00F077FD0028F1DB029D4FF4806705F47045A5F500514D424D413046394600F06CFB60B9A3899A051DD443F00203A38104F1470323602361012307
:403C8000636113E00A4BB362A389206043F08003A381206167614DB13046B4F90E1000F05DFD18B1A38943F00103A38111B0F0BD853A0000024B0146186800F041BB00BF4F
:403CC0007481FF1F10B5C9B202449042034605D01C7801308C42F8D1184610BD002010BD70B5456A04460E463DB91020FFF7E2FF6062456085600560C560656AEB6843B16C
:403D0000636ADB6853F8260078B1026843F8262017E020460421212200F0C0FA636AE860DB68002BECD1002070BD012101FA06F56A1D2046920000F0B1FA0028F3D046602F
:403D4000856000230361C36070BD70B5446A06460D463CB91020FFF7ADFF7062446084600460C4603DB1736A6A68DB6853F82210296043F8225070BD2DE9F04106460C46C7
:403D80000F69984601F1140E0023DEF80000013385B2010C02FB0585514301EB1541ADB24FEA1148BB4205EB01414EF8041BECDBB8F1000F1BD0A3689F4212DB61683046C4
:403DC0000131FFF78DFF0546226904F10C01023292000C30FEF79EF921463046FFF7B5FF2C4604EB87030137C3F8148027612046BDE8F081030C1B0413B90004102300E09B
:403E0000002310F07F4F04BF0002083310F0704F04BF0001043310F0404F04BF80000233002803DB420003D5581C70471846704720207047036813F007020BD0D90722D451
:403E40009A074BBF5B089B08036003604CBF01200220704799B209B91B0C102213F0FF0F04BF1B0A0832190704BF1B090432990704BF9B080232D90702D45B0805D0013295
:403E8000036010467047002070472020704710B50C460121FFF724FF01224461026110BD2DE9F74F14460A69236988469A42BEBF0B46A0461C46D8F81070D4F81090D8F879
:403EC0000830D8F8041007EB09069E42C8BF0131FFF706FF00F114052B4605EB860C634503D2002243F8042BF9E704F1140208F1140102EB890301EB87070093009B01925E
:403F00009A4257D2B2F800B0BBF1000F23D08946AE464FF0000859F8044BBEF800A0A3B20BFB03A34FEA144ADEF8004043444FEA14480BFB0A84F24604EB13449BB243EA1E
:403F400004434F454FEA14484AF8043B01D9D646E1E7CEF80480019B0432B3F802A0BAF1000F21D02C4689462B684FF00008B9F800E0B4F802B09BB20AFB0EBEA346F04439
:403F800043EA08434BF8043B59F8043BB4F804E01B0C0AFB03E3B94503EB18434FEA134801D25C46E3E763600435A7E75CF8043D13B9013E002EF9DC066103B0BDE8F08F50
:403FC00012F003032DE9F04106460F46154607D0214A013B52F823200023FFF7CDFE0746AD1035D0746A3CB91020FFF763FE7062446084600460C460D6F82480D8F80840B2
:404000007CB9304640F27121FFF741FF0023C8F808000446036004E06D1019D0206870B10446EB07F8D5394622463046FFF738FF804639463046FFF788FE4746ECE73046B0
:4040400021462246FFF72CFF002320600360E7E73846BDE8F08100BFC04A00002DE9F0470C460746164623694FEA621A0AEB03094968A36809F101059D4202DD01315B008E
:40408000FAE73846FFF72CFE804600F114010023534504DA002241F823200133F8E72AEAEA73206901EB830316F01F0204F1140101EB800E14D0C2F1200C00200E689A461B
:4040C0009640304343F8040B51F8040B714520FA0CF0F3D3CAF8040048B109F1020506E0043B51F8042B714543F8042FF9D3013D3846C8F810502146FFF727FE4046BDE86D
:40410000F08703690A6910B59B1A11D192001430143183180A4453F8044D52F8041D8C4202D007D3012010BD8342F4D8002010BD184610BD4FF0FF3010BD2DE9F8430746D8
:404140000C46084611461546FFF7DBFF061E08D138463146FFF7C4FD012303614661BDE8F883BCBF23462C4638466168BABF1D4601260026FFF7B4FD2B69C660266905F179
:40418000140904F1140101EB860709EB830800F114054FF0000C51F8042B59F8044B93B29C44A3B2240CC3EB0C03C4EB124202EB23429BB24FEA224CC84543EA02428E4671
:4041C00045F8042BE7D8BE450ED25EF8043B9AB262441B0C03EB224392B242EA03424FEA234C45F8042BEEE755F8043D0BB9013EFAE70661BDE8F8832DE9F3411C4601214B
:404200001546089F099EFFF76BFDC4F31302C4F30A5480460CB142F480120192EDB102A840F8085DFFF706FE009B50B1019AC0F1200102FA01F10B43C240C8F814300192FB
:4042400001E0C8F81430019B002B14BF02250125C8F81830C8F8105009E001A8FFF7EAFD019B0125C8F81430C8F81050203034B1A4F2334404443C60C0F1350009E0A0F26E
:40428000324008EB850338601869FFF7B3FDC0EB45103060404602B0BDE8F08138B502FB01F4214600F04CF8054618B100212246FDF73BFF284638BD30B500293CD051F869
:4042C000042C0B1F1D49002AB8BF9B180A680C4612B95A600B6030BD93420DD219685818904201BF5A5852181A60426823605A6030BD994203D80A4651680029F9D114683A
:4043000015199D420AD11B682344D0188842136012D10868034413604B680CE002D90C23036030BD1C681819884201BF08684968001918605960536030BD00BFD481FF1F04
:4043400070B5CC1C24F0030408340C2C38BF0C24002C064603DA0C233360002070BD8C42F9D3204A136810461946A1B10A68121B0ED40B2A03D90A608B188C501FE08B4249
:404380000BBF5A684A6802605A6018BF0B4616E00B464968E9E7144D2B681BB9304600F055F928603046214600F050F9421C0346D1D0C51C25F0030585420AD11C6003F141
:4043C0000B001A1D20F00700821A0AD05142995070BD3046E91A00F039F90130BBD02B46ECE770BDD481FF1FD081FF1F936810B5013B002B936009DA9469A34202DBCBB262
:404400000A2B03D1BDE81040FEF788BB1368581C10601970C8B210BDF8B506460F461446D518AC4208D0304614F8011B3A46FFF7DDFF431CF5D100E00020F8BD2DE9F043A9
:404440009DB00D4690460393064618B183690BB9FFF758FB754B9D4201D1756808E0744B9D4201D1B56803E0724B9D4208BFF568AB891C070AD52B6943B1002309932023FC
:404480008DF8293030238DF82A3041E030462946FEF798FB0028F0D04FF0FF30C2E0039A0134111D12680391002ABBBF524243F0020307920792B8BF049323782E2B7BD069
:4044C000DFF88081217840460322FFF7FBFB38B1049AC8EB00004023834013430493013421785548062204F101088DF82810FFF7E9FB002800F08580504B002B78D1039B75
:40450000073323F0070308330393099B3B44099343461C4613F8012B1AB9B4EB08090ED002E0252AF5D1F8E73046294642464B46FFF772FF013070D0099B4B4409932378FB
:40454000002B6AD000234FF0FF3204930793059206938DF853301A9304F101084446DFF8E890217848460522FFF7ACFB08F10108049B30B1C9EB0000012282401343049363
:40458000ECE7D80644BF20228DF85320190744BF2B228DF8532022782A2A80D0234607991C4622780133303A092A03D80A2000FB0121F5E7079180E763782A2B0AD1039BEB
:4045C00002341A1D1B680392002BB8BF4FF0FF33059375E7611C00220C4623780131303B092B03D80A2000FB0232F5E7059267E703AB0093304604A92A46114BFDF72CFE8F
:4046000007E003AB0093304604A92A460C4BFEF7DFF8421C07467FF478AFAB895B063FF53BAF09981DB0BDE8F08300BF6449000084490000A4490000D64A0000592200005D
:4046400019440000D24A0000CC4A000038B5064C0023054608462360FBF7A8FD431C02D1236803B12B6038BDD881FF1F10B50C46B1F90E1000F094F80028ABBF636DA38945
:404680001B1823F48053ACBF6365A38110BD2DE9F0411D468B890746DB050C46164605D5B1F90E100022022300F068F8A389384623F48053A381B4F90E1032462B46BDE8D6
:4046C000F04100F017B810B50C46B1F90E1000F055F8431CA38915BF606523F4805343F48053A38118BFA38110BDB1F90E1000F013B8000038B5074C0546002020600846AE
:4047000011461A46FBF7D0FC431C02D1236803B12B6038BDD881FF1F38B5064C002305460846236000F076F8431C02D1236803B12B6038BDD881FF1F38B5074C00230546AA
:4047400008461146236000F06DF8431C02D1236803B12B6038BD00BFD881FF1F38B5064C002305460846236000F064F8431C02D1236803B12B6038BDD881FF1F38B5074C23
:40478000054600202060084611461A4600F05AF8431C02D1236803B12B6038BDD881FF1F38B5074C054600202060084611461A4600F050F8431C02D1236803B12B6038BD06
:4047C000D881FF1F4FEA410212F5001215D211D56FF47873B3EB625212D94FEAC12343F0004343EA505311F0004F23FA02F018BF404270474FF00000704750EA013005D14C
:4048000011F0004008BF6FF0004070474FF00000704700BF024B58221A604FF0FF307047D881FF1F024B58221A604FF0FF307047D881FF1F024B58221A600020704700BFD4
:40484000D881FF1F024B58221A604FF0FF307047D881FF1F024B58221A604FF0FF307047D881FF1F0000000053746172740D000025780D0A0A0000005354415254200D0073
:40488000C84900401900004F0040300040510040300000000140001000140140800400190140000300400140000A004C01400002005001402000000060520040EC0B00484B
:4048C000060080180140F40B00488000706F770000000000000000000000004003B8E23F000000000000000006D0CF43EBFD4C3E000000000000F03F000000000000F83FE0
:404900000000000000000000000000000000304300000000000030C3430000001481FF1F494E4600696E66004E414E006E616E0030003031323334353637383941424344A0
:404940004546003031323334353637383961626364656600496E66696E697479004E614E000000000000000000000000000000000000000000000000000000000000000003
:4049800000000000000000000000000000000000000000000000000000000000000000000000000000000000000000000000000000000000000000000000000000000000F7
:4049C00000000000504F534958002E0000000000000000000000F03F000000000000244000000000000059400000000000408F40000000000088C34000000000006AF8408E
:404A00000000000080842E4100000000D01263410000000084D797410000000065CDCD41000000205FA00242000000E876483742000000A2941A6D42000040E59C30A242B4
:404A40000000901EC4BCD64200003426F56B0C430080E03779C3414300A0D8855734764300C84E676DC1AB43003D9160E458E143408CB5781DAF154450EFE2D6E41A4B4486
:404A800092D54D06CFF08044F64AE1C7022DB544B49DD9794378EA440080E03779C34143176E05B5B5B89346F5F93FE9034F384D321D30F94877825A3CBF737FDD4F15759E
:404AC00005000000190000007D000000232D302B2000686C4C0065666745464700000000F8B500BFF8BC08BC9E4670474D00000029020000F8B500BFF8BC08BC9E467047B6
:404B000029000000184B00000881FF1FA8000000300000000000000000000000E081FF1F01000000000000006449000084490000A449000000000000000000000000000083
:404B400000000000184900000000000000000000000000000000000000000000000000000000000000000000000000000000000000000000000000000000000000000000D4
:404B8000000000001481FF1FCA490000D14A0000D14A0000D14A0000D14A0000D14A0000D14A0000D14A0000D14A0000D14A0000FFFFFFFFFFFFFFFFFFFFFFFFFFFF00004A
:404BC00000000000000000000000000000000000000000000000000000000000000000000000000000000000000000000000000000000000000000000000000000000000B5
:404C00000000000000000000000000000000000000000000000000000000000000000000000000000000000000000000000000000000000000000000000000000000000074
:404C40000000000000000000000000000000000000000000000000000000000000000000000000000000000000000000000000000000000000000000000000000000000034
:404C800000000000000000000000000000000000000000000000000000000000000000000000000000000000000000000000000000000000000000000000000000000000F4
:020000040003F7
:0200000480007A
:40000000084F004005520040066400400265004002010140090301400B0501404F06014058070140460801405A090140460A01404E0B0140680C0140510D01405D0E0140CB
:40004000300F01405C1401404F15014004160140171701401D180140501901404C1A01404A1B014006400140024101400D4201400F430140024401400545014006460140A6
:4000800005470140164801401F4901400E4C0140104D0140075001400251014001800A390D80162D1980227225802E39082009600C60183019202C0F2D043C08870F89727A
:4000C0008B0F850F89388904E60187108B4095089702A104A904B701E602EA04862087018D409360950897029D20A104B120E208E60A02010433060C08FF0C400E131046DE
:4001000012A918801A561C0E1E30242A2654270130FF3701580459045C305F018090810183028505860F870A880F8E048F02900F9480950897059A089B209D069E08A020B5
:40014000A241A310A420A50FA642A901AA0FAB04AC90AD01AF02B070B120B280B31FB410B60FB82ABE51C015C102C50CC6BEC80DC9FFCAFFCBFFCEF0CF44D00CD401D804F2
:40018000D904DA04DB04DD22DF01E6C0EA40EB02000101400220030906900705080409020A080B020C800E800F0810801108121813441508180119A21B0C1E801F03210469
:4001C00022062702288029082A902B012F20308032203308340435183610370439483B024004414049404A1050205380580259105A045B806140628078027B808080810837
:4002000086108A028C208F0A914093E0950897029B089D22A080A104A220A301AB08AF40B080B102C0FFC2DFC42FCA4FCC0ECE0BD00CD208D60FE280E408E605EA08EE02F6
:40024000000201140201050C0711080109100A020B0C0D090F10160317031A031C011E062001211C22042302252029102A033120331F36073A803F01580459045C205F016D
:4002800080A5824A8404881A8A608CFF8F0490A991029254944D969298029B029D089EB5A204A304A4CCA502A613AA02AD01AE01B104B2FFB308B502B701BE04BF45D602DD
:4002C000D712D804D904DB04DD20DF01006801400240030905100680088809020B040E1A1010135A1520170119041E022002221123242420260A29802B502E802FA53040FF
:40030000321033013510362838803DA83F0143C058025A0A69046A806B1470A879087A10804081048701885189108A208C828D018E128F09904891029350958096F09702CE
:40034000984899809B029C809D089E429F54A014A204A310A442A537A630A804AC40AE08AF08B010B140B580C05FC2EFC45FCAEBCC4DCEF8D602E010E280E470E884EE88DC
:400380000004012202E0031804010501071E083D0AC20B400CE20D3F105D113212A213081440151C161D1722180D19061D221EFF21042202250126082801292A2B102C9231
:4003C0002D182E602F063360351F36FF39203E40580459045F018108850689068F01960197019B019D04A702AB01AC02AD01B202B306B401B501B708B908BE04BF54D40395
:40040000D604D804D904DB04DD10DF01006801010240088809020B080E10100211041280131216011A021E081F18202421082608270929112A082B022D082E102F0130025E
:400440003108329036243740384039293C803D283F0240044208461047085E805F2567807D047E1087548C088D109048912A935D958096C299119A019B229C809D409E5202
:400480009F15A004A240A313A410A521A610B010B301B701C00FC22FC48FCA7FCC7FCEFFD6F0D880E240E820005708530A040C570F0113011410162018011A0E1C101EE028
:4004C00020422215230228462A112C112D032E883301340F36F037023AA03B083F40403245054702481149FF4AFF4BFF4C424DA04E7050085110580459045A045C105F01F2
:4005000061486240634864806548668067488103850189018A018DFF8E01913A920193049508970799109A039B079D229E049F05A1C0A307A501A808A903AD05AE02AF78B2
:40054000B008B380B407B57FB908BA20BF10C025C401C5B0C70DC812C9FFCA7FCBFFCC42CDA0CE70D00CD804D904DA04DF01E109E240E309E430E5090028010803020592BC
:40058000080809010A2A0E0A0F201150140815401640184019101A081E0A21142648288029882B082F813080321433023602384039443A023B103D804004414044104520BA
:4005C00049414E2050045108530C5608644066028620881089808A089004911692209355944096C8970299029A019B229C409E109F15A084A140A202A392A410A509A61DE0
:40060000AB02B540B611C0D3C2EBC4D3CA9FCC8FCE1FD06CD208E220E840004002140401084F0C1F1090120B140315011620184819011A021C031D012042220926012801DC
:400640002C402E0B301F310134E0364038A03E504041420249FF4AFF4BFF4F01501852F6580459045A045B045C205D015F016040624064406540668068806A806C806E80F7
:400680008D018F08931D95019704AD1DAF02B102B301B510B70CBB80BF10C045C202C5ECC602C807C9FFCAFFCBFFCD83CE03CF01D018D420D604D904DA04DB04DC10DD0149
:4006C000DF01E040E240E440E540E680E880EA80EC80EE8000680102084009090A08108011441310180419821B1221012560260227202F0132403314360A3D804120438199
:4007000045204701480449104F8557C05E6A64806580661069147110735280808880C00FC20FC40FCA10CCCECE10D0ADD210D6F0D8B0E4800708090F0F1412011318191023
:400740001B021D101E021F01253F260229042B082F203002333F360139084005454049FF4A074BFF4C404D204EF04F0550085280580459045A045B045C035D325F016040D2
:4007800061A8624063208A018E028F049108920196029C049D01A202A306A602A708AE04B108B204B301B401B504B602B702BE50BF04C050C102C5D0C610C752C83AC9FF11
:4007C000CAFFCBFFCDA0CF04D018D407D804D904DA04DB04DC33DD33DF01E040E2C0E440E540E6C0E8C0EAC0ECC0EEC0054006040A020B400D800E100F8010201501160253
:4008000017081A421B401E281F80220825A8278029882B082E022F20308031103302374239483B203F80460449024B804E014F0152805420560657205E285F81611063046C
:400840007340878089208B048E408F409149921093A499C89B0A9D02A080A30AA508A688A720A902B103B380B508C0C0C2B9C4B4CACECC9DCE1ED020D218D6F0E010E401FE
:40088000E6C0E810EA0BEC80EE12B902BF01D904DF0122028218860287028944914893A499889B0A9F80A080A30AA502A688A720A804A940AE80B204B780E08CEA07EC0806
:4008C000010303440553070409530B0C0C010E060F081D0A1F542520260827452C012E023008320433403403350F373039803B203F04580459045C205F010042032405802C
:400900000C010D02110416011708184119041B201E181F012144226223082550272028892A042D08301032413308374039493A103DA83F0240014101428849104B404FC0CE
:40094000504052105902600263048201840289018A428B0490289146948095889658970A989A99089A209B049E409F40A0A8A319A576A620A740A914AD08AF20B202B720A3
:40098000C08FC4A4CA4FCC1FCEFFD00DD20CD601D80CE004E480E840EE20004104C30518080F09080AF00C820D7F10FF141C155C16E31721195C1B221CF31D101E0C200839
:4009C000210424042704280C29672B182EF32F0330C03120322C3340340F351F361C39023A283BA03F04580459045C225F018201850886088713880489088B158C0A8F16A8
:400A000090089202940398109D169F09A008A40AA709A808AA02AB02AC03B003B11BB204B307B418B820BB0ABE14D804D904DC20DF01004203280428050107010AA00B0215
:400A40000C020E080F2010A9121414081540166019121B481C201D211E402140225525042740280129142A802B802D082F04308032103308374039803A143DA881108301C7
:400A8000881189028B818E48906891409308964A9808990C9AE09D129E089F40A0AAA150A204A330A401A526A740AA10B324B580B604C0FFC27DC4FFCA6FCC1ECE7EE42139
:400AC000E890EA0AEE223002324036808240CC70E680A402A68018801B201C201D203D8063408402A402A680C6F0CE20D840E21072047401770188019080A010A320A540F0
:400B0000A680A920AF40DC60DE20E820EE401080C40800020108B480C008EE0200040508B001B508C00CEA039A01AA01AD08B404EE0265106B206F01711072048040860488
:400B400087018B2090809F01A010A320A540A680AE04D880DAC0DC20E080E240EA400A80122014805A0166017B027E01822086808A018E4192029C80A302A680AD40AE01A1
:400B8000AF02B010B480B720C210C430D640D880DC80DE20E480E610EA50EE4009200D0813281502600466017B107C1080049A01C206C40ED803DE0310407F028310884056
:400BC0008B02A710AD01AF28B410B528C408DE04E201E401E808EE0A000F0A0D0C070E07100D1A0D1C05003F03C00000828000004300000024009A0C100461187C0000025E
:400C000048041610000000020000000C000C0000000000010000000C7C080024000C00000000000C0C02801C700103200000000800004001640205000100EC000CFFFFFF73
:400C400062A0F0410C0000001800000004040404022200010000000000004002001030100010101200000000000000000000000000000000008080000000000083004090D1
:400C800093008300000000000031310000000000600080006000600000000000010808000000000000F0F000600000000000000000000000000000000000000000000000CB
:400CC00000000000000000000000000000000000000000000000000000000000000000000000000000000000000000000000000000000000000000000000000000000000F4
:400D000000000000000000000000000000000000000000000000000000000000000000000000000000000000000000000000000000000000000000000000000000000000B3
:400D40000000000000000000000000000000000000000000000000000000000000000000000000000000000000000000000000000000000000000000000000000000000073
:400D80000000000000000000000000000000000000000000000000000000000000000000000000000000000000000000000000000000000000000000000000000000000033
:0200000490006A
:0400000000004005B7
:0200000490105A
:04000000BC90ACAF55
:0200000490303A
:02000000537536
:0200000490402A
:4000000000000000000000000000000000000000000000000000000000000000000000000000000000000000000000000000000000000000000000000000000000000000C0
:400040000000000000000000000000000000000000000000000000000000000000000000000000000000000000000000000000000000000000000000000000000000000080
:400080000000000000000000000000000000000000000000000000000000000000000000000000000000000000000000000000000000000000000000000000000000000040
:4000C0000000000000000000000000000000000000000000000000000000000000000000000000000000000000000000000000000000000000000000000000000000000000
:0200000490501A
:0C00000000012E16106900012E3763DE8F
:00000001FF